:020000040000FA
:100000000C944F050C9477050C9477050C947705A8
:100010000C9477050C9477050C9477050C94770570
:100020000C9477050C9477050C9477050C94770560
:100030000C9477050C9477050C9477050C94770550
:100040000C94D7150C9477050C9447160C94211634
:100050000C9477050C9477050C9477050C94770530
:100060000C9479160C94770500000000003E5B4F5D
:100070005B3E3E6B4F6B3E1C3E7C3E1C183C7E3C08
:10008000181C577D571C1C5E7F5E1C00183C180016
:10009000FFE7C3E7FF0018241800FFE7DBE7FF30A6
:1000A000483A060E2629792926407F050507407F14
:1000B00005253F5A3CE73C5A7F3E1C1C08081C1C87
:1000C0003E7F14227F22145F5F005F5F06097F017D
:1000D0007F006689956A606060606094A2FFA29468
:1000E00008047E040810207E201008082A1C080836
:1000F0001C2A08081E101010100C1E0C1E0C303884
:100100003E3830060E3E0E06000000000000005F84
:1001100000000007000700147F147F14242A7F2AA0
:100120001223130864623649562050000807030062
:10013000001C2241000041221C002A1C7F1C2A08AE
:10014000083E080800807030000808080808000011
:1001500060600020100804023E5149453E00427F85
:10016000400072494949462141494D331814127FD4
:100170001027454545393C4A494931412111090774
:100180003649494936464949291E000014000000F5
:1001900040340000000814224114141414140041C7
:1001A00022140802015909063E415D594E7C121184
:1001B000127C7F494949363E414141227F414141BC
:1001C0003E7F494949417F090909013E4141517337
:1001D0007F0808087F00417F41002040413F017FA8
:1001E000081422417F404040407F021C027F7F0470
:1001F00008107F3E4141413E7F090909063E4151B9
:10020000215E7F09192946264949493203017F01A8
:10021000033F4040403F1F2040201F3F4038403FA9
:10022000631408146303047804036159494D4300BF
:100230007F4141410204081020004141417F0402F6
:10024000010204404040404000030708002054548D
:1002500078407F284444383844444428384444286B
:100260007F385454541800087E090218A4A49C78BE
:100270007F0804047800447D40002040403D007F1A
:100280001028440000417F40007C047804787C08FA
:100290000404783844444438FC18242418182424CE
:1002A00018FC7C08040408485454542404043F44B3
:1002B000243C4040207C1C2040201C3C4030403CE2
:1002C00044281028444C9090907C4464544C440042
:1002D00008364100000077000000413608000201A6
:1002E0000204023C2623263C1EA1A161123A404092
:1002F000207A38545455592155557941225454780F
:1003000042215554784020545579400C1E527212A7
:100310003955555559395454545939555454580030
:1003200000457C410002457D420001457C407D1234
:1003300011127DF0282528F07C5455450020545496
:100340007C547C0A097F4932494949323A44444441
:100350003A324A4848303A4141217A3A424020787C
:10036000009DA0A07D3D4242423D3D4040403D3C7D
:1003700024FF2424487E4943662B2FFC2F2BFF09A2
:1003800029F620C0887E0903205454794100004496
:100390007D413048484A32384040227A007A0A0A81
:1003A000727D0D19317D2629292F282629292926F4
:1003B00030484D4020380808080808080808382F39
:1003C00010C8ACBA2F102834FA00007B00000814C3
:1003D0002A142222142A14085500550055AA55AA99
:1003E00055AAFF55FF55FF000000FF00101010FF39
:1003F00000141414FF001010FF00FF1010F010F094
:10040000141414FC001414F700FF0000FF00FF1484
:1004100014F404FC141417101F10101F101F1414D0
:10042000141F00101010F0000000001F101010101A
:100430001F10101010F010000000FF10101010100E
:1004400010101010FF10000000FF140000FF00FF4C
:1004500000001F10170000FC04F4141417101714E8
:1004600014F404F40000FF00F7141414141414140A
:10047000F700F7141414171410101F101F1414147D
:10048000F4141010F010F000001F101F0000001FE7
:1004900014000000FC140000F010F01010FF10FF1A
:1004A000141414FF141010101F00000000F010FFAF
:1004B000FFFFFFFFF0F0F0F0F0FFFFFF0000000093
:1004C00000FFFF0F0F0F0F0F3844443844FC4A4A17
:1004D0004A347E02020606027E027E0263554941CC
:1004E000633844443C04407E201E2006027E020203
:1004F00099A5E7A5991C2A492A1C4C7201724C3017
:100500004A4D4D303048784830BC625A463D3E49ED
:100510004949007E0101017E2A2A2A2A2A44445F91
:10052000444440514A444040444A51400000FF0185
:1005300003E080FF000008086B6B08361236243693
:10054000060F090F060000181800000010100030F8
:1005500040FF0101001F01011E00191D1712003C80
:100560003C3C3C0000000000000103070F1F3F7FE0
:100570000080C0E0F0F8FCFEDB40A4A62EAF200017
:10058000A1C8D300408DAED580A800006000000057
:100590000000000000000000000000E0000000007B
:1005A00000000000000000000001E000000000006A
:1005B000000000000000000001F00000000000004A
:1005C0000000000000000003F00000000000000038
:1005D00000000000000007F0000000000000000024
:1005E000000000000007F80000000000000000000C
:1005F000000000000FF800000003C0007E000001B2
:10060000E0007F0FF800000003C000FE000001E0E2
:1006100000FFEFF800000003C000FE000001E00052
:10062000FFFFF800000003C000F00000000F007F93
:10063000FE7FC0000003C000F00000000F003FFE7E
:100640007FF83FF1FBCFFCFEF3BC3DEFE01FFE7FE8
:10065000FF7FFBFFDFFEFEFFBC3DEFE01FC6FFFF9D
:100660007FFBFFDFFEFEFFBC3DEFE00FE3C7FE7840
:100670007BC3DE1EF0FFBC3DEF0007FF87FC787BED
:10068000C3DE1EF0F83C3DEF0001FFFFF0007BC32E
:10069000C01EF0F03C3DEF0001F37FE03FFBC3CF15
:1006A000FEF0F03C3DEF0003E33F807FFBC3DFFE45
:1006B000F0F03C3DEF0007E73C00787BC3DE1EF026
:1006C000F03C3DEF0007FFBE00787BC3DE1EF0F07C
:1006D0003C3DEF0007FFFE00787BC3DE1EF0F03CE0
:1006E0003DEF000FFFFE007FFBFFDFFEF0F03FFD60
:1006F000EFE00FFFFF007FFBFFDFFEF0F03FFDEFBD
:10070000E00FF9FF003E79F9CF9EF0F01F3DE7E0E2
:100710001FF1FF0000000000000000000000001FAB
:1007200080FF007FFFFFFFFFFFFFFFFFFFE01C00D8
:100730007F007FFFFFFFFEB46D888D18E000001F73
:10074000007FFFFFFFFE95AD7DB577E000000F0055
:100750007FFFFFFFFEA5AD9D8D19E0000006007F25
:10076000FFFFFFFEB5ADEDB57EE00000000000012B
:100770008000000000000000000003800000000076
:10078000000000000007C0000000000000000000A2
:1007900007C00000000000000000000FC0000000C3
:1007A0000000000000001FE000000000000000004A
:1007B000001FE00000000000000000003FE000001B
:1007C000000000000000003FF000000000000000FA
:1007D00000007FF0000000000000001FF87FF00024
:1007E0000000000000003FFE7FF00000000000005D
:1007F000003FFF7FF0000000000000001FFFFBE053
:10080000000000000000000FFFF9FFC00000000022
:1008100000000FFFF9FFF800000000000007FFF1E3
:10082000FFFF00000000000003FC73FFFF800000DA
:1008300000000001FE3FFFFF80000000000000FFFD
:100840001E0FFF000000000000007FFE1FFC0000E4
:1008500000000000003FFFFFF80000000000000063
:100860000FDFFFE0000000000000001F19FFC000C4
:100870000000000000003F3CFF00000000000000FE
:10088000007E7CF800000000000000007FFE7C007D
:1008900000000000000000FFFFFC0000000000005E
:1008A0000000FFFFFE0000000000000000FFFFFE50
:1008B0000000000000000001FFEFFE00000000004B
:1008C000000001FFCFFE0000000000000003FF0752
:1008D000FE0000000000000003FC07FE0000000016
:1008E00000000003F003FE00000000000000018093
:1008F00000FE000000000000000000007E0000007C
:10090000000000000000003E0000000000000000A9
:1009100000000C000000000000078000FC00000345
:10092000C0000000078001FC000003C000000007B9
:100930008001FC000003C0000000078001E000000F
:10094000001E000000078001E00000001E007FE3A1
:10095000F79FF9FDE7787BDFC0FFF7FFBFFDFDFFE5
:10096000787BDFC0FFF7FFBFFDFDFF787BDFC0F0C6
:10097000F787BC3DE1FF787BDE00F0F787BC3DE107
:10098000F0787BDE0000F787803DE1E0787BDE00D9
:100990007FF7879FFDE1E0787BDE00FFF787BFFDF3
:1009A000E1E0787BDE00F0F787BC3DE1E0787BDEBC
:1009B00000F0F787BC3DE1E0787BDE00F0F787BC14
:1009C0003DE1E0787BDE00FFF7FFBFFDE1E07FFB6C
:1009D000DFC0FFF7FFBFFDE1E07FFBDFC07CF3F38B
:1009E0009F3DE1E03E7BCFC0000000000000000022
:1009F000000000FFFFFFFFFFFFFFFFFFFFC0FFFF43
:100A0000FFFFFD68DB111A31C0FFFFFFFFFD2B5A0E
:100A1000FB6AEFC0FFFFFFFFFD4B5B3B1A33C0FFDC
:100A2000FFFFFFFD6B5BDB6AFDC053534431333086
:100A30003620616C6C6F636174696F6E20666169EA
:100A40006C6564002200FF210000000000240027E4
:100A5000002A0000000000250028002B00040404E8
:100A60000404040404020202020202030303030357
:100A70000301020408102040800102040810200134
:100A80000204081020000000080002010000030416
:100A9000070000000000000000009817071D112447
:100AA0001FBECFEFD8E0DEBFCDBF11E0A0E0B1E0C8
:100AB000E8EFFCE302C005900D92AC35B107D9F721
:100AC00023E0ACE5B1E001C01D92A832B207E1F726
:100AD00015E0CEE4D5E004C02197FE010E94381D48
:100AE000CD34D107C9F70E941E180C946F1E0C94C8
:100AF0000000089590E0FC01EB57F54F2491FC01B4
:100B0000EF58F54F3491FC01E35AF54FE491EE2391
:100B1000C9F0222339F0233001F1A8F4213019F172
:100B2000223029F1F0E0EE0FFF1FED5AF54FA591AD
:100B3000B4918FB7F894EC91611126C030953E23A3
:100B40003C938FBF08952730A9F02830C9F0243096
:100B500049F7809180008F7D03C0809180008F775E
:100B600080938000DFCF84B58F7784BDDBCF84B5E1
:100B70008F7DFBCF8091B0008F778093B000D2CF74
:100B80008091B0008F7DF9CF3E2BDACFCF93DF93EA
:100B900090E0FC01EF58F54F2491835A954FFC01EA
:100BA00084918823D1F090E0880F991FFC01E75BC6
:100BB000F54FA591B491FC01ED5AF54FC591D49133
:100BC00061110EC09FB7F8948C91E22FE0958E23AF
:100BD0008C932881E223E8839FBFDF91CF91089512
:100BE0008FB7F894EC91E22BEC938FBFF6CF3FB721
:100BF000F8948091240290912502A0912602B09150
:100C0000270226B5A89B05C02F3F19F00196A11D0C
:100C1000B11D3FBFBA2FA92F982F8827BC01CD0146
:100C2000620F711D811D911D42E0660F771F881FA5
:100C3000991F4A95D1F708958F929F92AF92BF92D4
:100C4000CF92DF92EF92FF924B015C010E94F70579
:100C50006B017C010E94F7056C197D098E099F09C3
:100C6000683E734081059105A8F321E0821A91083E
:100C7000A108B10888EEC80E83E0D81EE11CF11C63
:100C800081149104A104B10429F7FF90EF90DF9043
:100C9000CF90BF90AF909F908F9008950895089542
:100CA000AF92BF92CF92DF92EF92FF920F931F937A
:100CB000CF93DF936C017B018B01040F151FEB01B8
:100CC0005E01AE18BF08C017D10759F06991D6016F
:100CD000ED91FC910190F081E02DC6010995892BE1
:100CE00079F7C501DF91CF911F910F91FF90EF90A0
:100CF000DF90CF90BF90AF900895FC01538D448D4D
:100D0000252F30E0842F90E0821B930B541710F0B6
:100D1000CF96089501970895FC01918D828D9817C3
:100D200061F0A28DAE0FBF2FB11D5D968C91928D9B
:100D30009F5F9F73928F90E008958FEF9FEF0895CC
:100D4000FC01918D828D981731F0828DE80FF11D95
:100D5000858D90E008958FEF9FEF0895FC01918DB0
:100D6000228D892F90E0805C9F4F821B91098F73A9
:100D7000992708958CE292E00E94AE0621E0892B2B
:100D800009F420E0822F089580E090E0892B29F07B
:100D90000E94BA0681110C9400000895FC01A48DF4
:100DA000A80FB92FB11DA35ABF4F2C91848D90E08D
:100DB00001968F739927848FA689B7892C93A08970
:100DC000B1898C91837080648C93938D848D9813FA
:100DD00006C00288F389E02D80818F7D808308958D
:100DE000EF92FF920F931F93CF93DF93EC0181E07B
:100DF000888F9B8D8C8D98131AC0E889F989808122
:100E000085FF15C09FB7F894EE89FF896083E88954
:100E1000F98980818370806480839FBF81E090E046
:100E2000DF91CF911F910F91FF90EF900895F62ED3
:100E30000B8D10E00F5F1F4F0F731127E02E8C8D6D
:100E40008E110CC00FB607FCFACFE889F9898081B2
:100E500085FFF5CFCE010E94CE06F1CFEB8DEC0FD2
:100E6000FD2FF11DE35AFF4FF0829FB7F8940B8FCF
:100E7000EA89FB8980818062CFCFCF93DF93EC0139
:100E8000888D8823B9F0AA89BB89E889F9898C9172
:100E900085FD03C0808186FD0DC00FB607FCF7CF2E
:100EA0008C9185FFF2CF808185FFEDCFCE010E942E
:100EB000CE06E9CFDF91CF910895809111029091F4
:100EC0001202891B990B0895EF92FF920F931F93C3
:100ED000CF93DF93EC01EC80FD806E157F050CF065
:100EE00070C057FF04C0240F351F50E040E08E81D2
:100EF0009F81FA01E20FF31F8E179F071CF49C01DC
:100F0000241B350B121613060CF05BC0922F842F96
:100F10008695869586958E9DD0018F9DB00D112466
:100F20006A0F7B1FAF8DB8A1A60FB71F477049F19D
:100F300088E0841B482F682F70E0FB01E059FA4FCE
:100F4000E491281708F063C0621B71092FEF30E0AD
:100F500002C0359527956A95E2F7E2230130110525
:100F600039F0B0F10230110561F58C91E82702C02B
:100F70008C91E82BEC93941720F12C813D81A20FEA
:100F8000B31FE92FE41BE83078F00230110521F59A
:100F90008E2F9C9190959C932C813D81A20FB31F25
:100FA00088508830B0F7E770EE2359F0F0E0E85948
:100FB000FA4FE49101301105F9F010F102301105FA
:100FC00019F1DF91CF911F910F91FF90EF9008954C
:100FD000E0958C91E823CECF81E00115110509F44D
:100FE00080E081959E2F8C932C813D81A20FB31FB1
:100FF00098509830C0F7D7CF8C91E82BEC93E1CF85
:10100000E0958C91E823FACF8C91E827F7CF013057
:10101000110509F4ADCFE0F20230110509F4A5CFB6
:10102000AE0DBF1DAECF0F931F93CF93DF9377FF0E
:1010300004C0260F371F70E060E0DC011496CD91EC
:10104000DC91FB01E20FF31FCE17DF071CF49E01BA
:10105000261B370B121613064CF5FA0157FD37966F
:10106000A3E0F595E795AA95E1F7EC9FD001ED9FF8
:10107000B00DFC9FB00D11246A0F7B1FDC015F9641
:10108000ED91FC91E60FF71F4770552781E090E046
:1010900001C0880F4A95EAF7482F0130110559F031
:1010A000A8F02E0F3F1F02301105E1F0DF91CF9124
:1010B0001F910F9108952E0F3F1FE217F307B1F311
:1010C0008191DF011197842B8C93F7CF80952E0FA0
:1010D0003F1FE217F30751F39191DF011197982316
:1010E0009C93F7CFE217F30709F38191DF01119782
:1010F00084278C93F7CF0F931F93FA01DC01569648
:101100004C9156974230E9F04330A1F1413061F5FE
:1011100014964D915C91DA01AE1BBF0BFD01E21BF1
:10112000F30B77FD0BC0DC0116964D915C916417B3
:10113000750724F4AB01BF010E9413081F910F91A2
:10114000089514964D915C91DA01A61BB70BBD0171
:1011500061507109DC0116964D915C91DA01AE1B6C
:10116000BF0BFD01E21BF30B77FDE8CFAF010E943F
:101170006407E4CF16964D915C91DA01A61BB70B7C
:10118000BD0161507109CDCF0F931F93FA01DC01AE
:1011900056964C9156974230A9F0433091F1413028
:1011A00019F514964D915C91DA01AE1BBF0BFD0150
:1011B0003197F7FD04C0AB01BF010E9464071F9186
:1011C0000F91089514964D915C91DA01A61BB70B0F
:1011D000BD01DC0116964D915C91DA01AE1BBF0B8F
:1011E000FD013197621B730BF7FDE9CFDC01169609
:1011F0004D915C91E417F50714F7AF010E941308B5
:10120000DECF16964D915C91DA01A61BB70BBD019E
:10121000621B730BCECFFC0177FD64C08085918586
:10122000681779070CF05EC057FD5CC08285938516
:10123000481759070CF056C086898230B1F08330C8
:1012400029F1813041F484819581841B950BAB0198
:10125000BC01615071092130310509F108F443C026
:101260002230310509F463C0089584819581DC0141
:10127000A61BB70BBD016150710986819781DC0106
:10128000A41BB50BAD0141505109E5CF8681978173
:10129000861B970BBA01AC0141505109DCCFCA0142
:1012A00057FD0796A3E095958795AA95E1F7A48148
:1012B000B5818A9F90018B9F300D9A9F300D11242C
:1012C000620F731F078CF0A1E02DE60FF71F477028
:1012D000552721E030E001C0220F4A95EAF78081CE
:1012E000822B80830895CA0157FD079633E09595B8
:1012F00087953A95E1F7A481B5818A9F90018B9FEC
:10130000300D9A9F300D1124620F731F078CF0A1CE
:10131000E02DE60FF71F4770552781E090E001C0F0
:10132000880F4A95EAF7809590818923DACFCA0120
:1013300057FD079623E0959587952A95E1F7A481B7
:10134000B5818A9F90018B9F300D9A9F300D11249B
:10135000620F731F078CF0A1E02DE60FF71F477097
:10136000552721E030E001C0220F4A95EAF780813D
:101370008227B7CF08958EBD00000DB407FEFDCFC4
:101380008EB508958CBD9DBD08950895FC016370D0
:10139000668B8481958126813781613039F0633095
:1013A00029F09187808733872287089531872087A6
:1013B0009387828708952F923F924F925F926F9208
:1013C0007F928F929F92AF92BF92CF92DF92EF92D5
:1013D000FF920F931F93CF93DF93CDB7DEB76A973A
:1013E0000FB6F894DEBF0FBECDBF9A8F898F7A8378
:1013F00069834A01D22E18870F833701BC2CDC0188
:1014000059962D913C915A972115310509F015C136
:1014100018968D919C911997681779070CF0D7C190
:101420001A968D919C91481759070CF0D0C14C2CFD
:10143000512CB6E0CB9E600D711D11247C876B870B
:10144000161617060CF0C3C1EA2DF0E0FA87E987FB
:1014500093E0EE0FFF1F9A95E1F7F88BEF87CF012E
:10146000840F951F181619060CF0B1C1A98DBA8DFD
:1014700058968C91811104C0BFEABD1508F4D3942D
:10148000A98DBA8DED91FC9111970284F385E02D21
:10149000CD010995B5E0DB9EC0011124E981FA81F7
:1014A000FC83EB83312C212C9C0128593F4F388F32
:1014B0002F8B4A2D50E05E8B4D8BEF89F88DE20D1E
:1014C000F31D44919E828D82D12CC12C69817A8139
:1014D000620D731D7A8B698B842F90E09C8B8B8BB4
:1014E000E98DFA8DA081B18140FF82C0F1E0BF1289
:1014F0006FC0AF126DC01C96ED91FC912F813885A5
:10150000A4014C0D5D1D69897A89898D9A8D099593
:10151000EB89FC89F595E7954E2F5FEFC51AD50A43
:101520006D817E818D899E89680F791F7E836D8391
:1015300098E0C916D10481F6AFEF2A1A3A0AEB8176
:10154000FC81E40DF51DFC83EB83F5E02F163104DF
:1015500009F0B3CF2F81388526153705B9F0A98D4D
:10156000BA8DED91FC91B1E0BB1257C0AB1255C0E2
:1015700069817A816B5F7F4F0088F189E02D83015B
:1015800028E030E0A401898D9A8D0995A98DBA8D46
:10159000ED91FC9111970688F789E02DCD016A96AF
:1015A0000FB6F894DEBF0FBECDBFDF91CF911F9174
:1015B0000F91FF90EF90DF90CF90BF90AF909F90F2
:1015C0008F907F906F905F904F903F902F900994F5
:1015D0001E96ED91FC91EF80F88409851A859201A1
:1015E0004D815E816B817C81898D9A8D099590CF2B
:1015F0002F8138852615370509F48ACF31E0B312DB
:1016000007C0A31205C01C96ED91FC91930178CF01
:101610001E96ED91FC917301E0CF6B857C8564197A
:1016200075090684F785E02D73010F8518899201ED
:10163000A401898D9A8D0995A9CFF90134969491C9
:10164000329745915491D91AB7E0DB9E400D511D58
:101650001124F901259134913C8B2B8BFA012590B3
:101660003490FA013296749031963491398B3296D7
:1016700064903196449041E04C1518F04A1508F0FA
:101680007FC0662D062C000C770B7C836B83842D2A
:10169000042C000C990B9E838D83A98DBA8DED913E
:1016A000FC9111970284F385E02DCD010995512C11
:1016B000D12CC12CEA2DF0E0FA87E9872B2D30E000
:1016C0003C872B87A401440D511D47FC5A95588F28
:1016D0004F8B69817A81660D711D67FC7A957E87D3
:1016E0006D877989C71608F051CF2C2D30E04D81D8
:1016F0005E81420F531FA985BA854A9FC0014B9F47
:10170000900D5A9F900D1124FC01E80DF91DF88BE6
:10171000EF87852D612C4F89588D420F531F5E8BAB
:101720004D8B671408F050C044244394480E8770D2
:1017300041F4C1010196EB89FC89E20DF31DD490BF
:101740001C01D7FE19C0A98DBA8DED91FC91662DB3
:1017500070E0B1E0BB1219C0AB1217C02D853E85F9
:10176000620F731F0484F585E02D2F8138854D8924
:101770005E89898D9A8D0995DD0C6394842DD1CF76
:101780001E821D821C821B8288CF4B815C81640F6C
:10179000751FAB85BC856A9FC0016B9F900D7A9FBA
:1017A000900D112469817A81680F791F0684F7856D
:1017B000E02DEF80F88409851A859D014F855889B1
:1017C000898D9A8D0995D8CF570CC3948ACF6A9684
:1017D0000FB6F894DEBF0FBECDBFDF91CF911F9142
:1017E0000F91FF90EF90DF90CF90BF90AF909F90C0
:1017F0008F907F906F905F904F903F902F900895C3
:101800008F929F92AF92CF92EF92FF920F931F937E
:10181000CF93DF93EC01262F898D9A8D009709F0E5
:1018200051C06A30D1F41D861C868D8948E0849FA2
:10183000900111248E859F85820F931F9F878E872D
:1018400081E090E0DF91CF911F910F91FF90EF9099
:10185000CF90AF909F908F9008956D3089F3CC8892
:10186000AD888F898823C1F08C859D8536E0C39E25
:10187000800D911D1124488559854817590764F436
:101880004E855F851D861C8638E0A39EC00111240D
:10189000840F951F9F878E87EA88FB88088919899E
:1018A0004E855F856C857D85CE010E94DB092C8984
:1018B0008C859D8546E0249F800D911D11249D8778
:1018C0008C87BECF6A3069F41D861C86FC01389671
:1018D000E4912D898E859F85E29F800D911D1124B5
:1018E000ADCF6D3009F4ACCFFC0134963491631761
:1018F00008F4A6CF3296E491E61708F4A1CFFC01D4
:10190000329685909490462F431B342F47E0349FA6
:10191000800C911C1124F401329634913196E4919B
:101920003323A9F1EE2399F1CC88F4013596E491A3
:10193000AD884F89442301F10E2E000CFF0BE30FFD
:10194000F11DCE9EA001CF9E500D11246C857D858A
:10195000460F571F68857985641775076CF44E85A7
:101960005F851D861C86FC013896E491AE9E400D75
:10197000511D11245F874E87EA88FB8808891989E1
:101980004E855F856C857D85CE010E94DB09F40163
:101990003496E4912C898C859D85E29F800D911D64
:1019A00011248DCF6F927F928F929F92AF92BF92B0
:1019B000CF92DF92EF92FF920F931F93CF93DF931B
:1019C000EC016B015A0139014801E881F981028477
:1019D000F385E02D0995E881F9810288F389E02DEE
:1019E00087019301A501B601CE010995A501480D16
:1019F000591D41505109E881F9810288F389E02D90
:101A00009301B601CE010995E881F9810088F18939
:101A1000E02D9401A501B601CE010995C60CD71C95
:101A2000B60161507109E881F9810088F189E02DE2
:101A30009401A501CE010995E881F9810688F7890D
:101A4000E02DCE01DF91CF911F910F91FF90EF908C
:101A5000DF90CF90BF90AF909F908F907F906F90CE
:101A600009946F927F928F929F92AF92BF92CF9282
:101A7000DF92EF92FF920F931F93CF93DF935C015E
:101A8000EB016A01490138018701DC01ED91FC910C
:101A90006217730719F5641675062CF0962D872DBD
:101AA0003A01C92ED82E9601261937092F5F3F4FCC
:101AB000048CF58DE02DA301BE01C5010995DF91D0
:101AC000CF911F910F91FF90EF90DF90CF90BF903B
:101AD000AF909F908F907F906F9008954615570517
:101AE00091F42617370724F0892D4B01C22FD82FE8
:101AF0009E01281939092F5F3F4F068CF78DE02D85
:101B0000A601B401DACF0284F385E02D0995D50151
:101B1000ED91FC910488F589E02D83019401A601E3
:101B2000BE01C5010995D501ED91FC910688F789A3
:101B3000E02DC501DF91CF911F910F91FF90EF90A4
:101B4000DF90CF90BF90AF909F908F907F906F90DD
:101B50000994EF92FF920F931F93DC011A960D9157
:101B60001C911B9718962D913C911997ED91FC9122
:101B700000A0F1A1E02D7B0150E040E070E060E0CA
:101B800009951F910F91FF90EF9008954F925F92EA
:101B90006F927F928F929F92AF92BF92CF92DF927D
:101BA000EF92FF920F931F93CF93DF936C012B0162
:101BB0005A0139014801DC01ED91FC910284F38561
:101BC000E02D0995E201640C751CD601ED91FC91A4
:101BD000C615D7055CF40088F189E02D87019401D2
:101BE000A501BE01C60109952196EFCF0688F789A8
:101BF000E02DC601DF91CF911F910F91FF90EF90E3
:101C0000DF90CF90BF90AF909F908F907F906F901C
:101C10005F904F9009948F929F92AF92BF92CF9214
:101C2000DF92EF92FF920F931F93CF93DF93EC011C
:101C30005B014A016901E881F9810284F385E02DA5
:101C4000099595012C0D3D1D21503109E881F9813F
:101C50000488F589E02D78018401A401B501CE0145
:101C60000995E881F9810688F789E02DCE01DF9199
:101C7000CF911F910F91FF90EF90DF90CF90BF9089
:101C8000AF909F908F9009948F929F92AF92BF9246
:101C9000CF92DF92EF92FF920F931F93CF93DF9338
:101CA000EC015B014A0169017801E881F981028454
:101CB000F385E02D0995C80CD91C86010150110946
:101CC000E881F9810488F589E02D9501A401B50129
:101CD000CE010995E881F9810688F789E02DCE01CA
:101CE000DF91CF911F910F91FF90EF90DF90CF90F8
:101CF000BF90AF909F908F900994EF92FF920F93B7
:101D00001F93DC01ED91FC9100A0F1A1E02D09955C
:101D10001F910F91FF90EF9008950F931F93DC0197
:101D2000ED91FC91068CF78DE02D09951F910F9197
:101D300008950F931F93DC01ED91FC91048CF58DB8
:101D4000E02D09951F910F910895DC01ED91FC9113
:101D50000084F185E02D09943F924F925F926F923B
:101D60007F928F929F92AF92BF92CF92DF92EF922B
:101D7000FF920F931F93CF93DF935C017B014A0186
:101D80006901390187E0680E711C93E075946794CE
:101D90009A95E1F72B01400E511E10E000E0312C26
:101DA000D0E0C0E0CE0187709927330C892B59F41D
:101DB000FE0183E0F595E7958A95E1F7E00FF11FC5
:101DC000E80DF91D349037FE0AC021E030E0A7018C
:101DD000B5016C0F7D1F84EE92E00E94A50E219646
:101DE000CC16DD06F9F68FEFE81AF80A060D171D76
:101DF000E414F504A9F6DF91CF911F910F91FF90A4
:101E0000EF90DF90CF90BF90AF909F908F907F909A
:101E10006F905F904F903F9008952F923F924F9216
:101E20005F926F927F928F929F92AF92BF92CF926A
:101E3000DF92EF92FF920F931F93CF93DF9300D027
:101E400000D000D0CDB7DEB73C016A013E832D83C0
:101E5000FC82EB825801A41AB50AB7FE03C0B19404
:101E6000A194B1088D809E80861A970A97FE03C0C0
:101E70009194819491088A149B045CF0902F812F97
:101E80000D811E819D838E839C2D8D2D6B01692F6D
:101E9000782F0C151D055CF09D818E817E836D83EE
:101EA000692F782F902F812F8601C92ED82E1601E9
:101EB000201A310A2B012D813E81421A530A57FE06
:101EC00003C0519441945108710137FE03C03FEFA4
:101ED000E31AF30AF594E7948D819E81861797079C
:101EE0005CF5A1E0B0E0BA83A983C016D1064CF13D
:101EF000D301ED91FC910484F585E02D2B813C818B
:101F0000A8016D817E818A149B041CF04D815E8145
:101F1000B801C3010995E418F508F7FE0AC02D8140
:101F20003E8189819A81280F391F3E832D83E20CDF
:101F3000F31C0F5F1F4FD9CF2FEF3FEF3A83298359
:101F4000D4CF26960FB6F894DEBF0FBECDBFDF917B
:101F5000CF911F910F91FF90EF90DF90CF90BF90A6
:101F6000AF909F908F907F906F905F904F903F9039
:101F70002F900895089520919D01260F3327331F38
:101F800021323105ECF42091E601FC0190E080E083
:101F9000243069F082E00895A0919D012191AC0167
:101FA00043585E4FA40FB52FB11D2C930196861791
:101FB00098F380919D01680F60939D0180E00895E2
:101FC00081E008951092E60181E08093E50110928E
:101FD000E00161E082E10E947A0561E083E10E9414
:101FE0007A05E9EBF0E080818E7F808380818D7FB0
:101FF000808388E48093B80085E48093BC000895D2
:10200000CF93DF9391E090937C018823B9F0C09146
:10201000B800D091BA008091BC008A7B8093BC004C
:1020200060E082E10E947A0560E083E10E947A0527
:102030000E94E20FD093BA00C093B800DF91CF9115
:102040000895E091120280911102E81730F4F0E057
:10205000E451FE4F808190E008958FEF9FEF089547
:1020600090911202809111022FEF3FEF981748F4E0
:10207000E92FF0E0E451FE4F208130E09F5F909324
:102080001202C9010895CF92DF92EF92FF920F934F
:102090001F93CF93DF937C01CB018A0120912B0208
:1020A000222389F0EB016B01C40ED51ECC15DD0592
:1020B00069F06991D701ED91FC910190F081E02DDB
:1020C000C7010995F3CF642F0E94BB0FC801DF91B0
:1020D000CF911F910F91FF90EF90DF90CF900895D7
:1020E000CF93DF931F92CDB7DEB7698320912B0288
:1020F0002223F9F020912802203258F021E030E02C
:10210000FC013383228390E080E00F90DF91CF9138
:10211000089580912902E82FF0E0E45AFE4F99815A
:1021200090838F5F809329028093280281E090E062
:10213000ECCF61E0CE0101960E94BB0FF7CFCF92AA
:10214000DF92EF92FF920F931F93CF93DF93D09183
:10215000280281E0D13208F09CC0C0912A020E947E
:10216000F7056B017C018091E60181116CC082E072
:102170008093E60181E08093E5018FEF8093E40195
:102180001092E301D093E201ACE5B1E0E0ECF1E0C4
:1021900080E0D8138DC01092E1018091E101CC0F55
:1021A000C82BC093E1018091E001813009F084C027
:1021B0001092E0010E94F7056B017C018091E10122
:1021C0008093BB008091E8019091E901A091EA0120
:1021D000B091EB01892B8A2B8B2BA1F00E94F70584
:1021E0000091E8011091E9012091EA013091EB01A1
:1021F0006C197D098E099F090617170728073907EB
:1022000008F442C08091BC0083FDD8CF85EC809358
:10221000BC000E94F7056B017C018091E6018230D1
:1022200009F44CC08091E4018F3F09F469C08091AA
:10223000E401803209F466C08091E401803309F43E
:1022400063C084E026C08091E8019091E901A091EB
:10225000EA01B091EB01892B8A2B8B2B09F483CFF8
:102260000E94F7050091E8011091E9012091EA012F
:102270003091EB016C197D098E099F09061717072C
:102280002807390708F06FCF8091E7010E940010FE
:1022900085E0109229021092280210922B02DF9101
:1022A000CF911F910F91FF90EF90DF90CF90089505
:1022B0009D9191938F5F6DCF85EEA9CF8091E801BD
:1022C0009091E901A091EA01B091EB01892B8A2B51
:1022D0008B2B09F4A2CF0E94F7050091E801109121
:1022E000E9012091EA013091EB016C197D098E0919
:1022F0009F09061717072807390708F08ECFC4CFA4
:1023000080E0C7CF82E0C5CF83E0C3CFCF93DF9318
:10231000EA0191E090932B0280932A021092290205
:102320001092280288ED92E00E947010688188ED7A
:1023300092E00E94701088ED92E00E949F1091E060
:10234000811190E0892FDF91CF910895EF92FF9254
:102350000F931F93CF93DF937C01C62F80910103CE
:1023600090910203009709F459C02091050331E0D0
:1023700030932B0220932A021092290210922802F5
:10238000DC01ED91FC910190F081E02D60E0099578
:102390008701EE24E394F12CD1E0C1508091010338
:1023A00090910203CF3F91F1B0E2EB16F104D8F027
:1023B0000E949F10809101039091020320910503D8
:1023C000D0932B0220932A02109229021092280205
:1023D000DC01ED91FC910190F081E02D60E0099528
:1023E000EE24E394F12C8091010390910203F80113
:1023F0006491DC01ED91FC910190F081E02D099553
:10240000BFEFEB1AFB0A0F5F1F4FC7CFDF91CF91D2
:102410001F910F91FF90EF900C949F10E09111038A
:10242000F091120390818091170380958923808316
:102430008701C15008F438C0F80184912091FF024F
:1024400030910003232B29F00E94BB090F5F1F4F1F
:10245000F0CF28E030E040E8E0910D03F0910E036A
:1024600090911503582F5423D9F05081952B9083C8
:10247000E0910F03F0911003908150911603952B7A
:102480009083E0910F03F091100350819091160317
:10249000909595239083469521503109E9F6D6CF42
:1024A000508190959523E3CFDF91CF911F910F91AC
:1024B000FF90EF9008951F93CF93DF93EC018D8DE4
:1024C0009E8D009721F1162F29A131E030932B0228
:1024D00020932A021092290210922802DC01ED9129
:1024E000FC910190F081E02D60E009958D8D9E8D2D
:1024F000DC01ED91FC910190F081E02D612F0995B7
:102500008D8D9E8DDF91CF911F910C949F10ADA565
:10251000BEA59C918BA9809589238C938B8D9C8DD6
:10252000892B31F0862FDF91CF911F910C94BB093D
:1025300028E030E080E8A9A5BAA599A9462F48234C
:10254000C1F04C91942B9C93ABA5BCA59C914AA93E
:10255000942B9C93ABA5BCA54C919AA990959423E0
:102560009C9386952150310931F7DF91CF911F91CE
:1025700008954C9190959423E6CF1F93CF93DF93CA
:10258000EC01162F8D8D9E8D892BB1F12DA93EA9C1
:102590004FA958AD60E074E284EF90E00E94161DF0
:1025A000205131094109510956954795379527958D
:1025B0002093B80066EA111167EACE010E945B120F
:1025C0008D8D9E8D892B41F129AD3AAD4BAD5CAD22
:1025D00060E074E284EF90E00E94161D2051310902
:1025E0004109510956954795379527952093B8008D
:1025F000DF91CF911F9108958B8D9C8D892B21F0B8
:102600008EAD9FAD0E94C209EFA5F8A990818CA95B
:10261000809589238083CECFEFA5F8A980819CA9DE
:10262000892B8083E5CF90E080E008952F923F9240
:102630004F925F926F927F928F929F92AF92BF92D2
:10264000CF92DF92EF92FF920F931F93CF93DF937E
:10265000CDB7DEB72B970FB6F894DEBF0FBECDBF58
:10266000D82EC62EF42E3D832C8318018FB7F894F4
:10267000409020025090210260902202709023022C
:102680008FBF2D2D220F2B83142FE12C1B8601E0F1
:1026900050E05A834983C101B0E0A0E08E839F835C
:1026A000A887B98700932B02D0922A0210922902A0
:1026B000109228026C2D88ED92E00E94701088ED37
:1026C00092E00E949F100E94F7054B015C018091EF
:1026D000E60181116DC01A87113210F090E29A87DD
:1026E0000093E6010093E501AFEFA093E40110929F
:1026F000E3018A8581508093E2010093E10180919A
:10270000E101BB818B2B8093E1018091E00181305D
:1027100009F092C01092E0010E94F7054B015C01A4
:102720008091E1018093BB008091E8019091E901E3
:10273000A091EA01B091EB01892B8A2B8B2BA1F0A0
:102740000E94F7052091E8013091E9014091EA01EA
:102750005091EB01681979098A099B0926173707F7
:102760004807590708F445C08091BC0083FDD8CFC5
:1027700025EC2093BC000E94F7054B015C01809181
:10278000E601813009F45CC08091E3014A85841739
:1027900018F45091E3015A87A0ECB1E0ECEEF1E0BF
:1027A00080E09A85891751F19D9191938F5FF9CFC0
:1027B0008091E8019091E901A091EA01B091EB01CB
:1027C000892B8A2B8B2B09F482CF0E94F70520914D
:1027D000E8013091E9014091EA015091EB0168195B
:1027E00079098A099B09261737074807590708F00E
:1027F0006ECF8091E7010E9400101A86109212029B
:10280000AA85A0931102909111028091120298174B
:1028100009F451C021143104A9F588ED92E00E9419
:102820003010EC81FD81BB85EB0FF11DB7FDFA95F2
:102830008083BF5FBB87E7CF35EE3093BC009BCF73
:102840008091E8019091E901A091EA01B091EB013A
:10285000892B8A2B8B2B09F492CF0E94F7052091AC
:10286000E8013091E9014091EA015091EB016819CA
:1028700079098A099B09261737074807590708F07D
:102880007ECFB7CF2FB7F89480912002909121028C
:10289000A0912202B09123022FBF84199509A609A5
:1028A000B7092E813F814885598582179307A40770
:1028B000B50708F4B2CFEF0C1F19EF1408F4F2CEED
:1028C0002114310411F18FB7F894409120025091F6
:1028D000210260912202709123028FBF4419550991
:1028E00066097709C101B0E0A0E0481759076A07F7
:1028F0007B0758F03B85832F330F990B49815A8111
:102900008417950714F45FEF5B878B852B960FB6C2
:10291000F894DEBF0FBECDBFDF91CF911F910F9115
:10292000FF90EF90DF90CF90BF90AF909F908F90EF
:102930007F906F905F904F903F902F900895BF923F
:10294000CF92DF92EF92FF920F931F93CF93DF937B
:1029500000D0CDB7DEB7F82EE62EC42EB22ED02E84
:1029600008EE13E09E012E5F3F4F41E00E941613D8
:10297000882399F18C2D8B19990BAC014F5F5F4F18
:1029800081E090E002C0880F991FBA94E2F70197A6
:10299000042E01C0880F0A94EAF70D2D01C0000F24
:1029A0004A95EAF7982F90952A8192238023892BC4
:1029B0008A838983AE014F5F5F4F6E2D8F2D0E94FA
:1029C00086110F900F90DF91CF911F910F91FF9083
:1029D000EF90DF90CF90BF90089580E0F2CF2091EC
:1029E000EA023091EB02C901079697FD079623E0B2
:1029F000959587952A95E1F72091E8023091E902B3
:102A0000829FA001839F500D929F500D112470E072
:102A100060E080910303909104030C94681E0E946F
:102A2000631EFB0101900020E9F73197AF01461BBF
:102A3000570BDC01ED91FC910280F381E02D0994AC
:102A40008F929F92AF92BF92CF92DF92EF92FF92BE
:102A50000F931F93CF93DF93CDB7DEB7A1970FB638
:102A6000F894DEBF0FBECDBF6B017C01F7FE43C003
:102A70006DE284EE92E00E94000C8C012227332745
:102A8000A9012C193D094E095F0919A2CE018196B1
:102A90007C019AE0892E912CA12CB12CCA01B9019C
:102AA000A50194010E94161D605DF70162937F01EC
:102AB000211531054105510589F790E080E03097F7
:102AC00029F0BF0184EE92E00E941115800F911F42
:102AD000A1960FB6F894DEBF0FBECDBFDF91CF91A8
:102AE0001F910F91FF90EF90DF90CF90BF90AF902C
:102AF0009F908F900895AC019B0119A28E010F5DEC
:102B00001F4F8AE0C82ED12CE12CF12CCA01B9014B
:102B1000A70196010E94161D605DF80162938F0166
:102B2000211531054105510589F790E080E0309786
:102B300079F2BF0184EE92E00E941115C9CF85EDB4
:102B40008093BC008091E8019091E901A091EA0195
:102B5000B091EB010796A11DB11D23E0B695A79595
:102B6000979587952A95D1F72091BC0024FD03C045
:102B70001092E60108954091E8015091E9016091B9
:102B8000EA017091EB01452B462B472B69F3009727
:102B9000A105B10541F02AE22A95F1F700C001979D
:102BA000A109B109E1CF8091E7010C9400101F92B7
:102BB0000F920FB60F9211242F933F938F939F93F1
:102BC000AF93BF938091200290912102A0912202A5
:102BD000B091230230911F0223E0230F2D3758F5C7
:102BE0000196A11DB11D20931F0280932002909396
:102BF0002102A0932202B09323028091240290919B
:102C00002502A0912602B09127020196A11DB11DB7
:102C10008093240290932502A0932602B09327026A
:102C2000BF91AF919F918F913F912F910F900FBEC8
:102C30000F901F90189526E8230F0296A11DB11D35
:102C4000D2CF1F920F920FB60F9211242F933F9362
:102C50004F935F936F937F938F939F93AF93BF93A4
:102C6000EF93FF938CE292E00E94CE06FF91EF91EA
:102C7000BF91AF919F918F917F916F915F914F9194
:102C80003F912F910F900FBE0F901F9018951F929C
:102C90000F920FB60F9211242F938F939F93EF9360
:102CA000FF93E0913C02F0913D028081E09142026D
:102CB000F091430282FD1BC09081809145028F5F9D
:102CC0008F7320914602821741F0E0914502F0E0B7
:102CD000E45DFD4F958F80934502FF91EF919F91A9
:102CE0008F912F910F900FBE0F901F90189580819C
:102CF000F4CF1F920F920FB60F9211242F933F9390
:102D00004F935F936F937F938F939F93AF93BF93F3
:102D1000EF93FF938091B900887F803609F44AC011
:102D2000F0F5883209F4A7C018F5803109F49BC08A
:102D3000B8F4882309F4F9C0883009F494C0FF91ED
:102D4000EF91BF91AF919F918F917F916F915F9123
:102D50004F913F912F910F900FBE0F901F9018959C
:102D6000883109F488C0803251F78093E40114C09F
:102D7000803409F49DC040F48033B9F38833F9F608
:102D80008093E40185ECB0C0803509F485C08835B6
:102D900009F496C0883499F60E949F15D0CF8839DF
:102DA00009F48CC038F5883729F050F4883611F0D2
:102DB000803729F683E08093E6011092BF0157C067
:102DC000883809F47BC0803919F0803809F0B7CF12
:102DD0008091BF01803208F071C0E091BF0181E0B5
:102DE0008E0F8093BF018091BB00F0E0E156FE4F53
:102DF00080833DC0803B39F0E0F4803A09F479C02B
:102E0000883A09F09CCF84E08093E60110929E01FD
:102E100010929D01E0910F02F091100209958091AE
:102E20009D0181110FC081E080939D0110927D0171
:102E300009C0803C09F4A6CF883C09F4A3CF883BA5
:102E400009F07DCFE0919E0181E08E0F80939E017D
:102E5000F0E0E358FE4F80818093BB0090919E018B
:102E600080919D0129C08091E1018093BB0085EC98
:102E70008093BC0064CF9091E3018091E2019817A8
:102E800058F5E091E30181E08E0F8093E301F0E0DB
:102E9000E054FE4F8081E9CFE091E30181E08E0FA5
:102EA0008093E3018091BB00F0E0E054FE4F80830B
:102EB0009091E3018091E2019817C8F285E8D8CF9C
:102EC000E091E30181E08E0F8093E3018091BB00EC
:102ED000F0E0E054FE4F80838091E50181115CCFEA
:102EE00081E08093E00184EA8093BC001092E601C7
:102EF00026CF85EC8093BC001092E6018091BF0143
:102F0000803230F4E091BF01F0E0E156FE4F1082D4
:102F10006091BF0170E0E0910D02F0910E028FE927
:102F200091E009951092BF010ACF1092E40134CFCD
:102F3000ECE2F2E01382128248EE53E060E070E0CF
:102F400044835583668377838AE091E0918380830D
:102F500085EC90E09587848784EC90E0978786875E
:102F600080EC90E0918B808B81EC90E0938B828B56
:102F700082EC90E0958B848B86EC90E0978B868B2F
:102F8000118E128E138E148EA8EDB2E013961C9241
:102F90001E92129714964D935D936D937C931797A1
:102FA0008CE191E011969C938E93E4EEF2E0138213
:102FB000128220E830E03583248380E490E0978318
:102FC00086833187208793878287168A15861486A1
:102FD0001786168681E0858B848B2FEF3FEF338B2E
:102FE000228B318B208B878B108E128E118E8EE26E
:102FF00091E091838083148E138EB68FA58F10A2DB
:10300000178E8FEF84A385A386A387A380A780E86C
:103010009AE1A6E0B0E085AB96ABA7ABB0AF80EA93
:1030200096E8A1E0B0E081AF92AFA3AFB4AF80E586
:1030300086AF17AE88E68093C9020895CF93DF93D9
:1030400000D0CDB7DEB7789484B5826084BD84B5F6
:10305000816084BD85B5826085BD85B5816085BD93
:1030600080916E00816080936E001092810080914B
:1030700081008260809381008091810081608093D3
:103080008100809180008160809380008091B100F8
:1030900084608093B1008091B00081608093B00023
:1030A00080917A00846080937A0080917A008260B7
:1030B00080937A0080917A00816080937A00809179
:1030C0007A00806880937A001092C100E0913C02FF
:1030D000F0913D0282E08083E0913802F091390264
:1030E0001082E0913A02F0913B028FEC80831092C3
:1030F0004402E0914002F091410286E08083E09139
:103100003E02F0913F02808180618083E0913E0227
:10311000F0913F02808188608083E0913E02F091CF
:103120003F02808180688083E0913E02F0913F02FF
:1031300080818F7D808361E086E00E94C60561E02A
:1031400087E00E94C60561E088E00E94C60560E055
:1031500084E00E94C6058091030390910403892BAB
:1031600011F10E94EF142091EA023091EB0280915C
:10317000E8029091E902213231050CF04BC0B9010F
:103180006052710977FF02C06F5F7F4F7595679539
:103190008357910997FD019600E210E023E730E0A4
:1031A0004AE855E04AC02091EA023091EB02C90199
:1031B000079697FD0796B3E095958795BA95E1F741
:1031C0002091E8023091E902AC01429FC001439F87
:1031D000900D529F900D11240E943E1D9093040368
:1031E00080930303892B09F0BCCF0AE21AE0F801AF
:1031F0006491662341F08CE292E00E94F0060F5F3A
:103200001F4F892BA1F766E571E08CE292E00E94E6
:103210001115FFCFB9016054710977FF02C06F5FCC
:103220007F4F759567958255910997FD019600E44A
:1032300010E022E530E04AE657E0959587950E9438
:10324000AC0E82E08093060380910103909102030B
:10325000892B09F451C28CE380930503109212026A
:103260001092110210922902109228020E94E20F7D
:103270008EE496E09093100280930F028FE496E024
:1032800090930E0280930D0280910C0387FD1EC067
:1032900061E00E94C60561E080910C030E947A05FE
:1032A00061E070E080E090E00E941C0660E08091A8
:1032B0000C030E947A056AE070E080E090E00E94D2
:1032C0001C0661E080910C030E947A058091010345
:1032D00090910203892B09F4CEC2209119033091F9
:1032E0001A0340911B0350911C0360E074E284EFC9
:1032F00090E00E94161D205131094109510956954F
:103300004795379527952093B80064E086E895E0C7
:103310000E94A6116091EA02615084EE92E00E9440
:103320005B1264E082E895E00E94A611809106039A
:1033300060E1813009F064E184EE92E00E945B126A
:1033400064E08EE795E00E94A6118FE88093210348
:103350008091E8029091E9028038910509F0A4C2B9
:103360008091EA029091EB028034910509F0ACC2A1
:1033700080910603813009F095C28FE98093210383
:1033800012E16AED84EE92E00E945B12612F84EEFE
:1033900092E00E945B1261E884EE92E00E945B1270
:1033A0006091210384EE92E00E945B1269ED84EE4D
:1033B00092E00E945B128091060362E2813009F084
:1033C00061EF84EE92E00E945B1266E088E795E090
:1033D0000E94A6118091010390910203892B09F4A8
:1033E00077C220911D0330911E0340911F0350911D
:1033F000200360E074E284EF90E00E94161D2051EB
:1034000031094109510956954795379527952093DC
:10341000B80081E08093F8028093F90281E090E0A7
:103420009093F7028093F6029093F5028093F40252
:1034300001E023E042E06BE68091C9020E949F1404
:1034400000E022E044E06BE18091C9020E949F14F9
:1034500022E044E06CE18091C9020E949F14F09048
:10346000C90208EE13E09E012E5F3F4F41E06BE67C
:103470008F2D0E9416138A818F7B8A838983AE01E8
:103480004F5F5F4F6BE68F2D0E948611412C74E2D7
:10349000572E74EF672E712CE0E0AE2EE0E0BE2ECA
:1034A0009924939408EE13E02AEC32E04EE06BE3AB
:1034B0008091C9020E9416138091CA029091CB029A
:1034C00098278927982790931E0280931D02809148
:1034D000CC029091CD0298278927982790931C02BF
:1034E00080931B028091CE029091CF02982789276A
:1034F000982790931A02809319028091D20290919A
:10350000D30298278927982790931802809317024F
:103510008091D4029091D50298278927982790937B
:103520001602809315028091D6029091D7029827B7
:103530008927982790931402809313020E94EF1416
:103540001092F1021092F0021092F3021092F20225
:1035500060911D0270911E02072E000C880B990BC2
:103560000E94201569E571E084EE92E00E94111539
:1035700060911B0270911C02072E000C880B990BA6
:103580000E94201569E571E084EE92E00E94111519
:103590006091190270911A02072E000C880B990B8A
:1035A0000E94201566E571E084EE92E00E941115FC
:1035B0001092F1021092F0021092F3021092F202B5
:1035C0008091010390910203892B09F48BC1209112
:1035D000190330911A0340911B0350911C03C3013E
:1035E000B2010E94161D2051310941095109569519
:1035F0004795379527952093B80065E084E49AE0D5
:103600000E94A6116091E802615084EE92E00E944F
:103610005B122091EA023091EB02C901079697FDF7
:10362000079633E0959587953A95E1F72091E80262
:103630003091E902829F7001839FF00C929FF00C01
:1036400011240091030310910403809101039091D0
:103650000203E00EF11E009709F48CC120910503CE
:1036600090922B0220932A02109229021092280293
:10367000DC01ED91FC910190F081E02D60E4099571
:10368000CC24C394D12C80910103909102030E1598
:103690001F0509F43EC1B0E2CB16D104D8F00E9458
:1036A0009F10809101039091020320910503909255
:1036B0002B0220932A021092290210922802DC0188
:1036C000ED91FC910190F081E02D60E40995CC240E
:1036D000C394D12C8091010390910203F801619170
:1036E0008F01DC01ED91FC910190F081E02D0995B5
:1036F000BFEFCB1ADB0AC7CF61E080910A030E94BB
:10370000C60561E080910B030E94C60580910A0303
:10371000082E000C990BFC01E35AF54FE491F0E000
:10372000EE0FFF1FED5AF54F2591349130931203A0
:1037300020931103FC01EF58F54FE491E093170338
:1037400080910B03082E000C990BFC01E35AF54FF6
:10375000E491F0E0EE0FFF1FED5AF54FA591B49103
:10376000B0931403A0931303FC01EF58F54FE491B9
:10377000E09318038C91E82BEC938091FF029091D9
:103780000003892B09F434C01FB7F89480910C0210
:10379000811127C0E7E6FAE08491EBE7FAE0949123
:1037A000E82FF0E0EE0FFF1FE75BF54FA591B49116
:1037B000EC91E92321F461E08AE00E947A0561E05E
:1037C0008AE00E94C6058CB580618CBD8CB5806492
:1037D0008CBD61E08DE00E94C60561E08BE00E9437
:1037E000C60580910C028F5F80930C021FBF4CCDE9
:1037F00061E0809108030E94C60561E080910903A1
:103800000E94C60580910803082E000C990BFC014C
:10381000E35AF54FE491F0E0EE0FFF1FED5AF54F3C
:103820002591349130930E0320930D03FC01EF5842
:10383000F54FE491E093150380910903082E000CE5
:10384000990BFC01E35AF54FE491F0E0EE0FFF1FF6
:10385000ED5AF54FA591B491B0931003A0930F03C7
:10386000FC01EF58F54FE491E09316038C91E0953D
:10387000E823EC9309CD8091FF0290910003892BFE
:1038800031F080912203909123030E94C209E091BC
:103890001303F0911403908180911803809589237C
:1038A000808333CD8FEC6ACD8036910569F48091A9
:1038B000EA029091EB02409739F48091060381303F
:1038C00029F480E18093210312E05BCD8FEAFACFE7
:1038D000E0911303F0911403808190911803892BD8
:1038E000808397CD8091FF0290910003892B31F066
:1038F00080912203909123030E94C209E091130357
:10390000F09114039081809118038095892380831E
:1039100074CE0E949F108091010390910203892B25
:1039200009F46BC020911D0330911E0340911F03C9
:1039300050912003C301B2010E94161D205131098C
:103940004109510956954795379527952093B80019
:1039500060ED77E080E090E00E941C06A114B104C5
:1039600009F4A0CD0E94BA06882309F49BCD0E94D9
:10397000000098CDE0911103F091120380819091A5
:103980001703892B80830E151F0529F2F8018191F9
:103990008F012091FF0230910003232B19F00E9428
:1039A000BB09F1CF28E030E040E8E0910D03F09151
:1039B0000E0390911503542F5823D9F05081952B65
:1039C0009083E0910F03F0911003908150911603C2
:1039D000952B9083E0910F03F0911003508190910B
:1039E0001603909595239083469521503109E9F669
:1039F000CACF508190959523E3CFE0911303F091C6
:103A00001403808190911803892B8083A1CF8EE2CB
:103A100091E09093E5028093E402809103039091FA
:103A20000403009711F00C94DA1D0895A1E21A2EF8
:103A3000AA1BBB1BFD010DC0AA1FBB1FEE1FFF1F52
:103A4000A217B307E407F50720F0A21BB30BE40BA2
:103A5000F50B661F771F881F991F1A9469F76095E9
:103A60007095809590959B01AC01BD01CF010895A3
:103A7000EE0FFF1F0590F491E02D09940F931F9313
:103A8000CF93DF938230910510F482E090E0E091D3
:103A90002603F091270330E020E0B0E0A0E030976B
:103AA00099F42115310509F44AC0281B390B24303B
:103AB0003105D8F58A819B816115710589F1FB017A
:103AC00093838283FE0111C0408151810281138161
:103AD00048175907E0F04817590799F4109761F013
:103AE00012960C93129713961C933296CF01DF9186
:103AF000CF911F910F9108950093260310932703F0
:103B0000F4CF2115310551F04217530738F0A901C0
:103B1000DB019A01BD01DF01F801C1CFEF01F9CF4F
:103B20009093270380932603CDCFFE01E20FF31F6E
:103B3000819391932250310939832883D7CF2091E3
:103B4000240330912503232B41F42091020130916D
:103B50000301309325032093240320910001309129
:103B600001012115310541F42DB73EB74091040103
:103B700050910501241B350BE0912403F09125039E
:103B8000E217F307A0F42E1B3F0B2817390778F034
:103B9000AC014E5F5F4F2417350748F04E0F5F1F93
:103BA0005093250340932403819391939FCFF0E09A
:103BB000E0E09CCFCF93DF930097E9F0FC013297D0
:103BC00013821282A0912603B0912703ED0130E009
:103BD00020E01097A1F420813181820F931F209162
:103BE0002403309125032817390709F061C0F093A9
:103BF0002503E0932403DF91CF910895EA01CE17C6
:103C0000DF07E8F54A815B819E0141155105B1F757
:103C1000E901FB83EA8349915991C40FD51FEC1741
:103C2000FD0761F4808191810296840F951FE9015F
:103C300099838883828193819B838A83F0E0E0E08B
:103C400012968D919C9113970097B9F52D913C9107
:103C50001197CD010296820F931F2091240330917A
:103C600025032817390739F6309751F510922703A5
:103C700010922603B0932503A0932403BCCFD383D3
:103C8000C28340815181840F951FC817D90761F401
:103C90004E5F5F4F88819981480F591F5183408340
:103CA0008A819B81938382832115310509F0B0CFEE
:103CB000F0932703E09326039ECFFD01DC01C0CFE4
:103CC00013821282D7CF81E090E0F8940C946F1E9B
:103CD000DC0101C06D9341505040E0F7089515E0BC
:103CE000CEE4D5E004C0FE010E94381D2196CF34F9
:103CF000D107C9F7F894FFCF000028038000000027
:103D00000000F00650067D063D07AE068C06A006B4
:103D10000000000070104310131379055D07301088
:103D2000211000000000000C50061313BA0F0B09FD
:103D30007905A50E7D0E990E8D0E0D0F7905C6091C
:103D4000BD127B08C408C60DA90D310DD20C0D0A99
:043D5000002C000043
:107E0000112484B714BE81FFF0D085E080938100F7
:107E100082E08093C00088E18093C10086E0809377
:107E2000C20080E18093C4008EE0C9D0259A86E02C
:107E300020E33CEF91E0309385002093840096BBD3
:107E4000B09BFECF1D9AA8958150A9F7CC24DD24C4
:107E500088248394B5E0AB2EA1E19A2EF3E0BF2EE7
:107E6000A2D0813461F49FD0082FAFD0023811F036
:107E7000013811F484E001C083E08DD089C08234E0
:107E800011F484E103C0853419F485E0A6D080C0E4
:107E9000853579F488D0E82EFF2485D0082F10E0AE
:107EA000102F00270E291F29000F111F8ED06801E7
:107EB0006FC0863521F484E090D080E0DECF843638
:107EC00009F040C070D06FD0082F6DD080E0C81688
:107ED00080E7D80618F4F601B7BEE895C0E0D1E017
:107EE00062D089930C17E1F7F0E0CF16F0E7DF06D8
:107EF00018F0F601B7BEE89568D007B600FCFDCFD4
:107F0000A601A0E0B1E02C9130E011968C91119780
:107F100090E0982F8827822B932B1296FA010C0160
:107F200087BEE89511244E5F5F4FF1E0A038BF0790
:107F300051F7F601A7BEE89507B600FCFDCF97BE46
:107F4000E89526C08437B1F42ED02DD0F82E2BD052
:107F50003CD0F601EF2C8F010F5F1F4F84911BD097
:107F6000EA94F801C1F70894C11CD11CFA94CF0C13
:107F7000D11C0EC0853739F428D08EE10CD085E9AC
:107F80000AD08FE07ACF813511F488E018D01DD067
:107F900080E101D065CF982F8091C00085FFFCCF94
:107FA0009093C60008958091C00087FFFCCF809118
:107FB000C00084FD01C0A8958091C6000895E0E648
:107FC000F0E098E1908380830895EDDF803219F02E
:107FD00088E0F5DFFFCF84E1DECF1F93182FE3DFCA
:107FE0001150E9F7F2DF1F91089580E0E8DFEE27F6
:047FF000FF270994CA
:027FFE00040479
:00000001FF
