:020000040000FA
:100000000C9454050C947C050C947C050C947C0594
:100010000C947C050C947C050C947C050C947C055C
:100020000C947C050C947C050C947C050C947C054C
:100030000C947C050C947C050C947C050C947C053C
:100040000C9493160C947C050C9403170C94DD16F9
:100050000C947C050C947C050C947C050C947C051C
:100060000C9435170C947C0500000000003E5B4F9B
:100070005B3E3E6B4F6B3E1C3E7C3E1C183C7E3C08
:10008000181C577D571C1C5E7F5E1C00183C180016
:10009000FFE7C3E7FF0018241800FFE7DBE7FF30A6
:1000A000483A060E2629792926407F050507407F14
:1000B00005253F5A3CE73C5A7F3E1C1C08081C1C87
:1000C0003E7F14227F22145F5F005F5F06097F017D
:1000D0007F006689956A606060606094A2FFA29468
:1000E00008047E040810207E201008082A1C080836
:1000F0001C2A08081E101010100C1E0C1E0C303884
:100100003E3830060E3E0E06000000000000005F84
:1001100000000007000700147F147F14242A7F2AA0
:100120001223130864623649562050000807030062
:10013000001C2241000041221C002A1C7F1C2A08AE
:10014000083E080800807030000808080808000011
:1001500060600020100804023E5149453E00427F85
:10016000400072494949462141494D331814127FD4
:100170001027454545393C4A494931412111090774
:100180003649494936464949291E000014000000F5
:1001900040340000000814224114141414140041C7
:1001A00022140802015909063E415D594E7C121184
:1001B000127C7F494949363E414141227F414141BC
:1001C0003E7F494949417F090909013E4141517337
:1001D0007F0808087F00417F41002040413F017FA8
:1001E000081422417F404040407F021C027F7F0470
:1001F00008107F3E4141413E7F090909063E4151B9
:10020000215E7F09192946264949493203017F01A8
:10021000033F4040403F1F2040201F3F4038403FA9
:10022000631408146303047804036159494D4300BF
:100230007F4141410204081020004141417F0402F6
:10024000010204404040404000030708002054548D
:1002500078407F284444383844444428384444286B
:100260007F385454541800087E090218A4A49C78BE
:100270007F0804047800447D40002040403D007F1A
:100280001028440000417F40007C047804787C08FA
:100290000404783844444438FC18242418182424CE
:1002A00018FC7C08040408485454542404043F44B3
:1002B000243C4040207C1C2040201C3C4030403CE2
:1002C00044281028444C9090907C4464544C440042
:1002D00008364100000077000000413608000201A6
:1002E0000204023C2623263C1EA1A161123A404092
:1002F000207A38545455592155557941225454780F
:1003000042215554784020545579400C1E527212A7
:100310003955555559395454545939555454580030
:1003200000457C410002457D420001457C407D1234
:1003300011127DF0282528F07C5455450020545496
:100340007C547C0A097F4932494949323A44444441
:100350003A324A4848303A4141217A3A424020787C
:10036000009DA0A07D3D4242423D3D4040403D3C7D
:1003700024FF2424487E4943662B2FFC2F2BFF09A2
:1003800029F620C0887E0903205454794100004496
:100390007D413048484A32384040227A007A0A0A81
:1003A000727D0D19317D2629292F282629292926F4
:1003B00030484D4020380808080808080808382F39
:1003C00010C8ACBA2F102834FA00007B00000814C3
:1003D0002A142222142A14085500550055AA55AA99
:1003E00055AAFF55FF55FF000000FF00101010FF39
:1003F00000141414FF001010FF00FF1010F010F094
:10040000141414FC001414F700FF0000FF00FF1484
:1004100014F404FC141417101F10101F101F1414D0
:10042000141F00101010F0000000001F101010101A
:100430001F10101010F010000000FF10101010100E
:1004400010101010FF10000000FF140000FF00FF4C
:1004500000001F10170000FC04F4141417101714E8
:1004600014F404F40000FF00F7141414141414140A
:10047000F700F7141414171410101F101F1414147D
:10048000F4141010F010F000001F101F0000001FE7
:1004900014000000FC140000F010F01010FF10FF1A
:1004A000141414FF141010101F00000000F010FFAF
:1004B000FFFFFFFFF0F0F0F0F0FFFFFF0000000093
:1004C00000FFFF0F0F0F0F0F3844443844FC4A4A17
:1004D0004A347E02020606027E027E0263554941CC
:1004E000633844443C04407E201E2006027E020203
:1004F00099A5E7A5991C2A492A1C4C7201724C3017
:100500004A4D4D303048784830BC625A463D3E49ED
:100510004949007E0101017E2A2A2A2A2A44445F91
:10052000444440514A444040444A51400000FF0185
:1005300003E080FF000008086B6B08361236243693
:10054000060F090F060000181800000010100030F8
:1005500040FF0101001F01011E00191D1712003C80
:100560003C3C3C0000000000000103070F1F3F7FE0
:100570000080C0E0F0F8FCFEDB40A4A62EAF200017
:10058000A1C8D300408DAED580A800006000000057
:100590000000000000000000000000E0000000007B
:1005A00000000000000000000001E000000000006A
:1005B000000000000000000001F00000000000004A
:1005C0000000000000000003F00000000000000038
:1005D00000000000000007F0000000000000000024
:1005E000000000000007F80000000000000000000C
:1005F000000000000FF800000003C0007E000001B2
:10060000E0007F0FF800000003C000FE000001E0E2
:1006100000FFEFF800000003C000FE000001E00052
:10062000FFFFF800000003C000F00000000F007F93
:10063000FE7FC0000003C000F00000000F003FFE7E
:100640007FF83FF1FBCFFCFEF3BC3DEFE01FFE7FE8
:10065000FF7FFBFFDFFEFEFFBC3DEFE01FC6FFFF9D
:100660007FFBFFDFFEFEFFBC3DEFE00FE3C7FE7840
:100670007BC3DE1EF0FFBC3DEF0007FF87FC787BED
:10068000C3DE1EF0F83C3DEF0001FFFFF0007BC32E
:10069000C01EF0F03C3DEF0001F37FE03FFBC3CF15
:1006A000FEF0F03C3DEF0003E33F807FFBC3DFFE45
:1006B000F0F03C3DEF0007E73C00787BC3DE1EF026
:1006C000F03C3DEF0007FFBE00787BC3DE1EF0F07C
:1006D0003C3DEF0007FFFE00787BC3DE1EF0F03CE0
:1006E0003DEF000FFFFE007FFBFFDFFEF0F03FFD60
:1006F000EFE00FFFFF007FFBFFDFFEF0F03FFDEFBD
:10070000E00FF9FF003E79F9CF9EF0F01F3DE7E0E2
:100710001FF1FF0000000000000000000000001FAB
:1007200080FF007FFFFFFFFFFFFFFFFFFFE01C00D8
:100730007F007FFFFFFFFEB46D888D18E000001F73
:10074000007FFFFFFFFE95AD7DB577E000000F0055
:100750007FFFFFFFFEA5AD9D8D19E0000006007F25
:10076000FFFFFFFEB5ADEDB57EE00000000000012B
:100770008000000000000000000003800000000076
:10078000000000000007C0000000000000000000A2
:1007900007C00000000000000000000FC0000000C3
:1007A0000000000000001FE000000000000000004A
:1007B000001FE00000000000000000003FE000001B
:1007C000000000000000003FF000000000000000FA
:1007D00000007FF0000000000000001FF87FF00024
:1007E0000000000000003FFE7FF00000000000005D
:1007F000003FFF7FF0000000000000001FFFFBE053
:10080000000000000000000FFFF9FFC00000000022
:1008100000000FFFF9FFF800000000000007FFF1E3
:10082000FFFF00000000000003FC73FFFF800000DA
:1008300000000001FE3FFFFF80000000000000FFFD
:100840001E0FFF000000000000007FFE1FFC0000E4
:1008500000000000003FFFFFF80000000000000063
:100860000FDFFFE0000000000000001F19FFC000C4
:100870000000000000003F3CFF00000000000000FE
:10088000007E7CF800000000000000007FFE7C007D
:1008900000000000000000FFFFFC0000000000005E
:1008A0000000FFFFFE0000000000000000FFFFFE50
:1008B0000000000000000001FFEFFE00000000004B
:1008C000000001FFCFFE0000000000000003FF0752
:1008D000FE0000000000000003FC07FE0000000016
:1008E00000000003F003FE00000000000000018093
:1008F00000FE000000000000000000007E0000007C
:10090000000000000000003E0000000000000000A9
:1009100000000C000000000000078000FC00000345
:10092000C0000000078001FC000003C000000007B9
:100930008001FC000003C0000000078001E000000F
:10094000001E000000078001E00000001E007FE3A1
:10095000F79FF9FDE7787BDFC0FFF7FFBFFDFDFFE5
:10096000787BDFC0FFF7FFBFFDFDFF787BDFC0F0C6
:10097000F787BC3DE1FF787BDE00F0F787BC3DE107
:10098000F0787BDE0000F787803DE1E0787BDE00D9
:100990007FF7879FFDE1E0787BDE00FFF787BFFDF3
:1009A000E1E0787BDE00F0F787BC3DE1E0787BDEBC
:1009B00000F0F787BC3DE1E0787BDE00F0F787BC14
:1009C0003DE1E0787BDE00FFF7FFBFFDE1E07FFB6C
:1009D000DFC0FFF7FFBFFDE1E07FFBDFC07CF3F38B
:1009E0009F3DE1E03E7BCFC0000000000000000022
:1009F000000000FFFFFFFFFFFFFFFFFFFFC0FFFF43
:100A0000FFFFFD68DB111A31C0FFFFFFFFFD2B5A0E
:100A1000FB6AEFC0FFFFFFFFFD4B5B3B1A33C0FFDC
:100A2000FFFFFFFD6B5BDB6AFDC053534431333086
:100A30003620616C6C6F636174696F6E20666169EA
:100A40006C65640000000000240027002A000000FC
:100A50000000250028002B002200FF2100000000DC
:100A600000230026002900040404040404040402F2
:100A7000020202020203030303030301020408103B
:100A80002040800102040810200102040810200008
:100A9000000008000201000003040700000000003D
:100AA000000000005418531C11241FBECFEFD8E0E3
:100AB000DEBFCDBF11E0A0E0B1E0EEEAF2E402C09B
:100AC00005900D92AC39B107D9F723E0ACE9B1E05C
:100AD00001C01D92A135B207E1F715E0C3E5D5E0ED
:100AE00004C02197FE010E94461FC235D107C9F7F5
:100AF0000E94D7180C944A210C940000089583306A
:100B000081F028F4813099F08230A9F0089587307F
:100B1000A9F08830C9F08430B1F4809180008F7DD5
:100B200003C0809180008F7780938000089584B502
:100B30008F7784BD089584B58F7DFBCF8091B00001
:100B40008F778093B00008958091B0008F7DF9CFAA
:100B5000CF93DF93E3E9FAE08491EFE7FAE0D491F1
:100B6000EBE6FAE0C491CC23A1F081110E947F054D
:100B7000EC2FF0E0EE0FFF1FE35AF54FA591B49173
:100B8000EC91ED2381E090E009F480E0DF91CF91DA
:100B9000089580E090E0FACF1F93CF93DF93282F42
:100BA00030E0F901E157F54F8491F901E558F54F2F
:100BB000D491F901E959F54FC491CC23A9F0162F2E
:100BC00081110E947F05EC2FF0E0EE0FFF1FE25B2A
:100BD000F54FA591B4918FB7F894EC91111108C01D
:100BE000D095DE23DC938FBFDF91CF911F910895C5
:100BF000DE2BF8CFCF93DF9390E0FC01E558F54F63
:100C000024918959954FFC0184918823D1F090E07B
:100C1000880F991FFC01EC5BF54FA591B491FC0185
:100C2000E25BF54FC591D49161110EC09FB7F89466
:100C30008C91E22FE0958E238C932881E223E88328
:100C40009FBFDF91CF9108958FB7F894EC91E22B7D
:100C5000EC938FBFF6CF3FB7F894809156029091F6
:100C60005702A0915802B091590226B5A89B05C021
:100C70002F3F19F00196A11DB11D3FBFBA2FA92F1B
:100C8000982F8827BC01CD01620F711D811D911D18
:100C900042E0660F771F881F991F4A95D1F7089584
:100CA0008F929F92AF92BF92CF92DF92EF92FF927C
:100CB0004B015C010E942B066B017C010E942B06FC
:100CC0006C197D098E099F09683E73408105910565
:100CD000A8F321E0821A9108A108B10888EEC80E95
:100CE00083E0D81EE11CF11C81149104A104B1041D
:100CF00029F7FF90EF90DF90CF90BF90AF909F903B
:100D00008F90089508950895AF92BF92CF92DF9289
:100D1000EF92FF920F931F93CF93DF936C017B01B0
:100D20008B01040F151FEB015E01AE18BF08C01741
:100D3000D10759F06991D601ED91FC910190F081B4
:100D4000E02DC6010995892B79F7C501DF91CF9177
:100D50001F910F91FF90EF90DF90CF90BF90AF90D9
:100D60000895FC01538D448D252F30E0842F90E0B1
:100D7000821B930B541710F0CF9608950197089596
:100D8000FC01918D828D981761F0A28DAE0FBF2F5F
:100D9000B11D5D968C91928D9F5F9F73928F90E0B5
:100DA00008958FEF9FEF0895FC01918D828D981724
:100DB00031F0828DE80FF11D858D90E008958FEF61
:100DC0009FEF0895FC01918D228D892F90E0805C2A
:100DD0009F4F821B91098F739927089584E692E0B3
:100DE0000E94E20621E0892B09F420E0822F089579
:100DF00080E090E0892B29F00E94EE0681110C948E
:100E000000000895FC01A48DA80FB92FB11DA35AAD
:100E1000BF4F2C91848D90E001968F739927848F1A
:100E2000A689B7892C93A089B1898C91837080643D
:100E30008C93938D848D981306C00288F389E02DDE
:100E400080818F7D80830895EF92FF920F931F938F
:100E5000CF93DF93EC0181E0888F9B8D8C8D98136D
:100E60001AC0E889F989808185FF15C09FB7F89479
:100E7000EE89FF896083E889F989808183708064C5
:100E800080839FBF81E090E0DF91CF911F910F9110
:100E9000FF90EF900895F62E0B8D10E00F5F1F4F1F
:100EA0000F731127E02E8C8D8E110CC00FB607FC2E
:100EB000FACFE889F989808185FFF5CFCE010E94BC
:100EC0000207F1CFEB8DEC0FFD2FF11DE35AFF4F21
:100ED000F0829FB7F8940B8FEA89FB89808180624A
:100EE000CFCFCF93DF93EC01888D8823B9F0AA8907
:100EF000BB89E889F9898C9185FD03C0808186FDD5
:100F00000DC00FB607FCF7CF8C9185FFF2CF808123
:100F100085FFEDCFCE010E940207E9CFDF91CF918F
:100F20000895EF92FF920F931F93CF93DF93EC01FD
:100F3000EC80FD806E157F050CF070C057FF04C07B
:100F4000240F351F50E040E08E819F81FA01E20FAF
:100F5000F31F8E179F071CF49C01241B350B1216E0
:100F600013060CF05BC0922F842F8695869586958C
:100F70008E9DD0018F9DB00D11246A0F7B1FAF8D08
:100F8000B8A1A60FB71F477049F188E0841B482F0E
:100F9000682F70E0FB01E059FA4FE491281708F040
:100FA00063C0621B71092FEF30E002C035952795B1
:100FB0006A95E2F7E2230130110539F0B0F1023011
:100FC000110561F58C91E82702C08C91E82BEC9318
:100FD000941720F12C813D81A20FB31FE92FE41B50
:100FE000E83078F00230110521F58E2F9C91909514
:100FF0009C932C813D81A20FB31F88508830B0F79D
:10100000E770EE2359F0F0E0E859FA4FE49101302F
:101010001105F9F010F10230110519F1DF91CF91AE
:101020001F910F91FF90EF900895E0958C91E82328
:10103000CECF81E00115110509F480E081959E2F46
:101040008C932C813D81A20FB31F98509830C0F72C
:10105000D7CF8C91E82BEC93E1CFE0958C91E823EE
:10106000FACF8C91E827F7CF0130110509F4ADCF05
:10107000E0F20230110509F4A5CFAE0DBF1DAECFD1
:101080000F931F93CF93DF9377FF04C0260F371F73
:1010900070E060E0DC011496CD91DC91FB01E20F81
:1010A000F31FCE17DF071CF49E01261B370B121609
:1010B00013064CF5FA0157FD3796A3E0F595E79531
:1010C000AA95E1F7EC9FD001ED9FB00DFC9FB00D0C
:1010D00011246A0F7B1FDC015F96ED91FC91E60FF6
:1010E000F71F4770552781E090E001C0880F4A95AF
:1010F000EAF7482F0130110559F0A8F02E0F3F1FD5
:1011000002301105E1F0DF91CF911F910F91089509
:101110002E0F3F1FE217F307B1F38191DF01119703
:10112000842B8C93F7CF80952E0F3F1FE217F30788
:1011300051F39191DF01119798239C93F7CFE21718
:10114000F30709F38191DF01119784278C93F7CF7F
:101150000F931F93FA01DC0156964C91569742303B
:10116000E9F04330A1F1413061F514964D915C9165
:10117000DA01AE1BBF0BFD01E21BF30B77FD0BC0C9
:10118000DC0116964D915C916417750724F4AB0150
:10119000BF010E9440081F910F91089514964D9130
:1011A0005C91DA01A61BB70BBD0161507109DC012E
:1011B00016964D915C91DA01AE1BBF0BFD01E21B4F
:1011C000F30B77FDE8CFAF010E949107E4CF1696AD
:1011D0004D915C91DA01A61BB70BBD0161507109FD
:1011E000CDCF0F931F93FA01DC0156964C91569781
:1011F0004230A9F0433091F1413019F514964D91E8
:101200005C91DA01AE1BBF0BFD013197F7FD04C005
:10121000AB01BF010E9491071F910F910895149691
:101220004D915C91DA01A61BB70BBD01DC0116964E
:101230004D915C91DA01AE1BBF0BFD013197621B32
:10124000730BF7FDE9CFDC0116964D915C91E41725
:10125000F50714F7AF010E944008DECF16964D91B6
:101260005C91DA01A61BB70BBD01621B730BCECFDD
:10127000FC0177FD64C080859185681779070CF0C3
:101280005EC057FD5CC082859385481759070CF0F6
:1012900056C086898230B1F0833029F1813041F423
:1012A00084819581841B950BAB01BC016150710950
:1012B0002130310509F108F443C02230310509F429
:1012C00063C0089584819581DC01A61BB70BBD0125
:1012D0006150710986819781DC01A41BB50BAD01BA
:1012E00041505109E5CF86819781861B970BBA0142
:1012F000AC0141505109DCCFCA0157FD0796A3E06C
:1013000095958795AA95E1F7A481B5818A9F90016B
:101310008B9F300D9A9F300D1124620F731F078C25
:10132000F0A1E02DE60FF71F4770552721E030E0D0
:1013300001C0220F4A95EAF78081822B80830895AD
:10134000CA0157FD079633E0959587953A95E1F7E1
:10135000A481B5818A9F90018B9F300D9A9F300D9B
:101360001124620F731F078CF0A1E02DE60FF71F09
:101370004770552781E090E001C0880F4A95EAF751
:10138000809590818923DACFCA0157FD079623E023
:10139000959587952A95E1F7A481B5818A9F90015B
:1013A0008B9F300D9A9F300D1124620F731F078C95
:1013B000F0A1E02DE60FF71F4770552721E030E040
:1013C00001C0220F4A95EAF780818227B7CF08959E
:1013D0008EBD00000DB407FEFDCF8EB508958CBD07
:1013E0009DBD08950895FC016370668B848195818D
:1013F00026813781613039F0633029F09187808709
:1014000033872287089531872087938782870895BD
:101410002F923F924F925F926F927F928F929F9204
:10142000AF92BF92CF92DF92EF92FF920F931F93F2
:10143000CF93DF93CDB7DEB76A970FB6F894DEBFD0
:101440000FBECDBF9A8F898F7A8369834A01D22ECE
:1014500018870F833701BC2CDC0159962D913C91E4
:101460005A972115310509F015C118968D919C9157
:101470001997681779070CF0D7C11A968D919C912E
:10148000481759070CF0D0C14C2C512CB6E0CB9E1C
:10149000600D711D11247C876B87161617060CF0E2
:1014A000C3C1EA2DF0E0FA87E98793E0EE0FFF1F52
:1014B0009A95E1F7F88BEF87CF01840F951F1816E7
:1014C00019060CF0B1C1A98DBA8D58968C91811175
:1014D00004C0BFEABD1508F4D394A98DBA8DED916F
:1014E000FC9111970284F385E02DCD010995B5E0BB
:1014F000DB9EC0011124E981FA81FC83EB83312C4E
:10150000212C9C0128593F4F388F2F8B4A2D50E0BA
:101510005E8B4D8BEF89F88DE20DF31D44919E8219
:101520008D82D12CC12C69817A81620D731D7A8BD9
:10153000698B842F90E09C8B8B8BE98DFA8DA08139
:10154000B18140FF82C0F1E0BF126FC0AF126DC029
:101550001C96ED91FC912F813885A4014C0D5D1DE9
:1015600069897A89898D9A8D0995EB89FC89F59528
:10157000E7954E2F5FEFC51AD50A6D817E818D8963
:101580009E89680F791F7E836D8398E0C916D10408
:1015900081F6AFEF2A1A3A0AEB81FC81E40DF51DC2
:1015A000FC83EB83F5E02F16310409F0B3CF2F81D4
:1015B000388526153705B9F0A98DBA8DED91FC91C6
:1015C000B1E0BB1257C0AB1255C069817A816B5F25
:1015D0007F4F0088F189E02D830128E030E0A401ED
:1015E000898D9A8D0995A98DBA8DED91FC911197F0
:1015F0000688F789E02DCD016A960FB6F894DEBF14
:101600000FBECDBFDF91CF911F910F91FF90EF9053
:10161000DF90CF90BF90AF909F908F907F906F9012
:101620005F904F903F902F9009941E96ED91FC9102
:10163000EF80F88409851A8592014D815E816B8166
:101640007C81898D9A8D099590CF2F8138852615BB
:10165000370509F48ACF31E0B31207C0A31205C0E1
:101660001C96ED91FC91930178CF1E96ED91FC9123
:101670007301E0CF6B857C85641975090684F78555
:10168000E02D73010F8518899201A401898D9A8D2F
:101690000995A9CFF90134969491329745915491C7
:1016A000D91AB7E0DB9E400D511D1124F901259197
:1016B00034913C8B2B8BFA0125903490FA013296B1
:1016C000749031963491398B32966490319644906F
:1016D00041E04C1518F04A1508F07FC0662D062C25
:1016E000000C770B7C836B83842D042C000C990BEE
:1016F0009E838D83A98DBA8DED91FC911197028403
:10170000F385E02DCD010995512CD12CC12CEA2D6A
:10171000F0E0FA87E9872B2D30E03C872B87A40186
:10172000440D511D47FC5A95588F4F8B69817A8122
:10173000660D711D67FC7A957E876D877989C7165E
:1017400008F051CF2C2D30E04D815E81420F531FA8
:10175000A985BA854A9FC0014B9F900D5A9F900D55
:101760001124FC01E80DF91DF88BEF87852D612C04
:101770004F89588D420F531F5E8B4D8B671408F0B5
:1017800050C044244394480E877041F4C10101962F
:10179000EB89FC89E20DF31DD4901C01D7FE19C022
:1017A000A98DBA8DED91FC91662D70E0B1E0BB1270
:1017B00019C0AB1217C02D853E85620F731F0484BC
:1017C000F585E02D2F8138854D895E89898D9A8D2B
:1017D0000995DD0C6394842DD1CF1E821D821C825D
:1017E0001B8288CF4B815C81640F751FAB85BC85E4
:1017F0006A9FC0016B9F900D7A9F900D11246981A3
:101800007A81680F791F0684F785E02DEF80F884D0
:1018100009851A859D014F855889898D9A8D09956D
:10182000D8CF570CC3948ACF6A960FB6F894DEBF10
:101830000FBECDBFDF91CF911F910F91FF90EF9021
:10184000DF90CF90BF90AF909F908F907F906F90E0
:101850005F904F903F902F9008958F929F92AF92FC
:10186000CF92EF92FF920F931F93CF93DF93EC01F0
:10187000262F898D9A8D009709F051C06A30D1F4D6
:101880001D861C868D8948E0849F900111248E85D9
:101890009F85820F931F9F878E8781E090E0DF9165
:1018A000CF911F910F91FF90EF90CF90AF909F90AD
:1018B0008F9008956D3089F3CC88AD888F89882307
:1018C000C1F08C859D8536E0C39E800D911D11244D
:1018D000488559854817590764F44E855F851D86EC
:1018E0001C8638E0A39EC0011124840F951F9F879A
:1018F0008E87EA88FB88088919894E855F856C8503
:101900007D85CE010E94080A2C898C859D8546E044
:10191000249F800D911D11249D878C87BECF6A3036
:1019200069F41D861C86FC013896E4912D898E850C
:101930009F85E29F800D911D1124ADCF6D3009F47C
:10194000ACCFFC0134963491631708F4A6CF3296DD
:10195000E491E61708F4A1CFFC01329685909490AB
:10196000462F431B342F47E0349F800C911C1124D9
:10197000F401329634913196E4913323A9F1EE23A8
:1019800099F1CC88F4013596E491AD884F894423D0
:1019900001F10E2E000CFF0BE30FF11DCE9EA001F6
:1019A000CF9E500D11246C857D85460F571F68858D
:1019B0007985641775076CF44E855F851D861C86D6
:1019C000FC013896E491AE9E400D511D11245F87B5
:1019D0004E87EA88FB88088919894E855F856C8562
:1019E0007D85CE010E94080AF4013496E4912C8989
:1019F0008C859D85E29F800D911D11248DCF6F9266
:101A00007F928F929F92AF92BF92CF92DF92EF928E
:101A1000FF920F931F93CF93DF93EC016B015A0159
:101A200039014801E881F9810284F385E02D0995A7
:101A3000E881F9810288F389E02D87019301A501EE
:101A4000B601CE010995A501480D591D4150510916
:101A5000E881F9810288F389E02D9301B601CE0176
:101A60000995E881F9810088F189E02D9401A501AB
:101A7000B601CE010995C60CD71CB601615071099B
:101A8000E881F9810088F189E02D9401A501CE015A
:101A90000995E881F9810688F789E02DCE01DF916B
:101AA000CF911F910F91FF90EF90DF90CF90BF905B
:101AB000AF909F908F907F906F9009946F927F92DC
:101AC0008F929F92AF92BF92CF92DF92EF92FF924E
:101AD0000F931F93CF93DF935C01EB016A014901E0
:101AE00038018701DC01ED91FC916217730719F54C
:101AF000641675062CF0962D872D3A01C92ED82E26
:101B00009601261937092F5F3F4F048CF58DE02D84
:101B1000A301BE01C5010995DF91CF911F910F91DE
:101B2000FF90EF90DF90CF90BF90AF909F908F90FD
:101B30007F906F9008954615570591F42617370743
:101B400024F0892D4B01C22FD82F9E012819390965
:101B50002F5F3F4F068CF78DE02DA601B401DACF41
:101B60000284F385E02D0995D501ED91FC9104885F
:101B7000F589E02D83019401A601BE01C5010995F7
:101B8000D501ED91FC910688F789E02DC501DF9123
:101B9000CF911F910F91FF90EF90DF90CF90BF906A
:101BA000AF909F908F907F906F900994EF92FF92EB
:101BB0000F931F93DC011A960D911C911B97189699
:101BC0002D913C911997ED91FC9100A0F1A1E02D90
:101BD0007B0150E040E070E060E009951F910F91BB
:101BE000FF90EF9008954F925F926F927F928F9245
:101BF0009F92AF92BF92CF92DF92EF92FF920F939C
:101C00001F93CF93DF936C012B015A0139014801D7
:101C1000DC01ED91FC910284F385E02D0995E20150
:101C2000640C751CD601ED91FC91C615D7055CF4CA
:101C30000088F189E02D87019401A501BE01C6014C
:101C400009952196EFCF0688F789E02DC601DF912F
:101C5000CF911F910F91FF90EF90DF90CF90BF90A9
:101C6000AF909F908F907F906F905F904F9009946E
:101C70008F929F92AF92BF92CF92DF92EF92FF929C
:101C80000F931F93CF93DF93EC015B014A0169012E
:101C9000E881F9810284F385E02D099595012C0DE9
:101CA0003D1D21503109E881F9810488F589E02D35
:101CB00078018401A401B501CE010995E881F9817B
:101CC0000688F789E02DCE01DF91CF911F910F910A
:101CD000FF90EF90DF90CF90BF90AF909F908F904C
:101CE00009948F929F92AF92BF92CF92DF92EF9220
:101CF000FF920F931F93CF93DF93EC015B014A0197
:101D000069017801E881F9810284F385E02D099564
:101D1000C80CD91C860101501109E881F981048899
:101D2000F589E02D9501A401B501CE010995E88161
:101D3000F9810688F789E02DCE01DF91CF911F91BF
:101D40000F91FF90EF90DF90CF90BF90AF909F905A
:101D50008F900994EF92FF920F931F93DC01ED9106
:101D6000FC9100A0F1A1E02D09951F910F91FF902A
:101D7000EF9008950F931F93DC01ED91FC91068C79
:101D8000F78DE02D09951F910F9108950F931F93E3
:101D9000DC01ED91FC91048CF58DE02D09951F91EE
:101DA0000F910895DC01ED91FC910084F185E02D07
:101DB00009943F924F925F926F927F928F929F927F
:101DC000AF92BF92CF92DF92EF92FF920F931F9349
:101DD000CF93DF935C017B014A016901390187E000
:101DE000680E711C93E0759467949A95E1F72B0146
:101DF000400E511E10E000E0312CD0E0C0E0CE01DA
:101E000087709927330C892B59F4FE0183E0F595EF
:101E1000E7958A95E1F7E00FF11FE80DF91D349081
:101E200037FE0AC021E030E0A701B5016C0F7D1F2D
:101E30008DE093E00E94D20E2196CC16DD06F9F6D5
:101E40008FEFE81AF80A060D171DE414F504A9F639
:101E5000DF91CF911F910F91FF90EF90DF90CF9086
:101E6000BF90AF909F908F907F906F905F904F90BA
:101E70003F9008952F923F924F925F926F927F9280
:101E80008F929F92AF92BF92CF92DF92EF92FF928A
:101E90000F931F93CF93DF9300D000D000D0CDB726
:101EA000DEB73C016A013E832D83FC82EB82580140
:101EB000A41AB50AB7FE03C0B194A194B1088D80ED
:101EC0009E80861A970A97FE03C091948194910888
:101ED0008A149B045CF0902F812F0D811E819D83BD
:101EE0008E839C2D8D2D6B01692F782F0C151D0570
:101EF0005CF09D818E817E836D83692F782F902F7A
:101F0000812F8601C92ED82E1601201A310A2B01E5
:101F10002D813E81421A530A57FE03C051944194C9
:101F20005108710137FE03C03FEFE31AF30AF5943D
:101F3000E7948D819E81861797075CF5A1E0B0E05C
:101F4000BA83A983C016D1064CF1D301ED91FC915F
:101F50000484F585E02D2B813C81A8016D817E8173
:101F60008A149B041CF04D815E81B801C301099560
:101F7000E418F508F7FE0AC02D813E8189819A8117
:101F8000280F391F3E832D83E20CF31C0F5F1F4F78
:101F9000D9CF2FEF3FEF3A832983D4CF26960FB6C0
:101FA000F894DEBF0FBECDBFDF91CF911F910F918F
:101FB000FF90EF90DF90CF90BF90AF909F908F9069
:101FC0007F906F905F904F903F902F90089508956D
:101FD00020910202260F3327331F21323105ECF402
:101FE00020912602FC0190E080E0243069F082E03C
:101FF0000895A09102022191AC014E515E4FA40FB1
:10200000B52FB11D2C930196861798F3809102028B
:10201000680F6093020280E0089581E008951092B5
:10202000260281E0809328021092270261E082E17B
:102030000E94CC0561E083E10E94CC05E9EBF0E071
:1020400080818E7F808380818D7F808388E48093F0
:10205000B80085E48093BC000895CF93DF9391E0AE
:102060009093E1018823B9F0C091B800D091BA00F3
:102070008091BC008A7B8093BC0060E082E10E947A
:10208000CC0560E083E10E94CC050E940F10D09344
:10209000BA00C093B800DF91CF910895E091520249
:1020A00080915102E81730F4F0E0E454FE4F808153
:1020B00090E008958FEF9FEF0895909152028091E4
:1020C00051022FEF3FEF981748F4E92FF0E0E45466
:1020D000FE4F208130E09F5F90935202C901089526
:1020E0008091510290915202891B990B0895CF92D1
:1020F000DF92EF92FF920F931F93CF93DF937C01B8
:10210000CB018A0120916302222389F0EB016B014C
:10211000C40ED51ECC15DD0569F06991D701ED918E
:10212000FC910190F081E02DC7010995F3CF642F58
:102130000E94E80FC801DF91CF911F910F91FF908E
:10214000EF90DF90CF900895CF93DF931F92CDB79C
:10215000DEB76983209163022223F9F020916002A7
:10216000203258F021E030E0FC013383228390E0FC
:1021700080E00F90DF91CF91089580916102E82F68
:10218000F0E0E456FE4F998190838F5F8093610267
:102190008093600281E090E0ECCF61E0CE01019697
:1021A0000E94E80FF7CFCF92DF92EF92FF920F934A
:1021B0001F93CF93DF93D091600281E0D13208F07A
:1021C0009CC0C09162020E942B066B017C01809131
:1021D000260281116CC082E08093260281E0809308
:1021E00028028FEF8093250210924A02D093490271
:1021F000ACE9B1E0E9E2F2E080E0D8138DC01092E2
:102200004B0280914B02CC0FC82BC0934B028091A4
:102210002702813009F084C0109227020E942B0609
:102220006B017C0180914B028093BB008091DD01AA
:102230009091DE01A091DF01B091E001892B8A2B02
:102240008B2BA1F00E942B060091DD011091DE0185
:102250002091DF013091E0016C197D098E099F0901
:10226000061717072807390708F442C08091BC00F9
:1022700083FDD8CF85EC8093BC000E942B066B01B8
:102280007C0180912602823009F44CC080912502A5
:102290008F3F09F469C080912502803209F466C03D
:1022A00080912502803309F463C084E026C08091C8
:1022B000DD019091DE01A091DF01B091E001892B59
:1022C0008A2B8B2B09F483CF0E942B060091DD0112
:1022D0001091DE012091DF013091E0016C197D0940
:1022E0008E099F09061717072807390708F06FCFCF
:1022F0008091DC010E942D1085E010926102109205
:10230000600210926302DF91CF911F910F91FF90B5
:10231000EF90DF90CF9008959D9191938F5F6DCF57
:1023200085EEA9CF8091DD019091DE01A091DF01C2
:10233000B091E001892B8A2B8B2B09F4A2CF0E944C
:102340002B060091DD011091DE012091DF0130911B
:10235000E0016C197D098E099F09061717072807E8
:10236000390708F08ECFC4CF80E0C7CF82E0C5CF59
:1023700083E0C3CFEF92FF920F931F93CF93DF932E
:102380007C01C62F80912A0390912B03009709F4BA
:1023900059C020912E0331E03093630220936202F2
:1023A0001092610210926002DC01ED91FC910190AB
:1023B000F081E02D60E009958701EE24E394F12C93
:1023C000D1E0C15080912A0390912B03CF3F91F12E
:1023D000B0E2EB16F104D8F00E94D31080912A03EA
:1023E00090912B0320912E03D093630220936202DD
:1023F0001092610210926002DC01ED91FC9101905B
:10240000F081E02D60E00995EE24E394F12C8091B9
:102410002A0390912B03F8016491DC01ED91FC916A
:102420000190F081E02D0995BFEFEB1AFB0A0F5FD9
:102430001F4FC7CFDF91CF911F910F91FF90EF906A
:102440000C94D310E0913A03F0913B03908180917A
:1024500040038095892380838701C15008F438C0E8
:10246000F80184912091280330912903232B29F02E
:102470000E94E8090F5F1F4FF0CF28E030E040E8EE
:10248000E0913603F091370390913E03582F542387
:10249000D9F05081952B9083E0913803F091390366
:1024A000908150913F03952B9083E0913803F091F8
:1024B0003903508190913F039095952390834695E1
:1024C00021503109E9F6D6CF508190959523E3CF7D
:1024D000DF91CF911F910F91FF90EF9008951F937F
:1024E000CF93DF93EC018D8D9E8D009721F1162FF8
:1024F00029A131E0309363022093620210926102BD
:1025000010926002DC01ED91FC910190F081E02DD0
:1025100060E009958D8D9E8DDC01ED91FC9101901F
:10252000F081E02D612F09958D8D9E8DDF91CF91EA
:102530001F910C94D310ADA5BEA59C918BA980953D
:1025400089238C938B8D9C8D892B31F0862FDF9185
:10255000CF911F910C94E80928E030E080E8A9A50C
:10256000BAA599A9462F4823C1F04C91942B9C936E
:10257000ABA5BCA59C914AA9942B9C93ABA5BCA5EB
:102580004C919AA9909594239C938695215031095A
:1025900031F7DF91CF911F9108954C91909594233D
:1025A000E6CFDF92EF92FF920F931F93CF93DF93CB
:1025B00080912A0390912B03892B09F498C02091D4
:1025C000420330914303409144035091450360E03E
:1025D00074E284EF90E00E947B1E20513109410992
:1025E000510956954795379527952093B80065E092
:1025F00088E59AE00E94BA116091110361508DE064
:1026000093E00E946F122091130330911403C901CB
:10261000079697FD079633E0959587953A95E1F7EC
:102620002091110330911203829F8001839F100D2E
:10263000929F100D1124C0912C03D0912D038091F5
:102640002A0390912B030C0F1D1F009709F48FC0D4
:1026500020912E0331E030936302209362021092A6
:10266000610210926002DC01ED91FC910190F08119
:10267000E02D60E40995EE24E394F12CDD24D3945D
:1026800080912A0390912B030C171D0709F446C073
:10269000B0E2EB16F104D8F00E94D31080912A0327
:1026A00090912B0320912E03D0926302209362021B
:1026B0001092610210926002DC01ED91FC91019098
:1026C000F081E02D60E40995EE24E394F12C8091F3
:1026D0002A0390912B036991DC01ED91FC9101900B
:1026E000F081E02D0995BFEFEB1AFB0AC9CF80916D
:1026F000280390912903892B31F080914B0390910D
:102700004C030E94EF09E0913C03F0913D0390815E
:102710008091410380958923808369CF0E94D310E3
:1027200080912A0390912B03892B09F461C0209199
:10273000460330914703409148035091490360E0BC
:1027400074E284EF90E00E947B1E20513109410920
:10275000510956954795379527952093B800DF91F5
:10276000CF911F910F91FF90EF90DF900895E0912E
:102770003A03F0913B03808190914003892B808341
:102780000C171D0769F289912091280330912903C4
:10279000232B19F00E94E809F3CF28E030E040E84D
:1027A000E0913603F091370390913E03582F542364
:1027B000D9F05081952B9083E0913803F091390343
:1027C000908150913F03952B9083E0913803F091D5
:1027D0003903508190913F039095952390834695BE
:1027E00021503109E9F6CCCF508190959523E3CF64
:1027F000E0913C03F0913D03808190914103892B4E
:102800008083ADCF1F93CF93DF93EC01162F8D8D77
:102810009E8D892BB1F12DA93EA94FA958AD60E03D
:1028200074E284EF90E00E947B1E2051310941093F
:10283000510956954795379527952093B80066EA34
:10284000111167EACE010E946F128D8D9E8D892B2A
:1028500041F129AD3AAD4BAD5CAD60E074E284EF7F
:1028600090E00E947B1E2051310941095109569583
:102870004795379527952093B800DF91CF911F9109
:1028800008958B8D9C8D892B21F08EAD9FAD0E947C
:10289000EF09EFA5F8A990818CA980958923808301
:1028A000CECFEFA5F8A980819CA9892B8083E5CFA5
:1028B00090E080E008952091130330911403C90142
:1028C000079697FD079623E0959587952A95E1F75A
:1028D0002091110330911203829FA001839F500D1C
:1028E000929F500D112470E060E080912C03909134
:1028F0002D030C943C21FB0101900020E9F7319756
:10290000AF01461B570BDC01ED91FC910280F38176
:10291000E02D0994CF93DF93FC01448155816081C0
:1029200071818DE093E00E948406EC016EE571E018
:102930008DE093E00E947B148C0F9D1FDF91CF915F
:1029400008950E942E210F931F93CF93DF93EC01E4
:1029500088819981009759F02A813B812617370792
:1029600030F081E0DF91CF911F910F9108958B019D
:102970006F5F7F4F0E947120009759F09983888381
:102980001B830A832C813D81232B59F7FC01108284
:10299000E8CF80E0E7CFCF93DF93EC018881998186
:1029A000009711F00E94E81F198218821D821C8274
:1029B0001B821A82DF91CF910895CF92DF92EF921E
:1029C000FF920F931F93CF93DF93CDB7DEB762973C
:1029D0000FB6F894DEBF0FBECDBF8C01CB01F8015E
:1029E0001182108213821282158214824AE09E01A3
:1029F0002F5F3F4F6901B9010E94BE1CF601019093
:102A00000020E9F731977F01EC18FD08B701C801F4
:102A10000E94A314811112C0C8010E94CB146296B7
:102A20000FB6F894DEBF0FBECDBFDF91CF911F91DF
:102A30000F91FF90EF90DF90CF900895F801F5820D
:102A4000E482B601808191810E944321E8CFEF9218
:102A5000FF920F931F93CF93DF938C017B01EB01C8
:102A600009900020E9F72197C61BD70BBE010E94F1
:102A7000A314811109C0C801DF91CF911F910F915B
:102A8000FF90EF900C94CB14F801D583C483B70169
:102A900080819181DF91CF911F910F91FF90EF90F5
:102AA0000C944321EF92FF920F931F93CF93DF93E8
:102AB000EC01FB01E080F180E114F10411F10481EB
:102AC000158101151105A9F08C819D81080F191F31
:102AD000B801CE010E94A314882399F0288139817E
:102AE0008C819D81B701820F931F0E9443211D831A
:102AF0000C83CE01DF91CF911F910F91FF90EF904A
:102B00000895CE010E94CB14F4CFFC018081918105
:102B1000009711F00C94E81F0895CF92DF92EF9286
:102B2000FF920F931F93CF93DF93CDB7DEB72C9710
:102B30000FB6F894DEBF0FBECDBF8C010E945B14B0
:102B40008AE090E090931A038093190390931C03FA
:102B500080931B0360915E0270915F02CE0101962B
:102B60000E94DD1418861F821A8619861C861B8611
:102B700061E671E0CE0107960E942715BE016F5FE6
:102B80007F4FCE0107960E9452150E948A14CE01F3
:102B900007960E948515CE0101960E948515C801F1
:102BA0000E948A140E94D1128FB7F89400915A02A1
:102BB00010915B0220915C0230915D028FBF0E94F8
:102BC000A805892B09F464C02FB7F89480915A02A4
:102BD00090915B02A0915C02B0915D022FBF801BBF
:102BE000910BBC01990F880B990B0E94F51C6B018E
:102BF0007C0120E030E04AE754E4609100017091EC
:102C0000010180910201909103010E94541D9B01DA
:102C1000AC01C701B6010E94191F181684F60E9464
:102C20005B1460915E0270915F02CE0101960E947A
:102C3000DD1418861F821A8619861C861B8661E69B
:102C400071E0CE0107960E942715BE016F5F7F4F8E
:102C5000CE0107960E9452150E948A14CE01079653
:102C60000E948515CE0101960E9485156AE671E0E5
:102C70008DE093E00E947B146EE571E08DE093E0BF
:102C80000E947B140E94D11290E080E00E944A21B1
:102C90000E94A805892BE1F32C960FB6F894DEBFAD
:102CA0000FBECDBFDF91CF911F910F91FF90EF909D
:102CB000DF90CF90089585ED8093BC008091DD0179
:102CC0009091DE01A091DF01B091E0010796A11D76
:102CD000B11D23E0B695A795979587952A95D1F7CD
:102CE0002091BC0024FD03C010922602089540915B
:102CF000DD015091DE016091DF017091E001452B13
:102D0000462B472B69F30097A105B10541F02AE254
:102D10002A95F1F700C00197A109B109E1CF80918F
:102D2000DC010C942D101F920F920FB60F921124FC
:102D30002F933F938F939F93AF93BF9380915A02AA
:102D400090915B02A0915C02B0915D0230915502BE
:102D500023E0230F2D3758F50196A11DB11D2093B7
:102D6000550280935A0290935B02A0935C02B09349
:102D70005D028091560290915702A0915802B09145
:102D800059020196A11DB11D8093560290935702DE
:102D9000A0935802B0935902BF91AF919F918F9128
:102DA0003F912F910F900FBE0F901F90189526E81E
:102DB000230F0296A11DB11DD2CF1F920F920FB605
:102DC0000F9211242F933F934F935F936F937F93B1
:102DD0008F939F93AF93BF93EF93FF9384E692E01B
:102DE0000E940207FF91EF91BF91AF919F918F9148
:102DF0007F916F915F914F913F912F910F900FBEF7
:102E00000F901F9018951F920F920FB60F921124DA
:102E10002F938F939F93EF93FF93E0917402F09120
:102E200075028081E0917A02F0917B0282FD1BC0E5
:102E3000908180917D028F5F8F7320917E02821737
:102E400041F0E0917D02F0E0EC59FD4F958F8093C9
:102E50007D02FF91EF919F918F912F910F900FBE67
:102E60000F901F9018958081F4CF1F920F920FB68C
:102E70000F9211242F933F934F935F936F937F9300
:102E80008F939F93AF93BF93EF93FF938091B9007C
:102E9000887F803609F44AC0F0F5883209F4A7C06B
:102EA00018F5803109F49BC0B8F4882309F4F9C0FF
:102EB000883009F494C0FF91EF91BF91AF919F9139
:102EC0008F917F916F915F914F913F912F910F90D3
:102ED0000FBE0F901F901895883109F488C080327A
:102EE00051F78093250214C0803409F49DC040F44A
:102EF0008033B9F38833F9F68093250285ECB0C0AE
:102F0000803509F485C0883509F496C0883499F66F
:102F10000E945B16D0CF883909F48CC038F5883709
:102F200029F050F4883611F0803729F683E0809339
:102F300026021092240257C0883809F47BC08039D9
:102F400019F0803809F0B7CF80912402803208F060
:102F500071C0E091240281E08E0F80932402809161
:102F6000BB00F0E0EC5FFD4F80833DC0803B39F05B
:102F7000E0F4803A09F479C0883A09F09CCF84E003
:102F8000809326021092030210920202E0914F02F7
:102F9000F091500209958091020281110FC081E0E9
:102FA000809302021092E20109C0803C09F4A6CF8E
:102FB000883C09F4A3CF883B09F07DCFE091030260
:102FC00081E08E0F80930302F0E0EE51FE4F80818E
:102FD0008093BB00909103028091020229C08091EE
:102FE0004B028093BB0085EC8093BC0064CF909132
:102FF0004A0280914902981758F5E0914A0281E00F
:103000008E0F80934A02F0E0E75DFD4F8081E9CFAB
:10301000E0914A0281E08E0F80934A028091BB00CA
:10302000F0E0E75DFD4F808390914A028091490274
:103030009817C8F285E8D8CFE0914A0281E08E0F58
:1030400080934A028091BB00F0E0E75DFD4F8083F2
:103050008091280281115CCF81E08093270284EA6D
:103060008093BC001092260226CF85EC8093BC0092
:103070001092260280912402803230F4E0912402E2
:10308000F0E0EC5FFD4F10826091240270E0E0916F
:103090004D02F0914E0284E092E0099510922402D4
:1030A0000ACF1092250234CFE4E6F2E013821282B6
:1030B00048EE53E060E070E0448355836683778395
:1030C00082E191E09183808385EC90E0958784870D
:1030D00084EC90E09787868780EC90E0918B808BE2
:1030E00081EC90E0938B828B82EC90E0958B848BCB
:1030F00086EC90E0978B868B118E128E138E148E39
:10310000A1E0B3E013961C921E92129714964D9371
:103110005D936D937C93179784E291E011969C9355
:103120008E93EDE0F3E01382128220E830E03583E5
:10313000248380E490E09783868331872087938778
:103140008287168A158614861786168681E0858BF7
:10315000848B2FEF3FEF338B228B318B208B878B30
:10316000108E128E118E86E391E091838083148EEF
:10317000138EB68FA58F10A2178E8FEF84A385A311
:1031800086A387A380A780E89AE1A6E0B0E085AB9C
:1031900096ABA7ABB0AF80EA96E8A1E0B0E081AF14
:1031A00092AFA3AFB4AF80E586AF17AE0895CF93CB
:1031B000DF9300D000D000D0CDB7DEB7789484B5CF
:1031C000826084BD84B5816084BD85B5826085BD23
:1031D00085B5816085BD80916E00816080936E00B1
:1031E00010928100809181008260809381008091A3
:1031F0008100816080938100809180008160809354
:1032000080008091B10084608093B1008091B00013
:1032100081608093B00080917A00846080937A000E
:1032200080917A00826080937A0080917A00816038
:1032300080937A0080917A00806880937A0010925F
:10324000C100E0917402F091750282E08083E09108
:103250007002F09171021082E0917202F09173029B
:103260008FEC808310927C02E0917802F0917902D9
:1032700086E08083E0917602F09177028081806120
:103280008083E0917602F09177028081886080836C
:10329000E0917602F0917702808180688083E091EE
:1032A0007602F091770280818F7D808310925402A4
:1032B0001092530261E086E00E94FA0561E087E027
:1032C0000E94FA0561E088E00E94FA0560E084E06F
:1032D0000E94FA0580912C0390912D03892B11F106
:1032E0000E945B1420911303309114038091110309
:1032F00090911203213231050CF04BC0B90160529C
:10330000710977FF02C06F5F7F4F7595679583578F
:10331000910997FD019600E210E023E730E04AE8CA
:1033200055E04AC02091130330911403C901079658
:1033300097FD0796B3E095958795BA95E1F72091AB
:10334000110330911203AC01429FC001439F900DC5
:10335000529F900D11240E944C1F90932D03809337
:103360002C03892B09F0BCCF0AE21AE0F801649122
:10337000662341F084E692E00E9424070F5F1F4F0E
:10338000892BA1F76EE571E084E692E00E947B1440
:10339000FFCFB9016054710977FF02C06F5F7F4FA3
:1033A000759567958255910997FD019600E410E0A7
:1033B00022E530E04AE657E0959587950E94D90EC0
:1033C00082E080932F0380912A0390912B03892B15
:1033D00009F410C18CE380932E03109252021092D4
:1033E000510210926102109260020E940F1082E856
:1033F00096E09093500280934F0283E896E090937A
:103400004E0280934D028091350387FD1EC061E01E
:103410000E94FA0561E0809135030E94CC0561E0CD
:1034200070E080E090E00E94500660E080913503FB
:103430000E94CC056AE070E080E090E00E945006B7
:1034400061E0809135030E94CC0580912A03909120
:103450002B03892B09F48DC1209142033091430342
:10346000409144035091450360E074E284EF90E0A2
:103470000E947B1E205131094109510956954795FB
:10348000379527952093B80064E086E895E00E9480
:10349000BA116091130361508DE093E00E946F12A6
:1034A00064E082E895E00E94BA1180912F0364E104
:1034B000813009F460E18DE093E00E946F1264E0D6
:1034C0008EE795E00E94BA118FE880934A038091BD
:1034D0001103909112038038910509F063C1809126
:1034E0001303909114038034910509F06BC180910E
:1034F0002F03813009F454C18FEC80934A0312E109
:103500006AED8DE093E00E946F12612F8DE093E0F1
:103510000E946F1261E88DE093E00E946F1260914B
:103520004A038DE093E00E946F1269ED8DE093E015
:103530000E946F1280912F0361EF813009F462E2E3
:103540008DE093E00E946F1266E088E795E00E94AC
:10355000BA1180912A0390912B03892B09F436C16B
:10356000209146033091470340914803509149030D
:1035700060E074E284EF90E00E947B1E20513109EC
:103580004109510956954795379527952093B800DD
:1035900081E0809321038093220381E090E0909367
:1035A000200380931F0390931E0380931D030AE062
:1035B00010E00E94A805019709F012C110921A03A9
:1035C0001092190310931C0300931B0365E771E02D
:1035D0008DE093E00E947B140E94D1120E945B1444
:1035E00080915302909154020196909354028093DB
:1035F0005302DFCF61E0809133030E94FA0561E05E
:10360000809134030E94FA0580913303082E000C48
:10361000990BFC01E959F54FE491F0E0EE0FFF1F23
:10362000E25BF54F2591349130933B0320933A03AD
:10363000FC01E558F54FE491E09340038091340399
:10364000082E000C990BFC01E959F54FE491F0E0CC
:10365000EE0FFF1FE25BF54FA591B491B0933D03D0
:10366000A0933C03FC01E558F54FE491E09341033E
:103670008C91E82BEC938091280390912903892B5E
:1036800009F434C01FB7F89480914C02811127C00F
:10369000E1E7FAE08491E5E8FAE09491E82FF0E0C0
:1036A000EE0FFF1FEC5BF54FA591B491EC91E92370
:1036B00021F461E08AE00E94CC0561E08AE00E948A
:1036C000FA058CB580618CBD8CB580648CBD61E0E1
:1036D0008DE00E94FA0561E08BE00E94FA0580917E
:1036E0004C028F5F80934C021FBF8DCE61E08091B2
:1036F00031030E94FA0561E0809132030E94FA05CD
:1037000080913103082E000C990BFC01E959F54F0B
:10371000E491F0E0EE0FFF1FE25BF54F259134914D
:103720003093370320933603FC01E558F54FE491BD
:10373000E0933E0380913203082E000C990BFC01AC
:10374000E959F54FE491F0E0EE0FFF1FE25BF54F12
:10375000A591B491B0933903A0933803FC01E558C7
:10376000F54FE491E0933F038C91E095E823EC93CF
:103770004ACE8091280390912903892B31F08091C2
:103780004B0390914C030E94EF09E0913C03F091B0
:103790003D0390818091410380958923808374CE7D
:1037A0008FE9ABCE8036910569F480911303909137
:1037B0001403409739F480912F03813029F08FEA68
:1037C00080934A0312E09CCE80E1FACFE0913C0363
:1037D000F0913D03808190914103892B8083D8CE65
:1037E0000E945B1480915302909154020E94B31C7A
:1037F00003E010E00E94AE1CB8010E941E1F00975B
:10380000D1F51A8219821C821B821E821D8260E8F9
:1038100071E0CE0101960E942715CE0101960E940B
:103820008D15CE0101960E94851568EE73E080E04B
:1038300090E00E9450062AE037ED43EA5CE3609195
:1038400000017091010180910201909103010E9499
:10385000AC1E60930001709301018093020190936C
:10386000030180915E0290915F02019690935F0246
:1038700080935E02BFCF8130910549F41A8219828C
:103880001C821B821E821D826AE871E0C2CF0297F1
:1038900009F0B0CF1A8219821C821B821E821D82FF
:1038A00063E971E0B6CF86E391E090930E038093D5
:1038B0000D0380912C0390912D03009711F00C942F
:1038C000E81F08958F929F92AF92BF92CF92DF929E
:1038D000EF92FF92CF93DF93EC01688179818A8127
:1038E0009B81611571058105910521F464E279EDF3
:1038F0008BE597E02DE133EF41E050E00E94121E8E
:1039000049015A019B01AC01A7EAB1E40E94311EB2
:103910006B017C01ACEEB4EFA50194010E943F1E47
:10392000DC01CB018C0D9D1DAE1DBF1DB7FF03C07B
:103930000197A109B04888839983AA83BB839F77A5
:10394000DF91CF91FF90EF90DF90CF90BF90AF903D
:103950009F908F9008950E94621C089584E091E0EA
:103960000E94621C0895B0E0A0E08093040190934F
:103970000501A0930601B09307010895BB274A30C3
:1039800031F4992322F4BDE2909581959F4F0C94D8
:10399000CA1CBB27FB015527AA27880F991FAA1FFE
:1039A000A41710F0A41B83955051B9F7A05DAA335A
:1039B00008F0A95DA193009779F7B111B193119225
:1039C000CB010C94E31CDC01FC01672F7191772380
:1039D000E1F7329704C07C916D9370836291AE17CA
:1039E000BF07C8F30895E89409C097FB3EF490958B
:1039F0008095709561957F4F8F4F9F4F9923A9F0C8
:103A0000F92F96E9BB279395F69587957795679556
:103A1000B795F111F8CFFAF4BB0F11F460FF1BC09A
:103A20006F5F7F4F8F4F9F4F16C0882311F096E92D
:103A300011C0772321F09EE8872F762F05C06623DB
:103A400071F096E8862F70E060E02AF09A95660F94
:103A5000771F881FDAF7880F9695879597F908954D
:103A6000990F0008550FAA0BE0E8FEEF161617068F
:103A7000E807F907C0F012161306E407F50798F0F7
:103A8000621B730B840B950B39F40A2661F0232B10
:103A9000242B252B21F408950A2609F4A140A6958C
:103AA0008FEF811D811D08950E94671D0C94D81D04
:103AB0000E94CA1D38F00E94D11D20F0952311F0FC
:103AC0000C94C11D0C94C71D11240C940C1E0E9453
:103AD000E91D70F3959FC1F3950F50E0551F629F4C
:103AE000F001729FBB27F00DB11D639FAA27F00D57
:103AF000B11DAA1F649F6627B00DA11D661F829F7E
:103B00002227B00DA11D621F739FB00DA11D621F62
:103B1000839FA00D611D221F749F3327A00D611D7F
:103B2000231F849F600D211D822F762F6A2F112461
:103B30009F5750409AF0F1F088234AF0EE0FFF1F94
:103B4000BB1F661F771F881F91505040A9F79E3FEB
:103B5000510580F00C94C11D0C940C1E5F3FE4F3E2
:103B6000983ED4F3869577956795B795F795E79541
:103B70009F5FC1F7FE2B880F911D9695879597F94A
:103B8000089597F99F6780E870E060E008959FEFDF
:103B900080EC089500240A941616170618060906E4
:103BA000089500240A9412161306140605060895B3
:103BB000092E0394000C11F4882352F0BB0F40F43B
:103BC000BF2B11F460FF04C06F5F7F4F8F4F9F4F7B
:103BD000089557FD9058440F551F59F05F3F71F0FD
:103BE0004795880F97FB991F61F09F3F79F0879564
:103BF0000895121613061406551FF2CF4695F1DFED
:103C000008C0161617061806991FF1CF869571057C
:103C1000610508940895E894BB2766277727CB01B0
:103C200097F90895052E97FB1EF400940E94291E13
:103C300057FD07D00E947B1E07FC03D04EF40C9466
:103C4000291E50954095309521953F4F4F4F5F4F1E
:103C5000089590958095709561957F4F8F4F9F4FF8
:103C600008950E949D1EA59F900DB49F900DA49F46
:103C7000800D911D11240895B7FF0C94311E0E94F0
:103C8000311E821B930B08952F923F924F925F92A9
:103C90006F927F928F929F92AF92BF92CF92DF925C
:103CA000EF92FF920F931F93CF93DF93CDB7DEB7C1
:103CB000CA1BDB0B0FB6F894DEBF0FBECDBF099455
:103CC0002A88398848885F846E847D848C849B84AC
:103CD000AA84B984C884DF80EE80FD800C811B81BA
:103CE000AA81B981CE0FD11D0FB6F894DEBF0FBEE9
:103CF000CDBFED010895A1E21A2EAA1BBB1BFD0149
:103D00000DC0AA1FBB1FEE1FFF1FA217B307E407BA
:103D1000F50720F0A21BB30BE40BF50B661F771F12
:103D2000881F991F1A9469F76095709580959095F2
:103D30009B01AC01BD01CF010895A29FB001B39FCB
:103D4000C001A39F700D811D1124911DB29F700DA4
:103D5000811D1124911D08955058BB27AA270E9448
:103D6000C41E0C94D81D0E94CA1D38F00E94D11D9B
:103D700020F039F49F3F19F426F40C94C71D0EF47B
:103D8000E095E7FB0C94C11DE92F0E94E91D58F353
:103D9000BA17620773078407950720F079F4A6F530
:103DA0000C940B1E0EF4E0950B2EBA2FA02D0B01D8
:103DB000B90190010C01CA01A0011124FF27591B70
:103DC00099F0593F50F4503E68F11A16F040A22F76
:103DD000232F342F4427585FF3CF469537952795E7
:103DE000A795F0405395C9F77EF41F16BA0B620BE6
:103DF000730B840BBAF09150A1F0FF0FBB1F661F2D
:103E0000771F881FC2F70EC0BA0F621F731F841F6F
:103E100048F4879577956795B795F7959E3F08F095
:103E2000B0CF9395880F08F09927EE0F9795879557
:103E300008950E94301D08F48FEF089597FB072E18
:103E400016F4009407D077FD09D00E94321F07FCBA
:103E500005D03EF4909581959F4F0895709561959A
:103E60007F4F0895AA1BBB1B51E107C0AA1FBB1FB0
:103E7000A617B70710F0A61BB70B881F991F5A95F6
:103E8000A9F780959095BC01CD010895EE0FFF1F15
:103E90000590F491E02D09940F931F93CF93DF9336
:103EA0008230910510F482E090E0E0914F03F091B0
:103EB000500330E020E0B0E0A0E0309799F4211505
:103EC000310509F44AC0281B390B24303105D8F5D7
:103ED0008A819B816115710589F1FB01938382833E
:103EE000FE0111C040815181028113814817590799
:103EF000E0F04817590799F4109761F012960C9367
:103F0000129713961C933296CF01DF91CF911F9198
:103F10000F91089500934F0310935003F4CF211590
:103F2000310551F04217530738F0A901DB019A011E
:103F3000BD01DF01F801C1CFEF01F9CF909350032C
:103F400080934F03CDCFFE01E20FF31F8193919336
:103F50002250310939832883D7CF20914D033091E6
:103F60004E03232B41F420910A0130910B01309331
:103F70004E0320934D032091080130910901211532
:103F8000310541F42DB73EB740910C0150910D0120
:103F9000241B350BE0914D03F0914E03E217F3071C
:103FA000A0F42E1B3F0B2817390778F0AC014E5FA9
:103FB0005F4F2417350748F04E0F5F1F50934E0395
:103FC00040934D03819391939FCFF0E0E0E09CCF2D
:103FD000CF93DF930097E9F0FC01329713821282AE
:103FE000A0914F03B0915003ED0130E020E0109715
:103FF000A1F420813181820F931F20914D033091D4
:104000004E032817390709F061C0F0934E03E0937F
:104010004D03DF91CF910895EA01CE17DF07E8F550
:104020004A815B819E0141155105B1F7E901FB838E
:10403000EA8349915991C40FD51FEC17FD0761F42C
:10404000808191810296840F951FE901998388836D
:10405000828193819B838A83F0E0E0E012968D91C8
:104060009C9113970097B9F52D913C911197CD0133
:104070000296820F931F20914D0330914E03281713
:10408000390739F6309751F51092500310924F03CB
:10409000B0934E03A0934D03BCCFD383C283408122
:1040A0005181840F951FC817D90761F44E5F5F4F88
:1040B00088819981480F591F518340838A819B8150
:1040C000938382832115310509F0B0CFF09350031B
:1040D000E0934F039ECFFD01DC01C0CF138212821B
:1040E000D7CFB0E0A0E0E7E7F0E20C94461E8C01E9
:1040F000009751F4CB010E944C1F8C01C801CDB731
:10410000DEB7E0E10C94621EFC01E60FF71F9C0194
:1041100022503109E217F30708F49DC0D901CD916F
:10412000DC911197C617D70798F0C530D10530F349
:10413000CE0104978617970708F3C61BD70B229763
:10414000C193D1936D937C93CF010E94E81FD6CF8A
:104150005B01AC1ABD0A4C018C0E9D1EA0914F0351
:10416000B0915003512C412CF12CE12C109731F5DA
:1041700080914D0390914E038815990509F05CC01C
:104180004616570608F058C0809108019091090121
:10419000009741F48DB79EB740910C0150910D01ED
:1041A000841B950BE817F90708F055C0F0934E03F0
:1041B000E0934D03F90171836083A0CF8D919C91B1
:1041C000119712966C90129713967C901397A815DE
:1041D000B90559F56C0142E0C40ED11CCA14DB04C8
:1041E00020F1AC014A195B09DA011296159780F0AB
:1041F0006282738251834083D9016D937C93E11471
:10420000F10471F0D7011396FC93EE93129776CFD9
:1042100022968C0F9D1FF90191838083F301EFCFCC
:10422000F0935003E0934F0369CF4816590608F402
:104230002C017D01D3019ACFCB010E944C1F7C0140
:10424000009749F0AE01B8010E943321C8010E94D5
:10425000E81F870153CF10E000E050CF81E090E0ED
:10426000F8940C944A21FB01DC0102C001900D92EC
:1042700041505040D8F70895DC0101C06D93415082
:104280005040E0F70895FB01DC0101900D92002001
:10429000E1F7089515E0C3E5D5E004C0FE010E94F2
:1042A000461F2196C435D107C9F7F894FFCF000007
:1042B00000400100000000005103800000000000E9
:1042C00024078406B1067107E206C006D406000082
:1042D0000000A410771058147E0570105D104E1069
:1042E000000000002D0C84065814E70F38097E05E5
:1042F000D20EAA0EC60EBA0E3A0F7E05F3090214AC
:10430000A808F108F30DD60D5E0DFF0C0D0A007321
:10431000636F7265203D200047414D45204F564553
:1043200052210077616974696E672E2E2E005477D2
:104330006973742049742100506F7572204974218B
:0A434000005269702049742100004A
:107E0000112484B714BE81FFF0D085E080938100F7
:107E100082E08093C00088E18093C10086E0809377
:107E2000C20080E18093C4008EE0C9D0259A86E02C
:107E300020E33CEF91E0309385002093840096BBD3
:107E4000B09BFECF1D9AA8958150A9F7CC24DD24C4
:107E500088248394B5E0AB2EA1E19A2EF3E0BF2EE7
:107E6000A2D0813461F49FD0082FAFD0023811F036
:107E7000013811F484E001C083E08DD089C08234E0
:107E800011F484E103C0853419F485E0A6D080C0E4
:107E9000853579F488D0E82EFF2485D0082F10E0AE
:107EA000102F00270E291F29000F111F8ED06801E7
:107EB0006FC0863521F484E090D080E0DECF843638
:107EC00009F040C070D06FD0082F6DD080E0C81688
:107ED00080E7D80618F4F601B7BEE895C0E0D1E017
:107EE00062D089930C17E1F7F0E0CF16F0E7DF06D8
:107EF00018F0F601B7BEE89568D007B600FCFDCFD4
:107F0000A601A0E0B1E02C9130E011968C91119780
:107F100090E0982F8827822B932B1296FA010C0160
:107F200087BEE89511244E5F5F4FF1E0A038BF0790
:107F300051F7F601A7BEE89507B600FCFDCF97BE46
:107F4000E89526C08437B1F42ED02DD0F82E2BD052
:107F50003CD0F601EF2C8F010F5F1F4F84911BD097
:107F6000EA94F801C1F70894C11CD11CFA94CF0C13
:107F7000D11C0EC0853739F428D08EE10CD085E9AC
:107F80000AD08FE07ACF813511F488E018D01DD067
:107F900080E101D065CF982F8091C00085FFFCCF94
:107FA0009093C60008958091C00087FFFCCF809118
:107FB000C00084FD01C0A8958091C6000895E0E648
:107FC000F0E098E1908380830895EDDF803219F02E
:107FD00088E0F5DFFFCF84E1DECF1F93182FE3DFCA
:107FE0001150E9F7F2DF1F91089580E0E8DFEE27F6
:047FF000FF270994CA
:027FFE00040479
:00000001FF
