:020000040000FA
:100000000C9462000C948A000C948A000C948A0070
:100010000C948A000C948A000C948A000C948A0038
:100020000C948A000C948A000C948A000C948A0028
:100030000C948A000C948A000C948A000C948A0018
:100040000C94AD020C948A000C941D030C94F702DE
:100050000C948A000C948A000C948A000C948A00F8
:100060000C948A000C948A000000000024002700F1
:100070002A0000000000250028002B0000000000DE
:1000800023002600290004040404040404040202DA
:100090000202020203030303030301020408102007
:1000A0004080010204081020010204081020000012
:1000B0000008000201000003040700000000000027
:1000C00000003C0411241FBECFEFD8E0DEBFCDBF3F
:1000D00011E0A0E0B1E0E8EAF2E102C005900D9283
:1000E000A232B107D9F721E0A2E2B1E001C01D922E
:1000F000A03DB207E1F710E0C2E6D0E004C02197CE
:10010000FE010E948106C136D107C9F70E944F0344
:100110000C9452090C940000833081F028F4813053
:1001200099F08230A9F008958730A9F08830C9F09D
:100130008430B1F4809180008F7D03C08091800075
:100140008F7780938000089584B58F7784BD08955C
:1001500084B58F7DFBCF8091B0008F778093B00006
:1001600008958091B0008F7DF9CFCF93DF93E2EBBC
:10017000F0E08491EEE9F0E0D491EAE8F0E0C49197
:10018000CC23A1F081110E948C00EC2FF0E0EE0F47
:10019000FF1FE458FF4FA591B491EC91ED2381E04E
:1001A00090E009F480E0DF91CF91089580E090E045
:1001B000FACF1F93CF93DF93282F30E0F901E25558
:1001C000FF4F8491F901E656FF4FD491F901EA57A8
:1001D000FF4FC491CC23A9F0162F81110E948C00EF
:1001E000EC2FF0E0EE0FFF1FEE58FF4FA591B491FA
:1001F0008FB7F894EC91111108C0D095DE23DC93F1
:100200008FBFDF91CF911F910895DE2BF8CFCF9351
:10021000C82F0E94B500019729F061E08C2F0E9441
:10022000D900F7CF60E08C2FCF910C94D900CF93F9
:10023000DF9390E0FC01E656FF4F24918A579F4FD1
:10024000FC0184918823D1F090E0880F991FFC0174
:10025000E859FF4FA591B491FC01EE58FF4FC591AD
:10026000D49161110EC09FB7F8948C91E22FE09564
:100270008E238C932881E223E8839FBFDF91CF9167
:1002800008958FB7F894EC91E22BEC938FBFF6CFE3
:100290003FB7F8948091C6019091C701A091C80121
:1002A000B091C90126B5A89B05C02F3F19F0019652
:1002B000A11DB11D3FBFBA2FA92F982F8827BC01C0
:1002C000CD01620F711D811D911D42E0660F771FE8
:1002D000881F991F4A95D1F708958F929F92AF92E8
:1002E000BF92CF92DF92EF92FF926B017C010E944E
:1002F00048014B015C01C114D104E104F104B9F0DF
:100300000E944801681979098A099B09683E73406F
:100310008105910580F321E0C21AD108E108F108B6
:1003200088EE880E83E0981EA11CB11CE4CFFF90DC
:10033000EF90DF90CF90BF90AF909F908F900895F7
:10034000AF92BF92CF92DF92EF92FF920F931F93E3
:10035000CF93DF936C017B018B01040F151FEB0121
:100360005E01AE18BF08C017D10759F06991D601D8
:10037000ED91FC910190F081E02DC6010995892B4A
:1003800079F7C501DF91CF911F910F91FF90EF9009
:10039000DF90CF90BF90AF900895FC01538D448DB6
:1003A000252F30E0842F90E0821B930B541710F020
:1003B000CF96089501970895FC01918D828D98172D
:1003C00061F0A28DAE0FBF2FB11D5D968C91928D05
:1003D0009F5F9F73928F90E008958FEF9FEF089536
:1003E000FC01918D828D981731F0828DE80FF11DFF
:1003F000858D90E008958FEF9FEF0895FC01918D1A
:10040000228D892F90E0805C9F4F821B91098F7312
:100410009927089582E291E00E94FE0121E0892B54
:1004200009F420E0822F089580E090E0892B29F0E4
:100430000E940A0281110C9400000895FC01A48D11
:10044000A80FB92FB11DA35ABF4F2C91848D90E0F6
:1004500001968F739927848FA689B7892C93A089D9
:10046000B1898C91837080648C93938D848D981363
:1004700006C00288F389E02D80818F7D80830895F6
:10048000EF92FF920F931F93CF93DF93EC0181E0E4
:10049000888F9B8D8C8D98131AC0E889F98980818B
:1004A00085FF15C09FB7F894EE89FF896083E889BE
:1004B000F98980818370806480839FBF81E090E0B0
:1004C000DF91CF911F910F91FF90EF900895F62E3D
:1004D0000B8D10E00F5F1F4F0F731127E02E8C8DD7
:1004E0008E110CC00FB607FCFACFE889F98980811C
:1004F00085FFF5CFCE010E941E02F1CFEB8DEC0FF0
:10050000FD2FF11DE35AFF4FF0829FB7F8940B8F38
:10051000EA89FB8980818062CFCFCF93DF93EC01A2
:10052000888D8823B9F0AA89BB89E889F9898C91DB
:1005300085FD03C0808186FD0DC00FB607FCF7CF97
:100540008C9185FFF2CF808185FFEDCFCE010E9497
:100550001E02E9CFDF91CF9108951F920F920FB63F
:100560000F9211242F933F938F939F93AF93BF9339
:100570008091C2019091C301A091C401B091C501C5
:100580003091C10123E0230F2D3758F50196A11DAD
:10059000B11D2093C1018093C2019093C301A09328
:1005A000C401B093C5018091C6019091C701A0918B
:1005B000C801B091C9010196A11DB11D8093C6016A
:1005C0009093C701A093C801B093C901BF91AF91A7
:1005D0009F918F913F912F910F900FBE0F901F9081
:1005E000189526E8230F0296A11DB11DD2CF1F92A8
:1005F0000F920FB60F9211242F933F934F935F9357
:100600006F937F938F939F93AF93BF93EF93FF93DA
:1006100082E291E00E941E02FF91EF91BF91AF91A3
:100620009F918F917F916F915F914F913F912F910A
:100630000F900FBE0F901F9018951F920F920FB63C
:100640000F9211242F938F939F93EF93FF93E09139
:100650003201F09133018081E0913801F09139014C
:1006600082FD1BC0908180913B018F5F8F73209131
:100670003C01821741F0E0913B01F0E0EE5DFE4F5E
:10068000958F80933B01FF91EF919F918F912F91D7
:100690000F900FBE0F901F9018958081F4CF789423
:1006A00084B5826084BD84B5816084BD85B5826077
:1006B00085BD85B5816085BD80916E008160809328
:1006C0006E00109281008091810082608093810091
:1006D00080918100816080938100809180008160A1
:1006E000809380008091B10084608093B1008091FC
:1006F000B00081608093B00080917A008460809324
:100700007A0080917A00826080937A0080917A00EA
:10071000816080937A0080917A00806880937A006B
:100720001092C100E0913201F091330182E08083A8
:10073000E0912E01F0912F011082E0913001F091B3
:1007400031018FEC808310923A01E0913601F091F3
:10075000370186E08083E0913401F091350180819A
:1007600080618083E0913401F0913501808188605F
:100770008083E0913401F09135018081806880832D
:10078000E0913401F091350180818F7D808310925A
:10079000C0011092BF0161E086E00E94170161E094
:1007A00087E00E94170161E088E00E94170160E085
:1007B00084E00E9417010E94B5002091BF01309192
:1007C000C001892B39F42F5F3F4F3093C001209334
:1007D000BF01F1CFC9010E94BA0410E000E0C2E0FD
:1007E000D0E083E0A82EB12C96E1C92E91E0D92E5D
:1007F00028EEE22E23E0F22E0E94B504B5010E94FD
:1008000059064C011F930F93DF92CF920E948706E7
:100810000F900F900F900F9086E08114910429F0B3
:1008200081E08816910411F587E00E940701CE9DB2
:10083000B001CF9D700DDE9D700D1124072E000CB0
:10084000880B990B0E946D01BE01DD0F880B990B7F
:100850000E94CD052AE037ED43EA5CE30E942805BB
:100860000E949505EB010F5F1F4FC6CF82E08816EF
:10087000910411F688E0D9CFE2E2F1E0138212820E
:1008800088EE93E0A0E0B0E084839583A683B783ED
:1008900088E091E09183808385EC90E09587848760
:1008A00084EC90E09787868780EC90E0918B808B3A
:1008B00081EC90E0938B828B82EC90E0958B848B23
:1008C00086EC90E0978B868B118E128E138E148E91
:1008D00008958F929F92AF92BF92CF92DF92EF9244
:1008E000FF92CF93DF93EC01688179818A819B81AC
:1008F000611571058105910521F464E279ED8BE5BF
:1009000097E02DE133EF41E050E00E94C50449013A
:100910005A019B01AC01A7EAB1E40E94E4046B0117
:100920007C01ACEEB4EFA50194010E94F204DC015D
:10093000CB018C0D9D1DAE1DBF1DB7FF03C00197E0
:10094000A109B04888839983AA83BB839F77DF91ED
:10095000CF91FF90EF90DF90CF90BF90AF909F909E
:100960008F9008950E946904089580E091E00E94AC
:1009700069040895B0E0A0E0809300019093010124
:10098000A0930201B09303010895052E97FB1EF476
:1009900000940E94DC0457FD07D00E94F70407FC76
:1009A00003D04EF40C94DC0450954095309521957D
:1009B0003F4F4F4F5F4F089590958095709561958B
:1009C0007F4F8F4F9F4F08950E941905A59F900D4F
:1009D000B49F900DA49F800D911D11240895B7FF21
:1009E0000C94E4040E94E404821B930B0895A1E29A
:1009F0001A2EAA1BBB1BFD010DC0AA1FBB1FEE1F99
:100A0000FF1FA217B307E407F50720F0A21BB30BE3
:100A1000E40BF50B661F771F881F991F1A9469F75F
:100A200060957095809590959B01AC01BD01CF01BB
:100A30000895A29FB001B39FC001A39F700D811DB7
:100A40001124911DB29F700D811D1124911D0895D7
:100A50005058BB27AA270E9440050C941F060E94ED
:100A6000110638F00E94180620F039F49F3F19F45F
:100A700026F40C940E060EF4E095E7FB0C940806A1
:100A8000E92F0E94300658F3BA17620773078407EC
:100A9000950720F079F4A6F50C9452060EF4E09533
:100AA0000B2EBA2FA02D0B01B90190010C01CA0128
:100AB000A0011124FF27591B99F0593F50F4503ED3
:100AC00068F11A16F040A22F232F342F4427585FC5
:100AD000F3CF469537952795A795F0405395C9F7DD
:100AE0007EF41F16BA0B620B730B840BBAF0915095
:100AF000A1F0FF0FBB1F661F771F881FC2F70EC034
:100B0000BA0F621F731F841F48F487957795679506
:100B1000B795F7959E3F08F0B0CF9395880F08F0F2
:100B20009927EE0F9795879508950E949C056894E4
:100B3000B1110C94530608950E94380688F09F570F
:100B400098F0B92F9927B751B0F0E1F0660F771FF1
:100B5000881F991F1AF0BA95C9F714C0B13091F0E7
:100B60000E945206B1E008950C945206672F782F28
:100B70008827B85F39F0B93FCCF3869577956795AC
:100B8000B395D9F73EF490958095709561957F4F18
:100B90008F4F9F4F0895E89409C097FB3EF49095BE
:100BA0008095709561957F4F8F4F9F4F9923A9F046
:100BB000F92F96E9BB279395F695879577956795D5
:100BC000B795F111F8CFFAF4BB0F11F460FF1BC019
:100BD0006F5F7F4F8F4F9F4F16C0882311F096E9AC
:100BE00011C0772321F09EE8872F762F05C066235A
:100BF00071F096E8862F70E060E02AF09A95660F13
:100C0000771F881FDAF7880F9695879597F90895CB
:100C100097F99F6780E870E060E008959FEF80ECAF
:100C2000089500240A941616170618060906089552
:100C300000240A9412161306140605060895092EB8
:100C40000394000C11F4882352F0BB0F40F4BF2B27
:100C500011F460FF04C06F5F7F4F8F4F9F4F089567
:100C600057FD9058440F551F59F05F3F71F047955D
:100C7000880F97FB991F61F09F3F79F08795089542
:100C8000121613061406551FF2CF4695F1DF08C061
:100C9000161617061806991FF1CF8695710561057E
:100CA00008940895E894BB2766277727CB0197F926
:100CB000089597FB072E16F4009407D077FD09D00E
:100CC0000E946D0607FC05D03EF4909581959F4FDC
:100CD0000895709561957F4F0895AA1BBB1B51E144
:100CE00007C0AA1FBB1FA617B70710F0A61BB70B9C
:100CF000881F991F5A95A9F780959095BC01CD0141
:100D00000895EE0FFF1F0590F491E02D0994B0E0D7
:100D1000A0E0EDE8F6E00C942B09AE014B5F5F4FCD
:100D2000FA0161917191AF018091CC019091CD0157
:100D30000E949D06E2E00C944709ABE0B0E0E3EAD4
:100D4000F6E00C941B097C013B018A01FC0117822F
:100D50001682838181FFC8C1CE0101965C01F70133
:100D60009381F30193FD859193FF81913F01882346
:100D700009F453C1853239F493FD859193FF819134
:100D80003F01853229F4B70190E00E948D08E7CF3A
:100D9000912C212C312CFFE1F31538F08B3211F11D
:100DA00090F4803209F1833229F137FC3CC020ED08
:100DB000280F2A3050F536FE20C08AE0989E200D7C
:100DC0001124922E06C08D3291F0803371F7689411
:100DD00030F8F30193FD859193FF81913F018111DB
:100DE000DACF21C0689431F8689432F8F2CF689471
:100DF00033F8EFCF689434F8ECCFEAE02E9E200D64
:100E00001124222E689435F8E4CF8E3229F436FC72
:100E100004C1689436F8DDCF8C3619F4689437F83D
:100E2000D8CF8836B1F2982F9F7D95549330E0F05B
:100E30008336A1F18337C1F1833509F063C02801FE
:100E4000F2E04F0E511CF801C080D180692D70E096
:100E500036FC02C06FEF7FEFC6010E9477084C019D
:100E6000689437F882010AC00C5F1F4FFFE3F983D3
:100E700088248394912C6501E89437F833FE2DC0C3
:100E8000522C8114910471F5552009F468CFB701F3
:100E900080E290E00E948D085A94F6CFF80180819C
:100EA00089830E5F1F4FE4CF2801F2E04F0E511CE3
:100EB000F801C080D180692D70E036FC02C06FEF70
:100EC0007FEFC6010E9482084C018201D5CFB70195
:100ED00080E290E00E948D082A942814190409F0F9
:100EE000B0F7CECFF60137FC859137FE81916F01C7
:100EF000B70190E00E948D0851105A94F1E08F1ACA
:100F00009108BFCF843619F0893609F077C0F8010F
:100F100037FE6BC060817181828193810C5F1F4FAE
:100F2000F32DFF763F2E97FF09C090958095709521
:100F300061957F4F8F4F9F4F689437F82AE030E0DC
:100F4000A5010E94BD08C82ECA188C2C432C36FE61
:100F50000CC0E89440F8C91440F434FE05C032FCDB
:100F600003C0F32DFE7E4F2E892C44FE95C0FE015A
:100F7000EC0DF11D8081803309F087C0242D297E7E
:100F8000422E842D8870582E43FC95C040FE8FC0A1
:100F90009C2C821418F42C0C922C981844FE91C0AE
:100FA000B70180E390E00E948D0842FE09C088E707
:100FB00090E041FE02C088E590E0B7010E948D08F4
:100FC000C91408F48AC0CA94D12C9FEFC91AD90A4F
:100FD000CA0CDB1CF60182916F01B70190E00E9400
:100FE0008D08AC14BD04B1F74FCF60817181072E1D
:100FF000000C880B990B0E5F1F4F92CFD32CE894F7
:10100000D4F82AE030E0853739F1232D297FD22E1C
:101010008F3601F148F48835A9F0F7018681978170
:101020002B96E2E10C943709803749F08837A9F70D
:10103000D4FE02C06894D2F820E130E00DC068947C
:10104000D4F8F6CF34FE03C0822F8660D82E20E17C
:1010500032E002C028E030E0F801D7FE0FC0608126
:101060007181828193810C5F1F4FA5010E94BD0891
:10107000C82ECA183D2CE89437F867CF608171817B
:1010800090E080E00E5F1F4FF0CF42FC02C08394DF
:1010900078CF8394839475CF842D867809F471CFAB
:1010A000F6CFB70180E290E00E948D08839482140D
:1010B000C0F3512C73CF522C5818821408F46ECF01
:1010C000F8CF842D867809F47BCF8BE241FE80E255
:1010D00047FC8DE2B70190E071CFB70180E390E06B
:1010E0000E948D089A946CCF8FEF9FEF99CFFC01EF
:1010F0000590615070400110D8F7809590958E0F43
:101100009F1F0895FC016150704001900110D8F7B5
:10111000809590958E0F9F1F08950F931F93CF93E7
:10112000DF93182F092FEB018B8181FD09C01FEF81
:101130000FEF812F902FDF91CF911F910F91089585
:1011400082FF14C02E813F818C819D812817390731
:101150003CF4E881F981CF0101969983888310835B
:101160008E819F8101969F838E83E3CFE885F985E9
:10117000812F0995892BA1F3DACFFA01AA2728300C
:1011800051F1203181F1E8946F936E7F6E5F7F4F54
:101190008F4F9F4FAF4FB1E03ED0B4E03CD0670FD0
:1011A000781F891F9A1FA11D680F791F8A1F911D23
:1011B000A11D6A0F711D811D911DA11D20D009F473
:1011C00068943F912AE0269F11243019305D3193B5
:1011D000DEF6CF010895462F4770405D4193B3E09E
:1011E0000FD0C9F7F6CF462F4F70405D4A3318F045
:1011F000495D31FD4052419302D0A9F7EACFB4E0F6
:10120000A6959795879577956795BA95C9F70097AD
:101210006105710508959B01AC010A2E069457954E
:10122000479537952795BA95C9F7620F731F841FA5
:10123000951FA01D08952F923F924F925F926F923B
:101240007F928F929F92AF92BF92CF92DF92EF9256
:10125000FF920F931F93CF93DF93CDB7DEB7CA1BD7
:10126000DB0B0FB6F894DEBF0FBECDBF09942A8802
:10127000398848885F846E847D848C849B84AA84AA
:10128000B984C884DF80EE80FD800C811B81AA8137
:10129000B981CE0FD11D0FB6F894DEBF0FBECDBF02
:1012A000ED010895F894FFCF010000000000000058
:1012B0004002A001CD018D02FE01DC01F00153636B
:0A12C0006F72653A2025640A0000F1
:107E0000112484B714BE81FFF0D085E080938100F7
:107E100082E08093C00088E18093C10086E0809377
:107E2000C20080E18093C4008EE0C9D0259A86E02C
:107E300020E33CEF91E0309385002093840096BBD3
:107E4000B09BFECF1D9AA8958150A9F7CC24DD24C4
:107E500088248394B5E0AB2EA1E19A2EF3E0BF2EE7
:107E6000A2D0813461F49FD0082FAFD0023811F036
:107E7000013811F484E001C083E08DD089C08234E0
:107E800011F484E103C0853419F485E0A6D080C0E4
:107E9000853579F488D0E82EFF2485D0082F10E0AE
:107EA000102F00270E291F29000F111F8ED06801E7
:107EB0006FC0863521F484E090D080E0DECF843638
:107EC00009F040C070D06FD0082F6DD080E0C81688
:107ED00080E7D80618F4F601B7BEE895C0E0D1E017
:107EE00062D089930C17E1F7F0E0CF16F0E7DF06D8
:107EF00018F0F601B7BEE89568D007B600FCFDCFD4
:107F0000A601A0E0B1E02C9130E011968C91119780
:107F100090E0982F8827822B932B1296FA010C0160
:107F200087BEE89511244E5F5F4FF1E0A038BF0790
:107F300051F7F601A7BEE89507B600FCFDCF97BE46
:107F4000E89526C08437B1F42ED02DD0F82E2BD052
:107F50003CD0F601EF2C8F010F5F1F4F84911BD097
:107F6000EA94F801C1F70894C11CD11CFA94CF0C13
:107F7000D11C0EC0853739F428D08EE10CD085E9AC
:107F80000AD08FE07ACF813511F488E018D01DD067
:107F900080E101D065CF982F8091C00085FFFCCF94
:107FA0009093C60008958091C00087FFFCCF809118
:107FB000C00084FD01C0A8958091C6000895E0E648
:107FC000F0E098E1908380830895EDDF803219F02E
:107FD00088E0F5DFFFCF84E1DECF1F93182FE3DFCA
:107FE0001150E9F7F2DF1F91089580E0E8DFEE27F6
:047FF000FF270994CA
:027FFE00040479
:00000001FF
