:100000000C9447050C946F050C946F050C946F05C8
:100010000C946F050C946F050C946F050C946F0590
:100020000C946F050C946F050C946F050C946F0580
:100030000C946F050C946F050C946F050C946F0570
:100040000C9498190C946F050C94081A0C94E219EE
:100050000C946F050C946F050C946F050C946F0550
:100060000C943A1A0C946F0500000000003E5B4FA0
:100070005B3E3E6B4F6B3E1C3E7C3E1C183C7E3C08
:10008000181C577D571C1C5E7F5E1C00183C180016
:10009000FFE7C3E7FF0018241800FFE7DBE7FF30A6
:1000A000483A060E2629792926407F050507407F14
:1000B00005253F5A3CE73C5A7F3E1C1C08081C1C87
:1000C0003E7F14227F22145F5F005F5F06097F017D
:1000D0007F006689956A606060606094A2FFA29468
:1000E00008047E040810207E201008082A1C080836
:1000F0001C2A08081E101010100C1E0C1E0C303884
:100100003E3830060E3E0E06000000000000005F84
:1001100000000007000700147F147F14242A7F2AA0
:100120001223130864623649562050000807030062
:10013000001C2241000041221C002A1C7F1C2A08AE
:10014000083E080800807030000808080808000011
:1001500060600020100804023E5149453E00427F85
:10016000400072494949462141494D331814127FD4
:100170001027454545393C4A494931412111090774
:100180003649494936464949291E000014000000F5
:1001900040340000000814224114141414140041C7
:1001A00022140802015909063E415D594E7C121184
:1001B000127C7F494949363E414141227F414141BC
:1001C0003E7F494949417F090909013E4141517337
:1001D0007F0808087F00417F41002040413F017FA8
:1001E000081422417F404040407F021C027F7F0470
:1001F00008107F3E4141413E7F090909063E4151B9
:10020000215E7F09192946264949493203017F01A8
:10021000033F4040403F1F2040201F3F4038403FA9
:10022000631408146303047804036159494D4300BF
:100230007F4141410204081020004141417F0402F6
:10024000010204404040404000030708002054548D
:1002500078407F284444383844444428384444286B
:100260007F385454541800087E090218A4A49C78BE
:100270007F0804047800447D40002040403D007F1A
:100280001028440000417F40007C047804787C08FA
:100290000404783844444438FC18242418182424CE
:1002A00018FC7C08040408485454542404043F44B3
:1002B000243C4040207C1C2040201C3C4030403CE2
:1002C00044281028444C9090907C4464544C440042
:1002D00008364100000077000000413608000201A6
:1002E0000204023C2623263C1EA1A161123A404092
:1002F000207A38545455592155557941225454780F
:1003000042215554784020545579400C1E527212A7
:100310003955555559395454545939555454580030
:1003200000457C410002457D420001457C407D1234
:1003300011127DF0282528F07C5455450020545496
:100340007C547C0A097F4932494949323A44444441
:100350003A324A4848303A4141217A3A424020787C
:10036000009DA0A07D3D4242423D3D4040403D3C7D
:1003700024FF2424487E4943662B2FFC2F2BFF09A2
:1003800029F620C0887E0903205454794100004496
:100390007D413048484A32384040227A007A0A0A81
:1003A000727D0D19317D2629292F282629292926F4
:1003B00030484D4020380808080808080808382F39
:1003C00010C8ACBA2F102834FA00007B00000814C3
:1003D0002A142222142A14085500550055AA55AA99
:1003E00055AAFF55FF55FF000000FF00101010FF39
:1003F00000141414FF001010FF00FF1010F010F094
:10040000141414FC001414F700FF0000FF00FF1484
:1004100014F404FC141417101F10101F101F1414D0
:10042000141F00101010F0000000001F101010101A
:100430001F10101010F010000000FF10101010100E
:1004400010101010FF10000000FF140000FF00FF4C
:1004500000001F10170000FC04F4141417101714E8
:1004600014F404F40000FF00F7141414141414140A
:10047000F700F7141414171410101F101F1414147D
:10048000F4141010F010F000001F101F0000001FE7
:1004900014000000FC140000F010F01010FF10FF1A
:1004A000141414FF141010101F00000000F010FFAF
:1004B000FFFFFFFFF0F0F0F0F0FFFFFF0000000093
:1004C00000FFFF0F0F0F0F0F3844443844FC4A4A17
:1004D0004A347E02020606027E027E0263554941CC
:1004E000633844443C04407E201E2006027E020203
:1004F00099A5E7A5991C2A492A1C4C7201724C3017
:100500004A4D4D303048784830BC625A463D3E49ED
:100510004949007E0101017E2A2A2A2A2A44445F91
:10052000444440514A444040444A51400000FF0185
:1005300003E080FF000008086B6B08361236243693
:10054000060F090F060000181800000010100030F8
:1005500040FF0101001F01011E00191D1712003C80
:100560003C3C3C0000000000000103070F1F3F7FE0
:100570000080C0E0F0F8FCFEDB40A4A62EAF200017
:10058000A1C8D300408DAED580A800006000000057
:100590000000000000000000000000E0000000007B
:1005A00000000000000000000001E000000000006A
:1005B000000000000000000001F00000000000004A
:1005C0000000000000000003F00000000000000038
:1005D00000000000000007F0000000000000000024
:1005E000000000000007F80000000000000000000C
:1005F000000000000FF800000003C0007E000001B2
:10060000E0007F0FF800000003C000FE000001E0E2
:1006100000FFEFF800000003C000FE000001E00052
:10062000FFFFF800000003C000F00000000F007F93
:10063000FE7FC0000003C000F00000000F003FFE7E
:100640007FF83FF1FBCFFCFEF3BC3DEFE01FFE7FE8
:10065000FF7FFBFFDFFEFEFFBC3DEFE01FC6FFFF9D
:100660007FFBFFDFFEFEFFBC3DEFE00FE3C7FE7840
:100670007BC3DE1EF0FFBC3DEF0007FF87FC787BED
:10068000C3DE1EF0F83C3DEF0001FFFFF0007BC32E
:10069000C01EF0F03C3DEF0001F37FE03FFBC3CF15
:1006A000FEF0F03C3DEF0003E33F807FFBC3DFFE45
:1006B000F0F03C3DEF0007E73C00787BC3DE1EF026
:1006C000F03C3DEF0007FFBE00787BC3DE1EF0F07C
:1006D0003C3DEF0007FFFE00787BC3DE1EF0F03CE0
:1006E0003DEF000FFFFE007FFBFFDFFEF0F03FFD60
:1006F000EFE00FFFFF007FFBFFDFFEF0F03FFDEFBD
:10070000E00FF9FF003E79F9CF9EF0F01F3DE7E0E2
:100710001FF1FF0000000000000000000000001FAB
:1007200080FF007FFFFFFFFFFFFFFFFFFFE01C00D8
:100730007F007FFFFFFFFEB46D888D18E000001F73
:10074000007FFFFFFFFE95AD7DB577E000000F0055
:100750007FFFFFFFFEA5AD9D8D19E0000006007F25
:10076000FFFFFFFEB5ADEDB57EE00000000000012B
:100770008000000000000000000003800000000076
:10078000000000000007C0000000000000000000A2
:1007900007C00000000000000000000FC0000000C3
:1007A0000000000000001FE000000000000000004A
:1007B000001FE00000000000000000003FE000001B
:1007C000000000000000003FF000000000000000FA
:1007D00000007FF0000000000000001FF87FF00024
:1007E0000000000000003FFE7FF00000000000005D
:1007F000003FFF7FF0000000000000001FFFFBE053
:10080000000000000000000FFFF9FFC00000000022
:1008100000000FFFF9FFF800000000000007FFF1E3
:10082000FFFF00000000000003FC73FFFF800000DA
:1008300000000001FE3FFFFF80000000000000FFFD
:100840001E0FFF000000000000007FFE1FFC0000E4
:1008500000000000003FFFFFF80000000000000063
:100860000FDFFFE0000000000000001F19FFC000C4
:100870000000000000003F3CFF00000000000000FE
:10088000007E7CF800000000000000007FFE7C007D
:1008900000000000000000FFFFFC0000000000005E
:1008A0000000FFFFFE0000000000000000FFFFFE50
:1008B0000000000000000001FFEFFE00000000004B
:1008C000000001FFCFFE0000000000000003FF0752
:1008D000FE0000000000000003FC07FE0000000016
:1008E00000000003F003FE00000000000000018093
:1008F00000FE000000000000000000007E0000007C
:10090000000000000000003E0000000000000000A9
:1009100000000C000000000000078000FC00000345
:10092000C0000000078001FC000003C000000007B9
:100930008001FC000003C0000000078001E000000F
:10094000001E000000078001E00000001E007FE3A1
:10095000F79FF9FDE7787BDFC0FFF7FFBFFDFDFFE5
:10096000787BDFC0FFF7FFBFFDFDFF787BDFC0F0C6
:10097000F787BC3DE1FF787BDE00F0F787BC3DE107
:10098000F0787BDE0000F787803DE1E0787BDE00D9
:100990007FF7879FFDE1E0787BDE00FFF787BFFDF3
:1009A000E1E0787BDE00F0F787BC3DE1E0787BDEBC
:1009B00000F0F787BC3DE1E0787BDE00F0F787BC14
:1009C0003DE1E0787BDE00FFF7FFBFFDE1E07FFB6C
:1009D000DFC0FFF7FFBFFDE1E07FFBDFC07CF3F38B
:1009E0009F3DE1E03E7BCFC0000000000000000022
:1009F000000000FFFFFFFFFFFFFFFFFFFFC0FFFF43
:100A0000FFFFFD68DB111A31C0FFFFFFFFFD2B5A0E
:100A1000FB6AEFC0FFFFFFFFFD4B5B3B1A33C0FFDC
:100A2000FFFFFFFD6B5BDB6AFDC0000000002400E0
:100A300027002A0000000000250028002B000000ED
:100A40000000230026002900040404040404040414
:100A50000202020202020303030303030102040869
:100A60001020408001020408102001020408102018
:100A7000000000080002010000030407000000005D
:100A8000000000002200FF210000591B161F112446
:100A90001FBECFEFD8E0DEBFCDBF11E0A0E0B1E0D8
:100AA000EAE4F8E402C005900D92A23AB107D9F742
:100AB00023E0A2EAB1E001C01D92A438B207E1F739
:100AC00015E0C6E4D5E004C02197FE010E9414227F
:100AD000C534D107C9F70E94F01B0C9418240C945C
:100AE00000000895FC01538D448D252F30E0842FA4
:100AF00090E0821B930B541710F0CF960895019746
:100B00000895FC01918D828D981761F0A28DAE0F32
:100B1000BF2FB11D5D968C91928D9F5F9F73928FB9
:100B200090E008958FEF9FEF0895FC01918D828DE5
:100B3000981731F0828DE80FF11D858D90E00895B2
:100B40008FEF9FEF0895FC01918D228D892F90E00A
:100B5000805C9F4F821B91098F7399270895FC0138
:100B6000A48DA80FB92FB11DA35ABF4F2C91848D0E
:100B700090E001968F739927848FA689B7892C936B
:100B8000A089B1898C91837080648C93938D848DBE
:100B9000981306C00288F389E02D80818F7D8083C1
:100BA0000895EF92FF920F931F93CF93DF93EC0181
:100BB00081E0888F9B8D8C8D98131AC0E889F98904
:100BC000808185FF15C09FB7F894EE89FF89608307
:100BD000E889F98980818370806480839FBF81E088
:100BE00090E0DF91CF911F910F91FF90EF900895CA
:100BF000F62E0B8D10E00F5F1F4F0F731127E02EA5
:100C00008C8D8E110CC00FB607FCFACFE889F989DC
:100C1000808185FFF5CFCE010E94AF05F1CFEB8D2E
:100C2000EC0FFD2FF11DE35AFF4FF0829FB7F894B0
:100C30000B8FEA89FB8980818062CFCFCF93DF93CE
:100C4000EC01888D8823B9F0AA89BB89E889F989E4
:100C50008C9185FD03C0808186FD0DC00FB607FC19
:100C6000F7CF8C9185FFF2CF808185FFEDCFCE014C
:100C70000E94AF05E9CFDF91CF91089586E792E01A
:100C80000E94A30521E0892B09F420E0822F08951A
:100C900080E090E0892B29F00E943E0681110C949F
:100CA00000000895833081F028F4813099F082307B
:100CB000A9F008958730A9F08830C9F08430B1F4E4
:100CC000809180008F7D03C0809180008F7780931A
:100CD0008000089584B58F7784BD089584B58F7D95
:100CE000FBCF8091B0008F778093B0000895809102
:100CF000B0008F7DF9CFCF93DF93E5E7FAE08491E1
:100D0000E1E6FAE0D491EDE4FAE0C491CC23A1F05D
:100D100081110E945206EC2FF0E0EE0FFF1FE25C03
:100D2000F54FA591B491EC91ED2381E090E009F4A9
:100D300080E0DF91CF91089580E090E0FACF1F939B
:100D4000CF93DF93282F30E0F901E059F54F8491DC
:100D5000F901E45AF54FD491F901E85BF54FC491DC
:100D6000CC23A9F0162F81110E945206EC2FF0E03F
:100D7000EE0FFF1FEC5CF54FA591B4918FB7F8947F
:100D8000EC91111108C0D095DE23DC938FBFDF9169
:100D9000CF911F910895DE2BF8CFCF93DF9390E092
:100DA000FC01E45AF54F2491885B954FFC01849136
:100DB0008823D1F090E0880F991FFC01E65DF54F84
:100DC000A591B491FC01EC5CF54FC591D4916111F2
:100DD0000EC09FB7F8948C91E22FE0958E238C93F0
:100DE0002881E223E8839FBFDF91CF9108958FB7D9
:100DF000F894EC91E22BEC938FBFF6CF8E50806489
:100E000080937C0080917A00806480937A00809146
:100E10007A0086FDFCCF809178009091790008954A
:100E20003FB7F89480916E0290916F02A09170028A
:100E3000B091710226B5A89B05C02F3F19F001960D
:100E4000A11DB11D3FBFBA2FA92F982F8827BC0124
:100E5000CD01620F711D811D911D42E0660F771F4C
:100E6000881F991F4A95D1F708958F929F92AF924C
:100E7000BF92CF92DF92EF92FF924B015C010E94F2
:100E800010076B017C010E9410076C197D098E0907
:100E90009F09683E734081059105A8F321E0821AFD
:100EA0009108A108B10888EEC80E83E0D81EE11CA5
:100EB000F11C81149104A104B10429F7FF90EF9073
:100EC000DF90CF90BF90AF909F908F9008952FB7F5
:100ED000F89460916A0270916B0280916C0290911B
:100EE0006D022FBF089508950895AF92BF92CF92DB
:100EF000DF92EF92FF920F931F93CF93DF936C01DA
:100F00007B018B01040F151FEB015E01AE18BF08BA
:100F1000C017D10759F06991D601ED91FC9101906C
:100F2000F081E02DC6010995892B79F7C501DF9184
:100F3000CF911F910F91FF90EF90DF90CF90BF90D6
:100F4000AF900895FC0144815581608171818EE2EA
:100F500093E00C9475078091610290916202891B65
:100F6000990B0895EF92FF920F931F93CF93DF9306
:100F7000EC01EC80FD806E157F050CF070C057FF12
:100F800004C0240F351F50E040E08E819F81FA019C
:100F9000E20FF31F8E179F071CF49C01241B350BD7
:100FA000121613060CF05BC0922F842F869586953F
:100FB00086958E9DD0018F9DB00D11246A0F7B1FE9
:100FC000AF8DB8A1A60FB71F477049F188E0841B09
:100FD000482F682F70E0FB01E059FA4FE491281781
:100FE00008F063C0621B71092FEF30E002C0359535
:100FF00027956A95E2F7E2230130110539F0B0F147
:101000000230110561F58C91E82702C08C91E82B24
:10101000EC93941720F12C813D81A20FB31FE92F8F
:10102000E41BE83078F00230110521F58E2F9C91F9
:1010300090959C932C813D81A20FB31F88508830DE
:10104000B0F7E770EE2359F0F0E0E859FA4FE49179
:1010500001301105F9F010F10230110519F1DF919D
:10106000CF911F910F91FF90EF900895E0958C9193
:10107000E823CECF81E00115110509F480E08195C8
:101080009E2F8C932C813D81A20FB31F98509830D6
:10109000C0F7D7CF8C91E82BEC93E1CFE0958C9102
:1010A000E823FACF8C91E827F7CF0130110509F436
:1010B000ADCFE0F20230110509F4A5CFAE0DBF1D92
:1010C000AECF0F931F93CF93DF9377FF04C0260F0C
:1010D000371F70E060E0DC011496CD91DC91FB01DC
:1010E000E20FF31FCE17DF071CF49E01261B370B00
:1010F000121613064CF5FA0157FD3796A3E0F59545
:10110000E795AA95E1F7EC9FD001ED9FB00DFC9F0C
:10111000B00D11246A0F7B1FDC015F96ED91FC91ED
:10112000E60FF71F4770552781E090E001C0880F58
:101130004A95EAF7482F0130110559F0A8F02E0F13
:101140003F1F02301105E1F0DF91CF911F910F9108
:1011500008952E0F3F1FE217F307B1F38191DF01CE
:101160001197842B8C93F7CF80952E0F3F1FE2179A
:10117000F30751F39191DF01119798239C93F7CFD7
:10118000E217F30709F38191DF01119784278C930C
:10119000F7CF0F931F93FA01DC0156964C915697A7
:1011A0004230E9F04330A1F1413061F514964D91A0
:1011B0005C91DA01AE1BBF0BFD01E21BF30B77FD67
:1011C0000BC0DC0116964D915C916417750724F4F1
:1011D000AB01BF010E9461081F910F910895149601
:1011E0004D915C91DA01A61BB70BBD0161507109ED
:1011F000DC0116964D915C91DA01AE1BBF0BFD012F
:10120000E21BF30B77FDE8CFAF010E94B207E4CFFA
:1012100016964D915C91DA01A61BB70BBD0161508A
:101220007109CDCF0F931F93FA01DC0156964C91B3
:1012300056974230A9F0433091F1413019F5149698
:101240004D915C91DA01AE1BBF0BFD013197F7FDAB
:1012500004C0AB01BF010E94B2071F910F91089516
:1012600014964D915C91DA01A61BB70BBD01DC0110
:1012700016964D915C91DA01AE1BBF0BFD013197C3
:10128000621B730BF7FDE9CFDC0116964D915C9163
:10129000E417F50714F7AF010E946108DECF169638
:1012A0004D915C91DA01A61BB70BBD01621B730B5C
:1012B000CECFFC0177FD64C08085918568177907E2
:1012C0000CF05EC057FD5CC08285938548175907B6
:1012D0000CF056C086898230B1F0833029F181301C
:1012E00041F484819581841B950BAB01BC01615055
:1012F00071092130310509F108F443C0223031056C
:1013000009F463C0089584819581DC01A61BB70BA5
:10131000BD016150710986819781DC01A41BB50B69
:10132000AD0141505109E5CF86819781861B970B0E
:10133000BA01AC0141505109DCCFCA0157FD0796F3
:10134000A3E095958795AA95E1F7A481B5818A9F39
:1013500090018B9F300D9A9F300D1124620F731FE7
:10136000078CF0A1E02DE60FF71F4770552721E00D
:1013700030E001C0220F4A95EAF78081822B8083FA
:101380000895CA0157FD079633E0959587953A95DC
:10139000E1F7A481B5818A9F90018B9F300D9A9FC0
:1013A000300D1124620F731F078CF0A1E02DE60FA2
:1013B000F71F4770552781E090E001C0880F4A95DC
:1013C000EAF7809590818923DACFCA0157FD079605
:1013D00023E0959587952A95E1F7A481B5818A9FA9
:1013E00090018B9F300D9A9F300D1124620F731F57
:1013F000078CF0A1E02DE60FF71F4770552721E07D
:1014000030E001C0220F4A95EAF780818227B7CFEA
:1014100008958EBD00000DB407FEFDCF8EB5089572
:101420008CBD9DBD08950895FC016370668B848119
:10143000958126813781613039F0633029F09187B9
:101440008087338722870895318720879387828713
:1014500008952F923F924F925F926F927F928F9258
:101460009F92AF92BF92CF92DF92EF92FF920F9333
:101470001F93CF93DF93CDB7DEB76A970FB6F8947B
:10148000DEBF0FBECDBF9A8F898F7A8369834A01F1
:10149000D22E18870F833701BC2CDC0159962D9171
:1014A0003C915A972115310509F015C118968D9177
:1014B0009C911997681779070CF0D7C11A968D91EE
:1014C0009C91481759070CF0D0C14C2C512CB6E018
:1014D000CB9E600D711D11247C876B871616170635
:1014E0000CF0C3C1EA2DF0E0FA87E98793E0EE0F34
:1014F000FF1F9A95E1F7F88BEF87CF01840F951FB7
:10150000181619060CF0B1C1A98DBA8D58968C9198
:10151000811104C0BFEABD1508F4D394A98DBA8D1A
:10152000ED91FC9111970284F385E02DCD01099591
:10153000B5E0DB9EC0011124E981FA81FC83EB83D5
:10154000312C212C9C0128593F4F388F2F8B4A2D4D
:1015500050E05E8B4D8BEF89F88DE20DF31D4491C9
:101560009E828D82D12CC12C69817A81620D731D7E
:101570007A8B698B842F90E09C8B8B8BE98DFA8D15
:10158000A081B18140FF82C0F1E0BF126FC0AF12F5
:101590006DC01C96ED91FC912F813885A4014C0DF6
:1015A0005D1D69897A89898D9A8D0995EB89FC89F8
:1015B000F595E7954E2F5FEFC51AD50A6D817E81AF
:1015C0008D899E89680F791F7E836D8398E0C91687
:1015D000D10481F6AFEF2A1A3A0AEB81FC81E40DBF
:1015E000F51DFC83EB83F5E02F16310409F0B3CF32
:1015F0002F81388526153705B9F0A98DBA8DED9163
:10160000FC91B1E0BB1257C0AB1255C069817A8121
:101610006B5F7F4F0088F189E02D830128E030E087
:10162000A401898D9A8D0995A98DBA8DED91FC91B2
:1016300011970688F789E02DCD016A960FB6F894C8
:10164000DEBF0FBECDBFDF91CF911F910F91FF90F5
:10165000EF90DF90CF90BF90AF909F908F907F9052
:101660006F905F904F903F902F9009941E96ED9150
:10167000FC91EF80F88409851A8592014D815E8185
:101680006B817C81898D9A8D099590CF2F813885CA
:101690002615370509F48ACF31E0B31207C0A3122B
:1016A00005C01C96ED91FC91930178CF1E96ED91AB
:1016B000FC917301E0CF6B857C8564197509068404
:1016C000F785E02D73010F8518899201A401898D9A
:1016D0009A8D0995A9CFF901349694913297459145
:1016E0005491D91AB7E0DB9E400D511D1124F90128
:1016F000259134913C8B2B8BFA0125903490FA0183
:101700003296749031963491398B3296649031963A
:10171000449041E04C1518F04A1508F07FC0662D42
:10172000062C000C770B7C836B83842D042C000C1F
:10173000990B9E838D83A98DBA8DED91FC911197A4
:101740000284F385E02DCD010995512CD12CC12CBB
:10175000EA2DF0E0FA87E9872B2D30E03C872B87D4
:10176000A401440D511D47FC5A95588F4F8B698138
:101770007A81660D711D67FC7A957E876D87798900
:10178000C71608F051CF2C2D30E04D815E81420FFD
:10179000531FA985BA854A9FC0014B9F900D5A9F40
:1017A000900D1124FC01E80DF91DF88BEF87852DB4
:1017B000612C4F89588D420F531F5E8B4D8B6714E0
:1017C00008F050C044244394480E877041F4C1018E
:1017D0000196EB89FC89E20DF31DD4901C01D7FE24
:1017E00019C0A98DBA8DED91FC91662D70E0B1E024
:1017F000BB1219C0AB1217C02D853E85620F731F37
:101800000484F585E02D2F8138854D895E89898D89
:101810009A8D0995DD0C6394842DD1CF1E821D8293
:101820001C821B8288CF4B815C81640F751FAB8546
:10183000BC856A9FC0016B9F900D7A9F900D11240B
:1018400069817A81680F791F0684F785E02DEF8022
:10185000F88409851A859D014F855889898D9A8D4F
:101860000995D8CF570CC3948ACF6A960FB6F894CF
:10187000DEBF0FBECDBFDF91CF911F910F91FF90C3
:10188000EF90DF90CF90BF90AF909F908F907F9020
:101890006F905F904F903F902F9008958F929F92FE
:1018A000AF92CF92EF92FF920F931F93CF93DF935C
:1018B000EC01262F898D9A8D009709F051C06A306E
:1018C000D1F41D861C868D8948E0849F90011124E7
:1018D0008E859F85820F931F9F878E8781E090E082
:1018E000DF91CF911F910F91FF90EF90CF90AF902C
:1018F0009F908F9008956D3089F3CC88AD888F8943
:101900008823C1F08C859D8536E0C39E800D911D96
:101910001124488559854817590764F44E855F8519
:101920001D861C8638E0A39EC0011124840F951FDC
:101930009F878E87EA88FB88088919894E855F858D
:101940006C857D85CE010E94290A2C898C859D8518
:1019500046E0249F800D911D11249D878C87BECF6A
:101960006A3069F41D861C86FC013896E4912D8945
:101970008E859F85E29F800D911D1124ADCF6D3026
:1019800009F4ACCFFC0134963491631708F4A6CF68
:101990003296E491E61708F4A1CFFC0132968590C7
:1019A0009490462F431B342F47E0349F800C911CAA
:1019B0001124F401329634913196E4913323A9F144
:1019C000EE2399F1CC88F4013596E491AD884F89E6
:1019D000442301F10E2E000CFF0BE30FF11DCE9EF0
:1019E000A001CF9E500D11246C857D85460F571F99
:1019F00068857985641775076CF44E855F851D864B
:101A00001C86FC013896E491AE9E400D511D1124B8
:101A10005F874E87EA88FB88088919894E855F852C
:101A20006C857D85CE010E94290AF4013496E491EB
:101A30002C898C859D85E29F800D911D11248DCF71
:101A40006F927F928F929F92AF92BF92CF92DF92CE
:101A5000EF92FF920F931F93CF93DF93EC016B01F3
:101A60005A0139014801E881F9810284F385E02DAA
:101A70000995E881F9810288F389E02D87019301B6
:101A8000A501B601CE010995A501480D591D41508A
:101A90005109E881F9810288F389E02D9301B601AB
:101AA000CE010995E881F9810088F189E02D940142
:101AB000A501B601CE010995C60CD71CB60161502F
:101AC0007109E881F9810088F189E02D9401A5016F
:101AD000CE010995E881F9810688F789E02DCE01CC
:101AE000DF91CF911F910F91FF90EF90DF90CF90FA
:101AF000BF90AF909F908F907F906F9009946F925E
:101B00007F928F929F92AF92BF92CF92DF92EF928D
:101B1000FF920F931F93CF93DF935C01EB016A0158
:101B2000490138018701DC01ED91FC9162177307CF
:101B300019F5641675062CF0962D872D3A01C92EDD
:101B4000D82E9601261937092F5F3F4F048CF58D4B
:101B5000E02DA301BE01C5010995DF91CF911F9131
:101B60000F91FF90EF90DF90CF90BF90AF909F903C
:101B70008F907F906F9008954615570591F4261722
:101B8000370724F0892D4B01C22FD82F9E01281929
:101B900039092F5F3F4F068CF78DE02DA601B40168
:101BA000DACF0284F385E02D0995D501ED91FC9102
:101BB0000488F589E02D83019401A601BE01C501C9
:101BC0000995D501ED91FC910688F789E02DC501B5
:101BD000DF91CF911F910F91FF90EF90DF90CF9009
:101BE000BF90AF909F908F907F906F900994EF92ED
:101BF000FF920F931F93DC011A960D911C911B9776
:101C000018962D913C911997ED91FC9100A0F1A1AE
:101C1000E02D7B0150E040E070E060E009951F910D
:101C20000F91FF90EF9008954F925F926F927F9285
:101C30008F929F92AF92BF92CF92DF92EF92FF92DC
:101C40000F931F93CF93DF936C012B015A0139013E
:101C50004801DC01ED91FC910284F385E02D0995AA
:101C6000E201640C751CD601ED91FC91C615D705F7
:101C70005CF40088F189E02D87019401A501BE0183
:101C8000C60109952196EFCF0688F789E02DC60198
:101C9000DF91CF911F910F91FF90EF90DF90CF9048
:101CA000BF90AF909F908F907F906F905F904F907C
:101CB00009948F929F92AF92BF92CF92DF92EF9250
:101CC000FF920F931F93CF93DF93EC015B014A01C7
:101CD0006901E881F9810284F385E02D0995950178
:101CE0002C0D3D1D21503109E881F9810488F589C9
:101CF000E02D78018401A401B501CE010995E881A8
:101D0000F9810688F789E02DCE01DF91CF911F91EF
:101D10000F91FF90EF90DF90CF90BF90AF909F908A
:101D20008F9009948F929F92AF92BF92CF92DF9241
:101D3000EF92FF920F931F93CF93DF93EC015B0120
:101D40004A0169017801E881F9810284F385E02D77
:101D50000995C80CD91C860101501109E881F98147
:101D60000488F589E02D9501A401B501CE010995FE
:101D7000E881F9810688F789E02DCE01DF91CF91C6
:101D80001F910F91FF90EF90DF90CF90BF90AF9099
:101D90009F908F900994EF92FF920F931F93DC0115
:101DA000ED91FC9100A0F1A1E02D09951F910F91FB
:101DB000FF90EF9008950F931F93DC01ED91FC913C
:101DC000068CF78DE02D09951F910F9108950F93C3
:101DD0001F93DC01ED91FC91048CF58DE02D0995AC
:101DE0001F910F910895DC01ED91FC910084F18524
:101DF000E02D09943F924F925F926F927F928F9263
:101E00009F92AF92BF92CF92DF92EF92FF920F9389
:101E10001F93CF93DF935C017B014A016901390174
:101E200087E0680E711C93E0759467949A95E1F7CA
:101E30002B01400E511E10E000E0312CD0E0C0E03C
:101E4000CE0187709927330C892B59F4FE0183E06A
:101E5000F595E7958A95E1F7E00FF11FE80DF91D7B
:101E6000349037FE0AC021E030E0A701B5016C0FC5
:101E70007D1F8EE293E00E94F30E2196CC16DD06C4
:101E8000F9F68FEFE81AF80A060D171DE414F504A9
:101E9000A9F6DF91CF911F910F91FF90EF90DF9006
:101EA000CF90BF90AF909F908F907F906F905F90FA
:101EB0004F903F9008952F923F924F925F926F9272
:101EC0007F928F929F92AF92BF92CF92DF92EF92CA
:101ED000FF920F931F93CF93DF9300D000D000D0D9
:101EE000CDB7DEB73C016A013E832D83FC82EB82D5
:101EF0005801A41AB50AB7FE03C0B194A194B10861
:101F00008D809E80861A970A97FE03C091948194D3
:101F100091088A149B045CF0902F812F0D811E8103
:101F20009D838E839C2D8D2D6B01692F782F0C1531
:101F30001D055CF09D818E817E836D83692F782FD6
:101F4000902F812F8601C92ED82E1601201A310A12
:101F50002B012D813E81421A530A57FE03C0519432
:101F600041945108710137FE03C03FEFE31AF30AB1
:101F7000F594E7948D819E81861797075CF5A1E023
:101F8000B0E0BA83A983C016D1064CF1D301ED911C
:101F9000FC910484F585E02D2B813C81A8016D81A5
:101FA0007E818A149B041CF04D815E81B801C301BF
:101FB0000995E418F508F7FE0AC02D813E81898154
:101FC0009A81280F391F3E832D83E20CF31C0F5F8B
:101FD0001F4FD9CF2FEF3FEF3A832983D4CF2696D7
:101FE0000FB6F894DEBF0FBECDBFDF91CF911F912A
:101FF0000F91FF90EF90DF90CF90BF90AF909F90A8
:102000008F907F906F905F904F903F902F900895AA
:1020100008952091ED01260F3327331F213231051A
:10202000ECF420913602FC0190E080E0243069F06D
:1020300082E00895A091ED012191AC0143535E4FE0
:10204000A40FB52FB11D2C930196861798F380919C
:10205000ED01680F6093ED0180E0089581E008953F
:102060001092360281E0809335021092300261E0D6
:1020700082E10E949F0661E083E10E949F06E9EBF6
:10208000F0E080818E7F808380818D7F808388E4F3
:102090008093B80085E48093BC000895CF93DF93CC
:1020A00091E09093CC018823B9F0C091B800D09111
:1020B000BA008091BC008A7B8093BC0060E082E122
:1020C0000E949F0660E083E10E949F060E943010FC
:1020D000D093BA00C093B800DF91CF910895E091FA
:1020E000620280916102E81730F4F0E0E45CFD4F99
:1020F000808190E008958FEF9FEF089590916202A4
:10210000809161022FEF3FEF981748F4E92FF0E03C
:10211000E45CFD4F208130E09F5F90936202C90133
:102120000895CF92DF92EF92FF920F931F93CF9378
:10213000DF937C01CB018A0120917502222389F073
:10214000EB016B01C40ED51ECC15DD0569F069915C
:10215000D701ED91FC910190F081E02DC701099527
:10216000F3CF642F0E940910C801DF91CF911F9116
:102170000F91FF90EF90DF90CF900895CF93DF9372
:102180001F92CDB7DEB76983209175022223F9F043
:1021900020917202203258F021E030E0FC013383BC
:1021A000228390E080E00F90DF91CF91089580919D
:1021B0007302E82FF0E0E455FE4F998190838F5F22
:1021C000809373028093720281E090E0ECCF61E033
:1021D000CE0101960E940910F7CFCF92DF92EF92C5
:1021E000FF920F931F93CF93DF93D091720281E000
:1021F000D13208F09CC0C09174020E9410076B019C
:102200007C018091360281116CC082E0809336029D
:1022100081E0809335028FEF809334021092330275
:10222000D0933202ACEAB1E0E0E1F2E080E0D81312
:102230008DC01092310280913102CC0FC82BC09317
:10224000310280913002813009F084C01092300256
:102250000E9410076B017C01809131028093BB00CA
:102260008091380290913902A0913A02B0913B02DC
:10227000892B8A2B8B2BA1F00E941007009138022A
:102280001091390220913A0230913B026C197D097C
:102290008E099F09061717072807390708F442C057
:1022A0008091BC0083FDD8CF85EC8093BC000E9458
:1022B00010076B017C0180913602823009F44CC01A
:1022C000809134028F3F09F469C0809134028032DA
:1022D00009F466C080913402803309F463C084E05D
:1022E00026C08091380290913902A0913A02B091B3
:1022F0003B02892B8A2B8B2B09F483CF0E9410077A
:10230000009138021091390220913A0230913B023B
:102310006C197D098E099F090617170728073907C9
:1023200008F06FCF809137020E944E1085E0109226
:1023300073021092720210927502DF91CF911F9179
:102340000F91FF90EF90DF90CF9008959D91919322
:102350008F5F6DCF85EEA9CF8091380290913902C1
:10236000A0913A02B0913B02892B8A2B8B2B09F466
:10237000A2CF0E94100700913802109139022091DB
:102380003A0230913B026C197D098E099F090617AC
:1023900017072807390708F08ECFC4CF80E0C7CFD2
:1023A00082E0C5CF83E0C3CFEF92FF920F931F93DC
:1023B000CF93DF937C01C62F80914B0390914C0308
:1023C000009709F459C020914F0331E03093750212
:1023D000209374021092730210927202DC01ED914C
:1023E000FC910190F081E02D60E009958701EE24D9
:1023F000E394F12CD1E0C15080914B0390914C03B8
:10240000CF3F91F1B0E2EB16F104D8F00E94ED104D
:1024100080914B0390914C0320914F03D093750210
:10242000209374021092730210927202DC01ED91FB
:10243000FC910190F081E02D60E00995EE24E39499
:10244000F12C80914B0390914C03F8016491DC01D5
:10245000ED91FC910190F081E02D0995BFEFEB1A11
:10246000FB0A0F5F1F4FC7CFDF91CF911F910F91D5
:10247000FF90EF900C94ED10E0915B03F0915C0302
:102480009081809161038095892380838701C15069
:1024900008F438C0F80184912091490330914A032F
:1024A000232B29F00E94090A0F5F1F4FF0CF28E06D
:1024B00030E040E8E0915703F091580390915F03BA
:1024C000582F5423D9F05081952B9083E0915903D4
:1024D000F0915A03908150916003952B9083E09185
:1024E0005903F0915A035081909160039095952380
:1024F0009083469521503109E9F6D6CF50819095C9
:102500009523E3CFDF91CF911F910F91FF90EF9033
:102510000895CF93DF93EA0191E090937502809341
:102520007402109273021092720282E293E00E948F
:10253000BE10688182E293E00E94BE1082E293E0C6
:102540000E94ED1091E0811190E0892FDF91CF91F1
:1025500008951F93CF93DF93EC018D8D9E8D00978F
:1025600021F1162F29A131E03093750220937402D6
:102570001092730210927202DC01ED91FC910190B5
:10258000F081E02D60E009958D8D9E8DDC01ED914F
:10259000FC910190F081E02D612F09958D8D9E8D2C
:1025A000DF91CF911F910C94ED10ADA5BEA59C912C
:1025B0008BA9809589238C938B8D9C8D892B31F0F1
:1025C000862FDF91CF911F910C94090A28E030E00B
:1025D00080E8A9A5BAA599A9462F4823C1F04C9136
:1025E000942B9C93ABA5BCA59C914AA9942B9C933E
:1025F000ABA5BCA54C919AA9909594239C938695E4
:102600002150310931F7DF91CF911F9108954C91FD
:1026100090959423E6CFDF92EF92FF920F931F9352
:10262000CF93DF9380914B0390914C03892B09F456
:1026300098C02091630330916403409165035091E9
:10264000660360E074E284EF90E00E94492120512B
:10265000310941095109569547953795279520939A
:10266000B80065E084E89AE00E94D41160913203DA
:1026700061508EE293E00E94A912209134033091C0
:102680003503C901079697FD079633E09595879521
:102690003A95E1F72091320330913303829F800114
:1026A000839F100D929F100D1124C0914D03D09166
:1026B0004E0380914B0390914C030C0F1D1F00970C
:1026C00009F48FC020914F0331E0309375022093BD
:1026D00074021092730210927202DC01ED91FC916F
:1026E0000190F081E02D60E40995EE24E394F12C53
:1026F000DD24D39480914B0390914C030C171D075C
:1027000009F446C0B0E2EB16F104D8F00E94ED10D7
:1027100080914B0390914C0320914F03D09275020E
:10272000209374021092730210927202DC01ED91F8
:10273000FC910190F081E02D60E40995EE24E39492
:10274000F12C80914B0390914C036991DC01ED9148
:10275000FC910190F081E02D0995BFEFEB1AFB0A87
:10276000C9CF8091490390914A03892B31F0809120
:102770006C0390916D030E94100AE0915D03F0914B
:102780005E0390818091620380958923808369CF65
:102790000E94ED1080914B0390914C03892B09F41A
:1027A00061C02091670330916803409169035091A3
:1027B0006A0360E074E284EF90E00E9449212051B6
:1027C0003109410951095695479537952795209329
:1027D000B800DF91CF911F910F91FF90EF90DF90A4
:1027E0000895E0915B03F0915C0380819091610317
:1027F000892B80830C171D0769F289912091490369
:1028000030914A03232B19F00E94090AF3CF28E0E4
:1028100030E040E8E0915703F091580390915F0356
:10282000582F5423D9F05081952B9083E091590370
:10283000F0915A03908150916003952B9083E09121
:102840005903F0915A03508190916003909595231C
:102850009083469521503109E9F6CCCF508190956F
:102860009523E3CFE0915D03F0915E038081909129
:102870006203892B8083ADCF1F93CF93DF93EC014D
:10288000162F8D8D9E8D892BB1F12DA93EA94FA9B3
:1028900058AD60E074E284EF90E00E94492120513D
:1028A0003109410951095695479537952795209348
:1028B000B80066EA111167EACE010E94A9128D8D57
:1028C0009E8D892B41F129AD3AAD4BAD5CAD60E0F9
:1028D00074E284EF90E00E944921205131094109BE
:1028E000510956954795379527952093B800DF9164
:1028F000CF911F9108958B8D9C8D892B21F08EADEA
:102900009FAD0E94100AEFA5F8A990818CA980952F
:1029100089238083CECFEFA5F8A980819CA9892B3C
:102920008083E5CF90E080E008952F923F924F9210
:102930005F926F927F928F929F92AF92BF92CF924F
:10294000DF92EF92FF920F931F93CF93DF93CDB758
:10295000DEB72B970FB6F894DEBF0FBECDBFE82EC3
:10296000D62EF42E3D832C8318010E9467074B015D
:102970005C012E2D220F2B830F2DC12C1B8611E005
:102980004F2D50E05A834983C101B0E0A0E08E830F
:102990009F83A887B98710937502E0927402109202
:1029A0007302109272026D2D82E293E00E94BE10BB
:1029B00082E293E00E94ED100E9410072B013C017F
:1029C0008091360281116DC00A87013210F090E2C9
:1029D0009A871093360210933502AFEFA09334021A
:1029E000109233028A858150809332021093310213
:1029F00080913102BB818B2B809331028091300218
:102A0000813009F091C0109230020E9410072B0112
:102A10003C01809131028093BB00809138029091FB
:102A20003902A0913A02B0913B02892B8A2B8B2B61
:102A3000A1F00E9410072091380230913902409194
:102A40003A0250913B0264197509860997092617C5
:102A500037074807590708F445C08091BC0083FD3B
:102A6000D8CF25EC2093BC000E9410072B013C011D
:102A700080913602813009F45BC0809133024A852F
:102A8000841718F4509133025A87A0E1B2E0ECE3C6
:102A9000F2E080E09A85891751F19D9191938F5FC3
:102AA000F9CF8091380290913902A0913A02B09109
:102AB0003B02892B8A2B8B2B09F482CF0E941007B3
:102AC000209138023091390240913A0250913B02F4
:102AD00064197509860997092617370748075907A2
:102AE00008F06ECF809137020E944E101A86109225
:102AF0006202AA85A093610280916202BA85B8172A
:102B000009F448C021143104A9F582E293E00E943F
:102B10007E10EC81FD812B85E20FF11D27FDFA95DA
:102B200080832F5F2B87E8CF35EE3093BC009CCF9E
:102B30008091380290913902A0913A02B0913B0203
:102B4000892B8A2B8B2B09F493CF0E94100720919D
:102B500038023091390240913A0250913B02641997
:102B6000750986099709261737074807590708F096
:102B70007FCFB8CF0E946707681979098A099B0936
:102B80002E813F8148855985621773078407950711
:102B900008F4BBCFCF0C0F19CF1408F4FCCE2114CE
:102BA0003104D9F00E946707AB01BC0148195909EB
:102BB0006A097B09C101B0E0A0E0481759076A071C
:102BC0007B0758F03B85832F330F990B49815A813E
:102BD0008417950714F45FEF5B878B852B960FB6F0
:102BE000F894DEBF0FBECDBFDF91CF911F910F9143
:102BF000FF90EF90DF90CF90BF90AF909F908F901D
:102C00007F906F905F904F903F902F900895BF926C
:102C1000CF92DF92EF92FF920F931F93CF93DF93A8
:102C200000D0CDB7DEB7F82EE62EC42EB22ED02EB1
:102C300008EE13E09E012E5F3F4F41E00E94951485
:102C4000882399F18C2D8B19990BAC014F5F5F4F45
:102C500081E090E002C0880F991FBA94E2F70197D3
:102C6000042E01C0880F0A94EAF70D2D01C0000F51
:102C70004A95EAF7982F90952A8192238023892BF1
:102C80008A838983AE014F5F5F4F6E2D8F2D0E9427
:102C900089120F900F90DF91CF911F910F91FF90AC
:102CA000EF90DF90CF90BF90089580E0F2CF0F9328
:102CB0001F93CF93DF9308EE13E024E133E046E067
:102CC0006BE3809113030E949514809114039091FB
:102CD00015039827892798279093A7018093A60129
:102CE000809116039091170398278927982790932E
:102CF000A5018093A401809118039091190398274E
:102D0000892798279093A3018093A20183E10E94D1
:102D1000FE062091630230916402D0E0C0E0821789
:102D2000930749F083E10E94FE069093640280932A
:102D30006302C2E0D0E0249681E10E94FE06209169
:102D40006502309166028217930781F081E10E944B
:102D5000FE06909366028093650281E090E08C0FFE
:102D60009D1FDF91CF911F910F91089590E080E01A
:102D7000F6CF2091340330913503C901079697FDB2
:102D8000079623E0959587952A95E1F720913203E0
:102D900030913303829FA001839F500D929F500D6D
:102DA000112470E060E080914D0390914E030C94EB
:102DB0000A24FC0101900020E9F73197AF01481B7C
:102DC000590BBC018EE293E00C9475070E94FC2322
:102DD0000F931F93CF93DF93EC0188819981009724
:102DE00059F02A813B812617370730F081E0DF91C7
:102DF000CF911F910F9108958B016F5F7F4F0E94BC
:102E00003F23009759F0998388831B830A832C8181
:102E10003D81232B59F7FC011082E8CF80E0E7CFFA
:102E2000CF93DF93EC0188819981009711F00E9484
:102E3000B622198218821D821C821B821A82DF919F
:102E4000CF910895EF92FF920F931F93CF93DF934B
:102E5000EC017B01198218821B821A821D821C825E
:102E6000FB0101900020E9F731978F01061B170B3A
:102E7000B8010E94E816811109C0CE01DF91CF91FF
:102E80001F910F91FF90EF900C9410171D830C83EE
:102E9000B70188819981DF91CF911F910F91FF90A8
:102EA000EF900C941124CF92DF92EF92FF920F9348
:102EB0001F93CF93DF93CDB7DEB762970FB6F89429
:102EC000DEBF0FBECDBF8C01CB01F8011182108295
:102ED00013821282158214824AE09E012F5F3F4FB7
:102EE0006901B9010E948C1FF60101900020E9F7E9
:102EF00031977F01EC18FD08B701C8010E94E81660
:102F0000811112C0C8010E94101762960FB6F89482
:102F1000DEBF0FBECDBFDF91CF911F910F91FF900C
:102F2000EF90DF90CF900895F801F582E482B6012A
:102F3000808191810E941124E8CF0F931F93CF933A
:102F4000DF93EC010C811D810F5F1F4FB8010E94C0
:102F5000E816882391F0288139818C819D816EE566
:102F600071E0820F931F0E9411241D830C83CE01F8
:102F7000DF91CF911F910F910895CE010E941017FC
:102F8000F6CFEF92FF920F931F93CF93DF93EC0155
:102F9000FB01E080F180E114F10411F1048115815D
:102FA00001151105A9F08C819D81080F191FB80129
:102FB000CE010E94E816882399F0288139818C81FE
:102FC0009D81B701820F931F0E9411241D830C83E2
:102FD000CE01DF91CF911F910F91FF90EF90089557
:102FE000CE010E941017F4CFFC01808191810097DF
:102FF00011F00C94B6220895CF93DF93CDB7DEB7CE
:103000002C970FB6F894DEBF0FBECDBFEEE2F3E013
:10301000158614861786168681E0848B858B6091D1
:10302000A8017091A901CE0107960E94531760E68E
:1030300071E0CE0101960E942217BE01695F7F4FA9
:10304000CE0101960E94C1170E94A207CE010196EF
:103050000E94F417CE0107960E94F4170E940B13EA
:103060002C960FB6F894DEBF0FBECDBFDF91CF9187
:1030700008958F929F92AF92BF92EF92FF920F931B
:103080001F93CF93DF93CDB7DEB72C970FB6F8948D
:10309000DEBF0FBECDBF8C019093AB018093AA0120
:1030A0000E94B9160E94FC1710923B0310923A033B
:1030B0008AE090E090933D0380933C0382E080930C
:1030C0004203809343032091AA013091AB0146E073
:1030D000429FC001439F900D112482599C4F0E9432
:1030E000A2070E940B130E9467077B010E945716DC
:1030F000009709F068C00E9467076E197F09072EC4
:10310000000C880B990B0E94C31F4B015C0120E04F
:1031100030E04AE754E46091000170910101809130
:103120000201909103010E9422209B01AC01C50184
:10313000B4010E94E7211816CCF60E94B91610922D
:103140003B0310923A0310923D0310923C0381E03E
:1031500080934203809343036091A8017091A90179
:10316000CE0107960E94531768E671E0CE010196E2
:103170000E942217BE01695F7F4FCE0101960E9417
:10318000C1170E949D170E94A207CE0101960E94BE
:10319000F417CE0107960E94F41710923B03109289
:1031A0003A038AE090E090933D0380933C0382E0F1
:1031B000809342038093430381E791E00E94D916F4
:1031C0000E940B13FFCFE090A801F090A901000F1F
:1031D000111F0817190709F443C00E94B91610926D
:1031E0003B0310923A0310923D0310923C0381E09E
:1031F0008093420380934303B701CE0107960E9458
:10320000531768E671E0CE0101960E942217BE01B5
:10321000695F7F4FCE0101960E94C1170E949D17E2
:103220000E94A207CE0101960E94F417CE010796D4
:103230000E94F41710923B0310923A038AE090E048
:1032400090933D0380933C0382E0809342038093FC
:10325000430381E791E00E94D9160E940B13FFCF30
:103260008FEFE81AF80AF092A901E092A8012AE08B
:1032700037ED43EA5CE360910001709101018091B8
:103280000201909103010E947A21609300017093E2
:10329000010180930201909303010E94FC172C9678
:1032A0000FB6F894DEBF0FBECDBFDF91CF911F9157
:1032B0000F91FF90EF90BF90AF909F908F900895E7
:1032C00085ED8093BC008091380290913902A091E5
:1032D0003A02B0913B020796A11DB11D23E0B695BD
:1032E000A795979587952A95D1F72091BC0024FD45
:1032F00003C010923602089540913802509139026D
:1033000060913A0270913B02452B462B472B69F3A3
:103310000097A105B10541F02AE22A95F1F700C016
:103320000197A109B109E1CF809137020C944E10A9
:103330001F920F920FB60F9211242F933F938F93EA
:103340009F93AF93BF9380916A0290916B02A0917B
:103350006C02B0916D023091690223E0230F2D378A
:1033600058F50196A11DB11D2093690280936A0250
:1033700090936B02A0936C02B0936D0280916E02E9
:1033800090916F02A0917002B09171020196A11DFF
:10339000B11D80936E0290936F02A0937002B09360
:1033A0007102BF91AF919F918F913F912F910F909B
:1033B0000FBE0F901F90189526E8230F0296A11DAF
:1033C000B11DD2CF1F920F920FB60F9211242F93DF
:1033D0003F934F935F936F937F938F939F93AF939D
:1033E000BF93EF93FF9386E792E00E94AF05FF91B2
:1033F000EF91BF91AF919F918F917F916F915F916D
:103400004F913F912F910F900FBE0F901F901895E5
:103410001F920F920FB60F9211242F938F939F93A9
:10342000EF93FF93E0918602F09187028081E09113
:103430008C02F0918D0282FD1BC0908180918F02E1
:103440008F5F8F7320919002821741F0E0918F027D
:10345000F0E0EA58FD4F958F80938F02FF91EF9136
:103460009F918F912F910F900FBE0F901F901895E5
:103470008081F4CF1F920F920FB60F9211242F93D9
:103480003F934F935F936F937F938F939F93AF93EC
:10349000BF93EF93FF938091B900887F803609F442
:1034A0004AC0F0F5883209F4A7C018F5803109F454
:1034B0009BC0B8F4882309F4F9C0883009F494C09B
:1034C000FF91EF91BF91AF919F918F917F916F91FC
:1034D0005F914F913F912F910F900FBE0F901F90D2
:1034E0001895883109F488C0803251F780933402EE
:1034F00014C0803409F49DC040F48033B9F388339C
:10350000F9F68093340285ECB0C0803509F485C0AB
:10351000883509F496C0883499F60E946019D0CF96
:10352000883909F48CC038F5883729F050F488368A
:1035300011F0803729F683E08093360210920F0253
:1035400057C0883809F47BC0803919F0803809F0F9
:10355000B7CF80910F02803208F071C0E0910F0266
:1035600081E08E0F80930F028091BB00F0E0E1516B
:10357000FE4F80833DC0803B39F0E0F4803A09F48F
:1035800079C0883A09F09CCF84E08093360210928B
:10359000EE011092ED01E0915F02F0916002099559
:1035A0008091ED0181110FC081E08093ED011092B7
:1035B000CD0109C0803C09F4A6CF883C09F4A3CF13
:1035C000883B09F07DCFE091EE0181E08E0F809382
:1035D000EE01F0E0E353FE4F80818093BB009091B9
:1035E000EE018091ED0129C0809131028093BB00F2
:1035F00085EC8093BC0064CF9091330280913202BD
:10360000981758F5E091330281E08E0F80933302D2
:10361000F0E0E05FFD4F8081E9CFE091330281E08F
:103620008E0F809333028091BB00F0E0E05FFD4F8E
:10363000808390913302809132029817C8F285E816
:10364000D8CFE091330281E08E0F809333028091D6
:10365000BB00F0E0E05FFD4F808380913502811177
:103660005CCF81E08093300284EA8093BC001092AA
:10367000360226CF85EC8093BC00109236028091F2
:103680000F02803230F4E0910F02F0E0E151FE4F82
:10369000108260910F0270E0E0915D02F0915E0295
:1036A0008FEE91E0099510920F020ACF109234022A
:1036B00034CFCF93DF93E6E7F2E01382128288EEF5
:1036C00093E0A0E0B0E084839583A683B78322E1F2
:1036D00031E03183208325EC30E03587248724ECEA
:1036E00030E03787268720EC30E0318B208B21ECCF
:1036F00030E0338B228B22EC30E0358B248B26ECB0
:1037000030E0378B268B118E128E138E148EC2E210
:10371000D3E01B821A828C839D83AE83BF8384E2B5
:1037200091E0998388836CE771E08EE693E00E94D4
:10373000221766E871E084E793E00E9422176EE8A2
:1037400071E08AE793E00E942217EEE2F3E0138231
:10375000128220E830E03583248380E490E0978370
:1037600086833187208793878287168A15861486F9
:103770001786168681E0858B848B2FEF3FEF338B86
:10378000228B318B208B878B108E128E118E86E3CD
:1037900091E091838083148E138ED68FC58F10A2F3
:1037A000178E8FEF84A385A386A387A380A780E8C5
:1037B0009AE1A6E0B0E085AB96ABA7ABB0AF80EAEC
:1037C00096E8A1E0B0E081AF92AFA3AFB4AF80E5DF
:1037D00086AF17AE88E680931303DF91CF910895EB
:1037E000CF93DF9300D0CDB7DEB7789484B58260F5
:1037F00084BD84B5816084BD85B5826085BD85B595
:10380000816085BD80916E00816080936E00109212
:10381000810080918100826080938100809181008D
:10382000816080938100809180008160809380001E
:103830008091B10084608093B1008091B00081607C
:103840008093B00080917A00846080937A008091A8
:103850007A00826080937A0080917A008160809300
:103860007A0080917A00806880937A001092C1007B
:10387000109268021092670260E085E00E94CD0617
:1038800001E023E042E06BE6809113030E940716FB
:1038900000E022E044E06BE1809113030E940716F0
:1038A00022E044E06CE1809113030E940716F0903F
:1038B000130308EE13E09E012E5F3F4F41E06BE6DD
:1038C0008F2D0E9495148A818F7B8A838983AE0114
:1038D0004F5F5F4F6BE68F2D0E94891281E10E943E
:1038E000FE06909366028093650283E10E94FE06C5
:1038F000909364028093630280914D0390914E03F4
:10390000892B11F52091340330913503C9010796B5
:1039100097FD0796B3E095958795BA95E1F72091C5
:10392000320330913303AC01429FC001439F900D9D
:10393000529F900D11240E941A2290934E0380935F
:103940004D03892B09F446C20E94B9162091340315
:10395000309135038091320390913303B9012132C4
:1039600031050CF42EC16054710977FF02C06F5FFE
:103970007F4F759567958255910997FD019600E4F3
:1039800010E022E530E04AE657E0959587950E94E1
:10399000FA0E82E08093500380914B0390914C0388
:1039A000892B09F421C18CE380934F0310926202AA
:1039B0001092610210927302109272020E943010F3
:1039C00083E797E09093600280935F0284E797E03B
:1039D00090935E0280935D028091560387FD1EC026
:1039E00061E00E94CD0661E0809156030E949F062F
:1039F00061E070E080E090E00E94350760E0809137
:103A000056030E949F066AE070E080E090E00E940A
:103A1000350761E0809156030E949F0680914B0319
:103A200090914C03892B09F49EC12091630330913E
:103A30006403409165035091660360E074E284EF93
:103A400090E00E94492120513109410951095695C0
:103A50004795379527952093B80064E086E895E070
:103A60000E94D4116091340361508EE293E00E9471
:103A7000A91264E082E895E00E94D411809150037D
:103A800064E1813009F460E18EE293E00E94A912C2
:103A900064E08EE795E00E94D4118FE880936B0379
:103AA00080913203909133038038910509F074C1FD
:103AB00080913403909135038034910509F07CC1E5
:103AC00080915003813009F465C18FEC80936B03C2
:103AD00012E16AED8EE293E00E94A912612F8EE25C
:103AE00093E00E94A91261E88EE293E00E94A9127D
:103AF00060916B038EE293E00E94A91269ED8EE261
:103B000093E00E94A9128091500361EF813009F483
:103B100062E28EE293E00E94A91266E088E795E0F7
:103B20000E94D41180914B0390914C03892B09F48E
:103B300047C1209167033091680340916903509118
:103B40006A0360E074E284EF90E00E944921205112
:103B50003109410951095695479537952795209385
:103B6000B80081E0809342038093430381E090E0BA
:103B7000909341038093400390933F0380933E03CF
:103B80000E947B06892B09F026C10E94B91610926B
:103B90003B0310923A0310923D0310923C0387E9D5
:103BA00091E00E94D9160E940B130E94B9168091D1
:103BB0006702909168020196909368028093670271
:103BC000DFCF6052710977FF02C06F5F7F4F75953D
:103BD00067958357910997FD019600E210E023E76E
:103BE00030E04AE855E0D1CE61E0809154030E9474
:103BF000CD0661E0809155030E94CD06809154036B
:103C0000082E000C990BFC01E85BF54FE491F0E005
:103C1000EE0FFF1FEC5CF54F2591349130935C0360
:103C200020935B03FC01E45AF54FE491E0936103B8
:103C300080915503082E000C990BFC01E85BF54FB1
:103C4000E491F0E0EE0FFF1FEC5CF54FA591B4910D
:103C5000B0935E03A0935D03FC01E45AF54FE49139
:103C6000E09362038C91E82BEC938091490390914F
:103C70004A03892B09F434C01FB7F89480915C0281
:103C8000811127C0E2E5FAE08491E6E6FAE094913A
:103C9000E82FF0E0EE0FFF1FE65DF54FA591B49120
:103CA000EC91E92321F461E08AE00E949F0661E043
:103CB0008AE00E94CD068CB580618CBD8CB5806495
:103CC0008CBD61E08DE00E94CD0661E08BE00E943A
:103CD000CD0680915C028F5F80935C021FBF7CCE1B
:103CE00061E0809152030E94CD0661E08091530310
:103CF0000E94CD0680915203082E000C990BFC0106
:103D0000E85BF54FE491F0E0EE0FFF1FEC5CF54F40
:103D1000259134913093580320935703FC01E45AC2
:103D2000F54FE491E0935F0380915303082E000C5C
:103D3000990BFC01E85BF54FE491F0E0EE0FFF1FFB
:103D4000EC5CF54FA591B491B0935A03A09359033D
:103D5000FC01E45AF54FE491E09360038C91E09507
:103D6000E823EC9339CE8091490390914A03892B43
:103D700031F080916C0390916D030E94100AE091E4
:103D80005D03F0915E0390818091620380958923A9
:103D9000808363CE8FE99ACE8036910569F4809155
:103DA000340390913503409739F48091500381306A
:103DB00029F08FEA80936B0312E08BCE80E1FACF7B
:103DC000E0915D03F0915E03808190916203892B05
:103DD0008083C7CEFFCF0E947B060197E1F30E944C
:103DE000B91680916702909168020E94811F03E0DA
:103DF00010E00E947C1FB8010E94EC21009759F44A
:103E000090E080E00E94391868EE73E080E090E076
:103E10000E943507EECF8230910519F482E090E0E0
:103E2000F1CF019731F781E090E0ECCF86E391E0AC
:103E300090932F0380932E0380914D0390914E0316
:103E4000009711F00E94B6228AE793E00E94F417CF
:103E500084E793E00E94F4178EE693E00C94F41745
:103E60008F929F92AF92BF92CF92DF92EF92FF928A
:103E7000CF93DF93EC01688179818A819B81611501
:103E800071058105910521F464E279ED8BE597E0F8
:103E90002DE133EF41E050E00E94E02049015A015A
:103EA0009B01AC01A7EAB1E40E94FF206B017C01F9
:103EB000ACEEB4EFA50194010E940D21DC01CB0111
:103EC0008C0D9D1DAE1DBF1DB7FF03C00197A1093D
:103ED000B04888839983AA83BB839F77DF91CF9172
:103EE000FF90EF90DF90CF90BF90AF909F908F901A
:103EF00008950E94301F089584E091E00E94301FD1
:103F00000895B0E0A0E08093040190930501A09390
:103F10000601B09307010895BB274A3031F4992375
:103F200022F4BDE2909581959F4F0C94981FBB277A
:103F3000FB015527AA27880F991FAA1FA41710F065
:103F4000A41B83955051B9F7A05DAA3308F0A95D71
:103F5000A193009779F7B111B1931192CB010C9411
:103F6000B11FDC01FC01672F71917723E1F73297D4
:103F700004C07C916D9370836291AE17BF07C8F344
:103F80000895E89409C097FB3EF49095809570954C
:103F900061957F4F8F4F9F4F9923A9F0F92F96E995
:103FA000BB279395F695879577956795B795F1110A
:103FB000F8CFFAF4BB0F11F460FF1BC06F5F7F4FA7
:103FC0008F4F9F4F16C0882311F096E911C07723B9
:103FD00021F09EE8872F762F05C0662371F096E8C2
:103FE000862F70E060E02AF09A95660F771F881F91
:103FF000DAF7880F9695879597F90895990F000835
:10400000550FAA0BE0E8FEEF16161706E807F907AA
:10401000C0F012161306E407F50798F0621B730B45
:10402000840B950B39F40A2661F0232B242B252BC6
:1040300021F408950A2609F4A140A6958FEF811D69
:10404000811D08950E9435200C94A6200E9498207E
:1040500038F00E949F2020F0952311F00C948F20BF
:104060000C94952011240C94DA200E94B72070F350
:10407000959FC1F3950F50E0551F629FF001729F0D
:10408000BB27F00DB11D639FAA27F00DB11DAA1F1C
:10409000649F6627B00DA11D661F829F2227B00D69
:1040A000A11D621F739FB00DA11D621F839FA00DF4
:1040B000611D221F749F3327A00D611D231F849F44
:1040C000600D211D822F762F6A2F11249F5750409B
:1040D0009AF0F1F088234AF0EE0FFF1FBB1F661F16
:1040E000771F881F91505040A9F79E3F510580F0DF
:1040F0000C948F200C94DA205F3FE4F3983ED4F3C5
:10410000869577956795B795F795E7959F5FC1F782
:10411000FE2B880F911D9695879597F9089597F92D
:104120009F6780E870E060E008959FEF80EC08955D
:1041300000240A9416161706180609060895002486
:104140000A9412161306140605060895092E039400
:10415000000C11F4882352F0BB0F40F4BF2B11F474
:1041600060FF04C06F5F7F4F8F4F9F4F089557FDD3
:104170009058440F551F59F05F3F71F04795880FD5
:1041800097FB991F61F09F3F79F08795089512166C
:1041900013061406551FF2CF4695F1DF08C0161618
:1041A00017061806991FF1CF8695710561050894C9
:1041B0000895E894BB2766277727CB0197F90895E0
:1041C000052E97FB1EF400940E94F72057FD07D0A0
:1041D0000E94492107FC03D04EF40C94F72050951F
:1041E0004095309521953F4F4F4F5F4F08959095E3
:1041F0008095709561957F4F8F4F9F4F08950E94D6
:104200006B21A59F900DB49F900DA49F800D911DD3
:1042100011240895B7FF0C94FF200E94FF20821BF9
:10422000930B08952F923F924F925F926F927F92DD
:104230008F929F92AF92BF92CF92DF92EF92FF92B6
:104240000F931F93CF93DF93CDB7DEB7CA1BDB0B62
:104250000FB6F894DEBF0FBECDBF09942A88398807
:1042600048885F846E847D848C849B84AA84B9840E
:10427000C884DF80EE80FD800C811B81AA81B9811A
:10428000CE0FD11D0FB6F894DEBF0FBECDBFED012E
:104290000895A1E21A2EAA1BBB1BFD010DC0AA1F87
:1042A000BB1FEE1FFF1FA217B307E407F50720F09F
:1042B000A21BB30BE40BF50B661F771F881F991F1A
:1042C0001A9469F760957095809590959B01AC0163
:1042D000BD01CF010895A29FB001B39FC001A39F6C
:1042E000700D811D1124911DB29F700D811D11242F
:1042F000911D08955058BB27AA270E9492210C9423
:10430000A6200E94982038F00E949F2020F039F4C7
:104310009F3F19F426F40C9495200EF4E095E7FBEA
:104320000C948F20E92F0E94B72058F3BA17620728
:1043300073078407950720F079F4A6F50C94D9202B
:104340000EF4E0950B2EBA2FA02D0B01B9019001B0
:104350000C01CA01A0011124FF27591B99F0593FF4
:1043600050F4503E68F11A16F040A22F232F342F3C
:104370004427585FF3CF469537952795A795F0408A
:104380005395C9F77EF41F16BA0B620B730B840B9F
:10439000BAF09150A1F0FF0FBB1F661F771F881F57
:1043A000C2F70EC0BA0F621F731F841F48F48795AF
:1043B00077956795B795F7959E3F08F0B0CF9395A1
:1043C000880F08F09927EE0F9795879508950E941A
:1043D000FE1F08F48FEF089597FB072E16F4009444
:1043E00007D077FD09D00E94002207FC05D03EF4DB
:1043F000909581959F4F0895709561957F4F089591
:10440000AA1BBB1B51E107C0AA1FBB1FA617B707FA
:1044100010F0A61BB70B881F991F5A95A9F7809516
:104420009095BC01CD010895EE0FFF1F0590F4910A
:10443000E02D09940F931F93CF93DF938230910562
:1044400010F482E090E0E0918203F091830330E089
:1044500020E0B0E0A0E0309799F42115310509F48F
:104460004AC0281B390B24303105D8F58A819B813D
:104470006115710589F1FB0193838283FE0111C0EF
:10448000408151810281138148175907E0F0481794
:10449000590799F4109761F012960C93129713969E
:1044A0001C933296CF01DF91CF911F910F91089508
:1044B0000093820310938303F4CF2115310551F04B
:1044C0004217530738F0A901DB019A01BD01DF0152
:1044D000F801C1CFEF01F9CF90938303809382035A
:1044E000CDCFFE01E20FF31F81939193225031094A
:1044F00039832883D7CF2091800330918103232BE8
:1045000041F420910A0130910B01309381032093F3
:10451000800320910801309109012115310541F4F2
:104520002DB73EB740910C0150910D01241B350B66
:10453000E0918003F0918103E217F307A0F42E1BB2
:104540003F0B2817390778F0AC014E5F5F4F2417F7
:10455000350748F04E0F5F1F50938103409380034F
:10456000819391939FCFF0E0E0E09CCFCF93DF93D6
:104570000097E9F0FC01329713821282A091820326
:10458000B0918303ED0130E020E01097A1F4208189
:104590003181820F931F209180033091810328176E
:1045A000390709F061C0F0938103E0938003DF9144
:1045B000CF910895EA01CE17DF07E8F54A815B81C4
:1045C0009E0141155105B1F7E901FB83EA83499149
:1045D0005991C40FD51FEC17FD0761F480819181BB
:1045E0000296840F951FE9019983888382819381C4
:1045F0009B838A83F0E0E0E012968D919C91139763
:104600000097B9F52D913C911197CD010296820F3B
:10461000931F20918003309181032817390739F6C1
:10462000309751F51092830310928203B093810367
:10463000A0938003BCCFD383C28340815181840F78
:10464000951FC817D90761F44E5F5F4F8881998124
:10465000480F591F518340838A819B8193838283B2
:104660002115310509F0B0CFF0938303E093820365
:104670009ECFFD01DC01C0CF13821282D7CFB0E004
:10468000A0E0E5E4F3E20C9414218C01009751F4CE
:10469000CB010E941A228C01C801CDB7DEB7E0E140
:1046A0000C943021FC01E60FF71F9C0122503109C8
:1046B000E217F30708F49DC0D901CD91DC91119761
:1046C000C617D70798F0C530D10530F3CE0104974F
:1046D0008617970708F3C61BD70B2297C193D19370
:1046E0006D937C93CF010E94B622D6CF5B01AC1AAA
:1046F000BD0A4C018C0E9D1EA0918203B0918303D4
:10470000512C412CF12CE12C109731F58091800334
:10471000909181038815990509F05CC046165706EB
:1047200008F058C08091080190910901009741F468
:104730008DB79EB740910C0150910D01841B950BD4
:10474000E817F90708F055C0F0938103E093800360
:10475000F90171836083A0CF8D919C91119712967E
:104760006C90129713967C901397A815B90559F57C
:104770006C0142E0C40ED11CCA14DB0420F1AC0170
:104780004A195B09DA011296159780F062827382EA
:1047900051834083D9016D937C93E114F10471F04E
:1047A000D7011396FC93EE93129776CF22968C0F37
:1047B0009D1FF90191838083F301EFCFF093830371
:1047C000E093820369CF4816590608F42C017D0155
:1047D000D3019ACFCB010E941A227C01009749F0A5
:1047E000AE01B8010E940124C8010E94B6228701CF
:1047F00053CF10E000E050CF81E090E0F8940C94AB
:104800001824FB01DC0102C001900D924150504080
:10481000D8F70895DC0101C06D9341505040E0F796
:104820000895FB01DC0101900D920020E1F708954D
:1048300015E0C6E4D5E004C0FE010E9414222196D2
:0A484000C734D107C9F7F894FFCF81
:10484A000000004001000000000084038000000016
:10485A000000D105750772051E06A3058105950599
:10486A0000000000BE10911092147105AB077E1073
:10487A006F10000000004E0C7507921408105909B9
:10488A007105F30ECB0EE70EDB0E5B0F7105140AF2
:10489A003C14C9081209140EF70D7F0D200D0A00E9
:1048AA0073636F72653A200073636F7265203D20EF
:1048BA000047414D45204F564552210054776973B0
:1048CA007420697421005269702069742100506F44
:1048DA007572206974210077616974696E672E2E7A
:0248EA002E009E
:00000001FF
